:03003300020D5C5F
:10000300E4907F93F0907F9C7430F0E4907F96F0BF
:10001300907F94F0907F9D74FFF0E4907F97F09031
:0F0023007F95F0907F9E7417F0E4907F98F02205
:10004600300F18120D38EFC3951440030200D890F4
:100056007FBF7401F0C20FC20A8077300C3B907FDD
:10006600C6E020E16D120D38EFC394405064907ED7
:1000760040E013920F907FC7E014F51C200A116030
:100086000FF5237E7E7F4175277E75284112080174
:10009600C20CE4907FC7F08039907FC8E020E1323F
:1000A600120D38EFC394405029907DC0E013920F93
:1000B600907FC9E014F51C200A11600FF5237E7DA0
:1000C6007FC175277D7528C1120801D20CE4907F87
:1000D600C9F0907FB6E030E10302015E120C418F59
:1000E6001C120D448F11E51CC39513500F120D20E1
:1000F600EF30E008E51120E70330125CC212E51C80
:0C003600907F987410F090C000E0FF2252
:03004300020E00AA
:030000000208B63D
:400106006056B48003431102E51130E724E51CD394204003751C20851C237E7E7F8075277E752880120A86E51C251C907FB7F08027E51CD3943F4003751C3F851C23907E06
:4001460080E511F07E7E7F8175277E752881120826E51C04907FB7F0907FCEE030E106200D030203BAE4F51B7440251BF582E4347CF583E0FFE51B7C007B017A7E7900244A
:4001860000F9EC347EFAEF120A0D051BE51BB420D7907E00E0606E7F01907E11E0FD120C1C907E01E0FF120B5E907E02E0FF120B84D210D211751C04907E03E06005C211D7
:4001C600431CC0907E04E0B40107C211431C0B8010907E04E06007C210431C098003431C027F03AD1C120C1C431980907F987414F090C000E519F0907F987412F0E51644CE
:400206000690C000F0907E05E06012A3E0543FF518907F987413F090C000E518F0907E07E06042907E13E0600543150480035315FBE4FFAD15120C1C907E08E060054317BC
:4002460080800353177F5317FC907E09E06011431702A3E0FF120BD0907E0BE0FF120BF6AF17120BAA907E0EE06018A3E0600543190180035319FE907F987414F090C00046
:40028600E519F0907E0CE06018A3E0600543190280035319FD907F987414F090C000E519F0907E12E0F513A3E0139213A3E0F514A3E0600543191080035319EF907F98742D
:4002C60014F090C000E519F0907E16E060325318BF907F987413F0E518547F90C000F0907F987411F0120D14EF54FE90C000F05315FDE4FFAD15120C1CE4F50EF50DD20EEB
:40030600907E17E0600F431502E4FFAD15120C1C750D01D20E907E18E06010907F987412F0E516440490C000F0D20A907E19E06011431840907F987413F0E518547F90C064
:4003460000F0907E1AE0600F5315FEE4FFAD15120C1C750F01D20E907E1BE0600F431501E4FFAD15120C1CE4F50FD20E907E1CE0600E907F987412F0E516440290C000F0D8
:40038600907E1DE06002D212907E1EE06008751001E4F512D20E907E1FE06011907FD77411F07431F07415F07435F0D20CC20DE4907FCFF0301571E51260021512E52ED326
:4003C60094004004152E8060752E0A120D14EF5401F51C650E6007851C0ED20E8011120D50EF5410F51C65096005851C09D20E120D50EF5480F51C650A6005851C0AD20EFB
:40040600120D50EF5420F51C650B6008851C0B301002D20E120D50EF5440F51C650C6008851C0C301102D20E30152A907FD2E020E123907B40E06009E0F530907B42E0F572
:4004460031907B41E06009907FD77417F07437F0E4907FD3F0907FC2E030E10302051FE5257040300E39E5127035C20EF51B7E007B007408251BF9EE3400FA1209C7FF7447
:4004860080251BF582E4347BF583EFF0051BE51BB409DB907FC37409F0751210E4F51075250222E5256402703630052FC205F51B7E007B007429251BF9EE3400FA1209C7C2
:4004C600FF7480251BF582E4347BF583EFF0051BE51BB405DB907FC37405F075250322E5306033752F031530E4F51B7E007B00742F251BF9EE3400FA1209C7FF7480251B26
:40050600F582E4347BF583EFF0051BE51BB403DB907FC37403F0E4F52522907FE9E0120A1F05F600066A0106D70305430605E90805E30905CB0A05DA0B00000727907FEBC9
:40054600E024FE60161460502402706F7419907FD4F07400907FD5F002072E907FEAE070047F0280027F03758282758319EFF0758274758319F0758258758319F0907FEA65
:40058600E004758217758319F07419907FD4F07412907FD5F002072E907FEAE0FF120A45EA49600DEA907FD4F0E9907FD5F002072E907FB4E04401F002072E907FB4E044D1
:4005C60001F002072E907F00E524F0907FB57401F002072E907FEAE0F52402072E12073602072E907F007401F0907FB5F002072E907FE8E0247F60241460312402705BA221
:4006060001E433FF25E0FFA207E4334F907F00F0E4A3F0907FB57402F002072EE4907F00F0A3F0907FB57402F002072E907FECE0F45480FFC4540FFFE054072F25E024B4CD
:40064600F582E4347FF583E054FD907F00F0E4A3F0907FB57402F002072E907FB4E04401F002072E907FE8E024FE601E2402600302072E907FEAE0B40106120D6302072E53
:40068600907FB4E04401F002072E907FEAE07038907FECE0F45480FFC4540FFFE054072F25E024B4F582E4347FF583E4F0907FECE05480FF131313541FFFE054072F907F69
:4006C600D7F0E04420F08060907FB4E04401F08057907FE8E024FE60192402704B907FEAE0B40105120D60803F907FB4E04401F08036907FEAE07020907FECE0F45480FFAD
:40070600C4540FFFE054072F25E024B4F582E4347FF5837401F08010907FB4E04401F08007907FB4E04401F0907FB4E04402F022E4907F93F0907F9C7430F0E4907F96F06B
:40074600907F9574C0F0907F9E743FF0907F987418F0E4F58E907FDF74FFF0907FDEF0E4F5087F017B0074082FF9E43400FAE4120A0D0FBF09EE751301E4F512F52EF511A2
:40078600C20EC212C20DC20AC20FC204907F987413F075180390C0007403F07F0CE4FD120C1C7F108F17120BAA907F987412F07F018F16EF440690C000F00FE4FD120C1C71
:4007C600E4FF7EA3AD068D15120C1C907F987411F090C000E4F07F057D7F120C1C7F01120CAC7F037D07120C1C907F987414F075198090C0007480F0D20322907F98741059
:40080600F0AF23E528F582E527F583C2AF058690C0000586E0A30586F00586DFF7D2AF22907F987410F0AF23E528F582E527F583C2AF058690C000E00586F0A30586DFF76F
:400846000586D2AF22907F987408F0AF23E528F582E527F583C2AF058690C0000586E0A30586F00586DFF7D2AF22907F987408F0AF23E528F582E527F583C2AF058690C045
:4008860000E00586F0A30586DFF70586D2AF227400F58690FDA57C05A3E582458370F922907FD6E04480F0438701000000000022787FE4F6D8FD7581310208FD020942E43B
:4008C60093A3F8E493A34003F68001F208DFF48029E493A3F85407240CC8C333C4540F4420C8834004F456800146F6DFE4800B0102040810204080900CCDE47E019360BC36
:40090600A3FF543F30E509541FFEE493A360010ECF54C025E060A840B8E493A3FAE493A3F8E493A3C8C582C8CAC583CAF0A3C8C582C8CAC583CADFE9DEE780BED214907F83
:4009460092E04402F0120D63D2E843D820907FDE7401F0907FDFF0907FAB74FFF0907FA9F0907FAAF05391EF907FAFE04401F0907FAE740DF0D2AFD215120C66C202E4F557
:4009860026F52EC208C203907FA104F0907FD8E0651A6010300305D215120046907FD8E0F51A8008300305C215120046300207C20212052080D63009D3C209120ABA80CC40
:4009C60022BB010689828A83E0225002E722BBFE02E32289828A83E49322BB010CE58229F582E5833AF583E0225006E92582F8E622BBFE06E92582F8E222E58229F582E51F
:400A0600833AF583E49322BB010689828A83F0225002F722BBFE01F322D083D082F8E4937012740193700DA3A393F8740193F5828883E4737402936860EFA3A3A380DF8F58
:400A46001BE4F51C751DFF751E19751F86AB1DAA1EA91F9000011209E0B4031DAF1C051CEFB51B01221209C77E0029FFEE3AA907751DFFF51E891F80D47B007A00790022F3
:400A86000528E528AE277002052714F5828E83E511F01200360528E528AC277002052714F5828C83EFF01523E5236007120D448F1180CD22907FD8E0F51B120003907FD6AB
:400AC600E04480F01208A6907FD6E030E70E300105120CFE8006120C8BEF60E112073622C0E0C083C082C085C084C086758600907FC4E4F05391EF907FAB7404F0D086D0DF
:400B060084D085D082D083D0E032C0E0C083C082C085C084C086758600D2025391EF907FAB7401F0D086D084D085D082D083D0E032C0E0C083C082C085C084C08675860025
:400B4600D2095391EF907FAB7408F0D086D084D085D082D083D0E032907F987413F090C00074BFF0907F987410F090C000EFF0907F987413F0E518547F90C000F022907FDB
:400B8600987413F090C00074BFF0907F987411F090C000EFF0907F987413F0E518547F90C000F022907F987413F090C00074BFF0907F987412F090C000EFF0907F98741307
:400BC600F0E518547F90C000F022907F987413F090C00074BFF0907F987414F090C000EFF0907F987413F0E518547F90C000F022907F987413F090C00074BFF0907F9874F2
:400C060016F090C000EFF0907F987413F0E518547F90C000F022907F987413F0E518547F90C000F0907F987417F090C000EFF0907F987415F090C000EDF022120D2C8F1D44
:400C4600120D2C8F1EE51D651E6012120D2C8F1DE51D651E6007120D2C8F1E80E8AF1D22907FD6E054FBF0E04408F0301504E04402F07FF47E01120CE7907FD6E054F7F0D8
:400C8600E04404F022907FD8E0F51C120736120D50EF30E60B907FD8E0651C60F17F01221200037F0022AE07E4FFE515547FFD120C1C907F987411F090C000EEF0E4E51599
:400CC6004480FD120C1C2205290200000000032F030000C186C102C109C101C107012500008E1C8F1DE51D151DAE1C7002151C4E600512089580EE22907FD6E04401F07F86
:400D06000D7E00120CE7907FD6E054FEF022907F987411F090C000E0FF22907F987412F090C000E0FF22907F987413F090C000E0FF22907F987414F090C000E0FF22907F2B
:400D4600987415F090C000E0FF22907F987416F090C000E0FF2253D8EF32D20122C20122000000000000000000000000000000000000000000000000000000000000000073
:400D8600000000000000000000000000000000000000000000000000000000000000000000000000000000000000000000000000000000000000000000000000000000002D
:400DC60000000000000000000000000000000000000000000000000000000000000000000000000000000000000000000000000000000000000000000000020B1000020EC0
:400E06000400020AE600020B370000000000000000000000000000000000000000000000000000000000000000000000000000000000000000000000000000000000000072
:400E4600000000000000000000000000000000000000000000000000000000000000000000000000000000000000000000000000000000000000000000000000000000006C
:400E8600000000000000000000000000000000000000000000000000000000000000000000000000000000000000000000000000000000000000000000000000000000002C
:400EC60000000000000000000000000000000000000000000000000000000000000000000000000000000000000000000000000000000000000000000000000000000000EC
:400F060000000000000000000000000000000000000000000000000000000000000000000000000000000000000000000000000000000000000000000000000000000000AB
:4018C6000000000000000000000000000000000000000000000000000000000000000000000000000000000000000000000000000000000000000000000012011001FF00BF
:401906000040CD06080100000102000209027400010100A032090400000EFF000000070501024000000705020240000007050302400000070504024000000705050240007E
:4019460000070506024000000705070240000007058102400001070582024000010705830240000107058402400001070585024000010705860240000107058702400001F3
:401986000403090448034B00650079007300700061006E002C002000610020006400690076006900730069006F006E0020006F006600200049006E006E006F005300790040
:4019C6007300200049006E0063002E0036034B00650079007300700061006E0020005500530042002000530065007200690061006C002000410064006100700074006500F9
:041A0600720000006A
:00000001FF
