:0300330002002D9B
:04002D0053D8EF3283
:10004600301019120E0FEFC3951440030200DF9013
:100056007FBF7401F0C210C20B0200DF300D3E906C
:100066007FC6E020E173120E0FEFC39440506A90F2
:100076007E40E0139210907FC7E014F536200B11F6
:10008600600FF5247E7E7F4175297E752A4112090F
:1000960010C20DE4907FC7F07526FF803C907FC8A4
:1000A600E020E135120E0FEFC39440502C907DC036
:1000B600E0139210907FC9E014F536200B11600F03
:1000C600F5247E7D7FC175297D752AC1120910D25E
:1000D6000DE4907FC9F07526FF907FB6E030E1030E
:1000E600020168120CFF8F36120E1B8F11E536C304
:1000F6009513500F120DDEEF30E008E51120E703EF
:0C003600907F987410F090C000E0FF2252
:03004300020E00AA
:10000300C0E0C083C082C085C084C086758600906E
:100013007FC4E4F05391EF907FAB7404F0D086D0AB
:0A00230084D085D082D083D0E03273
:030000000209C52D
:4001060030135FC213E5366059B48003431102E51130E724E536D3942040037536208536247E7E7F8075297E752A80120B9AE53625E0907FB7F0802AE536D3943F4003753B
:40014600363F853624907E80E511F07E7E7F8175297E752A81120935E53604907FB7F07526FF907FCEE030E106200E030203C4E4F53574402535F582E4347CF583E0FFE589
:40018600357C007B017A7E79002400F9EC347EFAEF120A970535E535B420D7907E00E0606E7F01907E11E0FD120CDA907E01E0FF120C1C907E02E0FF120C42D211D2127562
:4001C6003604907E03E06005C2124336C0907E04E0B40107C21243360B8010907E04E06007C21143360980034336027F03AD36120CDA431A80907F987414F090C000E51A72
:40020600F0907F987412F0E517440690C000F0907E05E06012A3E0543FF519907F987413F090C000E519F0907E07E06042907E13E0600543160480035316FBE4FFAD161247
:400246000CDA907E08E06005431880800353187F5318FC907E09E06011431802A3E0FF120C8E907E0BE0FF120CB4AF18120C68907E0EE06018A3E06005431A018003531AD4
:40028600FE907F987414F090C000E51AF0907E0CE06018A3E06005431A028003531AFD907F987414F090C000E51AF0907E12E0F513A3E0139214A3E0F514A3E06005431AC3
:4002C600108003531AEF907F987414F090C000E51AF0907E16E060325319BF907F987413F0E519547F90C000F0907F987411F0120DD2EF54FE90C000F05316FDE4FFAD1621
:40030600120CDAE4F50EF50DD20F907E17E0600F431602E4FFAD16120CDA750D01D20F907E18E06010907F987412F0E517440490C000F0D20B907E19E06011431940907F0D
:40034600987413F0E519547F90C000F0907E1AE0600F5316FEE4FFAD16120CDA750F01D20F907E1BE0600F431601E4FFAD16120CDAE4F50FD20F907E1CE0600E907F9874A9
:4003860012F0E517440290C000F0907E1DE06002D213907E1EE06008751001E4F512D20F907E1FE06011907FD77411F07431F07415F07435F0D20DC20EE4907FCFF0301674
:4003C60071E51260021512E530D3940040041530806075300A120DD2EF5401F536650E600785360ED20F8011120E27EF5410F53665096005853609D20F120E27EF5480F5C1
:4004060036650A600585360AD20F120E27EF5420F536650B600885360B301102D20F120E27EF5440F536650C600885360C301202D20F30162A907FD2E020E123907B40E035
:400446006009E0F532907B42E0F533907B41E06009907FD77417F07437F0E4907FD3F0907FC2E030E103020529E5277040300F39E5127035C20FF5357E007B0074082535DB
:40048600F9EE3400FA120A51FF74802535F582E4347BF583EFF00535E535B409DB907FC37409F0751210E4F51075270222E5276402703630052FC205F5357E007B00742B96
:4004C6002535F9EE3400FA120A51FF74802535F582E4347BF583EFF00535E535B405DB907FC37405F075270322E53260337531031532E4F5357E007B0074312535F9EE34CD
:4005060000FA120A51FF74802535F582E4347BF583EFF00535E535B403DB907FC37403F0E4F52722907FE9E0120AA9060800067C0106E903054D0605F90805ED0905D50A02
:4005460005E40B00000739907FEBE024FE60161460502402706F7419907FD4F07400907FD5F0020740907FEAE070047F0280027F03758282758319EFF0758274758319F06E
:40058600758258758319F0907FEAE004758217758319F07419907FD4F07412907FD5F0020740907FEAE0FF120B1CEA49600DEA907FD4F0E9907FD5F0020740907FB4E0449B
:4005C60001F0020740907FB4E04401F0020740907F00E525F0907FB57401F0020740907FEAE0F525020740120748907FEAE0F523020740907F00E523F0907FB57401F00216
:400606000740907FE8E0247F60241460312402705BA201E433FF25E0FFA207E4334F907F00F0E4A3F0907FB57402F0020740E4907F00F0A3F0907FB57402F0020740907F2C
:40064600ECE0F45480FFC4540FFFE054072F25E024B4F582E4347FF583E054FD907F00F0E4A3F0907FB57402F0020740907FB4E04401F0020740907FE8E024FE601E240216
:400686006003020740907FEAE0B40106120DF9020740907FB4E04401F0020740907FEAE07038907FECE0F45480FFC4540FFFE054072F25E024B4F582E4347FF583E4F090F8
:4006C6007FECE05480FF131313541FFFE054072F907FD7F0E04420F08060907FB4E04401F08057907FE8E024FE60192402704B907FEAE0B40105120DF6803F907FB4E04487
:4007060001F08036907FEAE07020907FECE0F45480FFC4540FFFE054072F25E024B4F582E4347FF5837401F08010907FB4E04401F08007907FB4E04401F0907FB4E04402F9
:40074600F022E4907F93F0907F9C7430F0907F967420F0907F9574C0F0907F9E743FF0907F987410F0E4F58E907FDF74FFF0907FDEF0E4F5087F017B0074082FF9E4340023
:40078600FAE4120A970FBF09EE751301E4F512F530F511C20FC213C20EC20BC210C204907F987413F075190390C0007403F07F0CE4FD120CDA7F108F18120C68907F9874C2
:4007C60012F07F018F17EF440690C000F00FE4FD120CDAE4FF7EA3AD068D16120CDA907F987411F090C000E4F07F057D7F120CDA7F01120D6A7F037D07120CDAE4FFE5167B
:40080600547FFD120CDA120E0F8F15E4FFE5164480FD120CDAE51530E704C2088002D208907F987414F0751A8090C0007480F0D20322D215907F92E04402F0120DF9D2E87C
:4008460043D820907FDE7401F0907FDFF0907FAB74FFF0907FA9F0907FAAF05391EF907FAFE04401F0907FAE740DF0D2AFD216120D24C202E4F528F530C209F523C20390F7
:400886007FA104F0907FD8E065346048300305D216120046E50F6022E52660161526907FD8E030E6047F2080027F30907F96EFF0801A907F967430F08012907FD9E030E2F8
:4008C600047F3080027F20907F96EFF0907FD8E0F5348020300307C2161200468016E50F7012907FD9E030E2047F3080027F20907F96EFF0300207C20212052A8086300AE4
:4009060083C20A120B5D02088A22907F987410F0AF24E52AF582E529F583C2AF058690C0000586E0A30586F00586DFF7D2AF22907F987410F0AF24E52AF582E529F583C2A3
:40094600AF058690C000E00586F0A30586DFF70586D2AF22907F987408F0AF24E52AF582E529F583C2AF058690C0000586E0A30586F00586DFF7D2AF22907F987408F0AFCD
:4009860024E52AF582E529F583C2AF058690C000E00586F0A30586DFF70586D2AF227400F58690FDA57C05A3E582458370F922907FD6E04480F0438701000000000022784B
:4009C6007FE4F6D8FD758139020A0C020838E493A3F8E493A34003F68001F208DFF48029E493A3F85407240CC8C333C4540F4420C8834004F456800146F6DFE4800B010211
:400A0600040810204080900D8BE47E019360BCA3FF543F30E509541FFEE493A360010ECF54C025E060A840B8E493A3FAE493A3F8E493A3C8C582C8CAC583CAF0A3C8C582B0
:400A4600C8CAC583CADFE9DEE780BEBB010689828A83E0225002E722BBFE02E32289828A83E49322BB010CE58229F582E5833AF583E0225006E92582F8E622BBFE06E925BB
:400A860082F8E222E58229F582E5833AF583E49322BB010689828A83F0225002F722BBFE01F322D083D082F8E4937012740193700DA3A393F8740193F5828883E47374028F
:400AC600936860EFA3A3A380DFE4907F93F0907F9C7420F0300103FF80027F00907F96EFF0E4907F94F0907F9D74FFF0E4907F97F0300811907F95F0907F9E74FFF0907F05
:400B0600987420F022E4907F95F0907F9E74DFF0E4907F98F0228F35E4F5367537FF753819753986AB37AA38A939900001120A6AB4031DAF360536EFB5350122120A517E5C
:400B46000029FFEE3AA9077537FFF538893980D47B007A00790022907FD8E0F535120ACF200807907F92E054FDF0907FD6E04480F01209B5907FD6E030E70E300105120D9C
:400B8600BC8006120D49EF60E1907F92E04402F012074822052AE52AAE297002052914F5828E83E511F0120036052AE52AAC297002052914F5828C83EFF01524E5246007C7
:400BC600120E1B8F1180CD22C0E0C083C082C085C084C086758600D2025391EF907FAB7401F0D086D084D085D082D083D0E032C0E0C083C082C085C084C086758600D20A9F
:400C06005391EF907FAB7408F0D086D084D085D082D083D0E032907F987413F090C00074BFF0907F987410F090C000EFF0907F987413F0E519547F90C000F022907F9874E8
:400C460013F090C00074BFF0907F987411F090C000EFF0907F987413F0E519547F90C000F022907F987413F090C00074BFF0907F987412F090C000EFF0907F987413F0E57C
:400C860019547F90C000F022907F987413F090C00074BFF0907F987414F090C000EFF0907F987413F0E519547F90C000F022907F987413F090C00074BFF0907F987416F0FE
:400CC60090C000EFF0907F987413F0E519547F90C000F022907F987413F0E519547F90C000F0907F987417F090C000EFF0907F987415F090C000EDF022120DEA8F37120D91
:400D0600EA8F38E53765386012120DEA8F37E53765386007120DEA8F3880E8AF3722907FD6E054FBF0E04408F0301604E04402F07FF47E01120DA5907FD6E054F7F0E04448
:400D460004F022907FD8E0F536120748120E27EF30E60B907FD8E0653660F17F0122120ACF7F0022AE07E4FFE516547FFD120CDA907F987411F090C000EEF0E4E516448084
:400D8600FD120CDA22052B02000000000331030000C186C102C10AC101C107012700008E368F37E5371537AE36700215364E60051209A480EE22907FD6E04401F07F0D7E8D
:400DC60000120DA5907FD6E054FEF022907F987411F090C000E0FF22907F987412F090C000E0FF22907F987413F090C000E0FF22D20122C2012200000000020BCE00020EF1
:400E0600040002000300020BF5907F987414F090C000E0FF22907F987415F090C000E0FF22907F987416F090C000E0FF22000000000000000000000000000000000000004E
:400E4600000000000000000000000000000000000000000000000000000000000000000000000000000000000000000000000000000000000000000000000000000000006C
:400E8600000000000000000000000000000000000000000000000000000000000000000000000000000000000000000000000000000000000000000000000000000000002C
:400EC60000000000000000000000000000000000000000000000000000000000000000000000000000000000000000000000000000000000000000000000000000000000EC
:400F060000000000000000000000000000000000000000000000000000000000000000000000000000000000000000000000000000000000000000000000000000000000AB
:4018C6000000000000000000000000000000000000000000000000000000000000000000000000000000000000000000000000000000000000000000000012011001FF00BF
:401906000040CD06190100000102000209027400010100A032090400000EFF000000070501024000000705020240000007050302400000070504024000000705050240006D
:4019460000070506024000000705070240000007058102400001070582024000010705830240000107058402400001070585024000010705860240000107058702400001F3
:401986000403090448034B00650079007300700061006E002C002000610020006400690076006900730069006F006E0020006F006600200049006E006E006F005300790040
:4019C6007300200049006E0063002E0036034B00650079007300700061006E0020005500530042002000530065007200690061006C002000410064006100700074006500F9
:041A0600720000006A
:00000001FF
