:030033000212F7BF
:10000300E4907F93F0907F9C7430F0E4907F96F0BF
:10001300907F94F0907F9D74FFF0E4907F97F09031
:0F0023007F95F0907F9E7407F0E4907F98F02215
:1000460030091812131BEFC3953C40030200D890E9
:100056007FBF7401F0C209C200807730033B907FF6
:10006600C6E020E16D12131BEFC394405064907EEE
:1000760040E0139209907FC7E014F5192000116043
:100086000FF5087E7E7F41750C7E750D41120CBA08
:10009600C203E4907FC7F08039907FC8E020E13248
:1000A60012131BEFC394405029907DC0E0139209B0
:1000B600907FC9E014F519200011600FF5087E7DC8
:1000C6007FC1750C7D750DC1120CBAD203E4907F09
:1000D600C9F0907FB6E030E1030201601211D68FBD
:1000E600191213278F36E519C3953A500F1212EBE2
:1000F600EF30E008E53620E703300B5EC20BE5196A
:0C003600907F987410F090C000E0FF2252
:03004300021300A5
:03000000020E00ED
:400106006058B48003433602E53630E726E519D3942040037519208519087E7E7F80750C7E750D80AF36120F4BE51925E0907FB7F08027E519D3943F400375193F851908D4
:40014600907E80E536F07E7E7F81750C7E750D81120CDFE51904907FB7F0907FCEE030E1062005030203C1C205E4F51874402518F582E4347CF583E0FFE5187C007B017AF1
:400186007E79002400F9EC347EFAEF120ED20518E518B420D7907E00E06068907E03E060247F01E4FD1211B17F037DCD1211B1434680907F987414F090C000E546F0E490E0
:4001C6007E13F08030907E01E0FF121035907E02E0FF12105B7F01907E11E0FD1211B17F037D071211B1434680907F987414F090C000E546F0907F987412F0E5404406903E
:40020600C000F0907E03E07006907E13E07008E4907E13F07525FF907E05E06012A3E0543FF544907F987413F090C000E544F0907E07E0602BA3E0600543428080035342DA
:400246007F5342FC907E09E06011434202A3E0FF1210A7907E0BE0FF1210CDAF42121081907E03E0600853427FAF42121081907E0CE06018A3E0600543460280035346FDB4
:40028600907F987414F090C000E546F0907E0EE06018A3E0600543460180035346FE907F987414F090C000E546F0907E12E0F53AA3E013920DA3E0F53CA3E060054346108B
:4002C60080035346EF907F987414F090C000E546F0907E16E060325344BF907F987413F0E544547F90C000F0907F987411F01212DFEF54FE90C000F0533EFDE4FFAD3E120F
:4003060011B1E4F52AF529D207907E17E0600F433E02E4FFAD3E1211B1752901D207907E18E06010907F987412F0E540440490C000F0D200907E19E06011434440907F98F2
:400346007413F0E544547F90C000F0907E1AE0600F533EFEE4FFAD3E1211B1752B01D207907E1BE0600F433E01E4FFAD3E1211B1E4F52BD207907E1CE0600E907F98741284
:40038600F0E540440290C000F0907E1DE06002D20B907E1EE06008752C01E4F538D207907E1FE06011907FD77411F07431F07415F07435F0D203E4907FCFF0301A52E53892
:4003C60060021538201349E513D3940040041513803E75130A301B02D2131212DFEF5401F519652A600585192AD207121333EF5480F51965266005851926D207300D11127F
:400406001333EF5410F51965256005851925D207201B030207EC300A1812136FEFC3953D40030204AE907FC17401F0C20AC200807730043B907FCAE020E16D12136FEFC35A
:4004460094405064907D40E013920A907FCBE014F519200011600FF5087E7D7F41750C7D750D41120D04C204E4907FCBF08039907FCCE020E13212136FEFC39440502990BC
:400486007CC0E013920A907FCDE014F519200011600FF5087E7C7FC1750C7C750DC1120D04D204E4907FCDF0907FBAE030E1030205361212208F1912137B8F37E519C3952B
:4004C6003B500F121357EF30E008E53720E703300C5EC20CE5196058B48003433702E53730E726E519D3942040037519208519087E7D7F80750C7D750D80AF37120F84E503
:400506001925E0907FBBF08027E519D3943F400375193F851908907D80E537F07E7D7F81750C7D750D81120D29E51904907FBBF0907FD0E030E106200603020797C206E4F8
:40054600F51874C02518F582E4347BF583E0FFE5187C007B017A7E79202420F9EC347EFAEF120ED20518E518B420D7907E20E06068907E23E060247F01E4FD1211FB7F0329
:400586007DCD1211FB434780907F98740CF090C000E547F0E4907E33F08030907E21E0FF121119907E22E0FF12113F7F01907E31E0FD1211FB7F037D071211FB4347809048
:4005C6007F98740CF090C000E547F0907F98740AF0E541440690C000F0907E23E07006907E33E07008E4907E33F0752EFF907E25E06012A3E0543FF545907F98740BF090EB
:40060600C000E545F0907E27E0602BA3E06005434380800353437F5343FC907E29E06011434302A3E0FF121165907E2BE0FF12118BAF431210F3907E23E0600853437FAFFE
:40064600431210F3907E2CE06018A3E0600543470280035347FD907F98740CF090C000E547F0907E2EE06018A3E0600543470180035347FE907F98740CF090C000E547F0D4
:40068600907E32E0F53BA3E013920EA3E0F53DA3E0600543471080035347EF907F98740CF090C000E547F0907E36E060325345BF907F98740BF0E545547F90C000F0907F79
:4006C600987409F012134BEF54FE90C000F0533FFDE4FFAD3F1211FBE4F533F532D208907E37E0600F433F02E4FFAD3F1211FB753201D208907E38E06010907F98740AF043
:40070600E541440490C000F0D200907E39E06011434540907F98740BF0E545547F90C000F0907E3AE0600F533FFEE4FFAD3F1211FB753401D208907E3BE0600F433F01E4E9
:40074600FFAD3F1211FBE4F534D208907E3CE0600E907F98740AF0E541440290C000F0907E3DE06002D20C907E3EE06008753501E4F539D208907E3FE06011907FD7741389
:40078600F07433F07416F07436F0D204E4907FD1F0301A52E53960021539301349E513D3940040041513803E75130A301B02C21312134BEF5401F51965336005851933D279
:4007C60008121387EF5480F519652F600585192FD208300E11121387EF5410F519652E600585192ED208301A2A907FD2E020E123907B40E06009E0F515907B42E0F5169035
:400806007B41E06009907FD77417F07437F0E4907FD3F0907FC2E030E103020920E50A7040300739E5387035C207F5187E007B0074242518F9EE3400FA120E8CFF748025BD
:4008460018F582E4347BF583EFF00518E518B409DB907FC37409F0753810E4F52C750A0122E50A64017040300839E5397035C208F5187E007B00742D2518F9EE3400FA1297
:400886000E8CFF74802518F582E4347BF583EFF00518E518B409DB907FC37409F0753910E4F535750A0222E50A6402703630142FC214F5187E007B00740E2518F9EE340083
:4008C600FA120E8CFF74802518F582E4347BF583EFF00518E518B405DB907FC37405F0750A0322E51560301515E4F5187E007B0074142518F9EE3400FA120E8CFF748025F2
:4009060018F582E4347BF583EFF00518E518B403DB907FC37403F0E4F50A22907FE9E0120EE40A08000A7C010AE80309440609FB0809F50909DD0A09EC0B00000B37907F3D
:40094600EBE024FE6019146061240260030209D37419907FD4F07400907FD5F0020B3E907FEAE070047F0280027F03758282758319EFF075827B758319F0758274758319B2
:40098600F0758266758319F0758258758319F0907FEAE004758217758319F07419907FD4F07412907FD5F0020B3E907FEAE0FF120F0AEA49600DEA907FD4F0E9907FD5F085
:4009C600020B3E907FB4E04401F0020B3E907FB4E04401F0020B3E907F00E509F0907FB57401F0020B3E907FEAE0F509020B3E120B46020B3E907F007401F0907FB5F00205
:400A06000B3E907FE8E0247F60241460312402705BA210E433FF25E0FFA216E4334F907F00F0E4A3F0907FB57402F0020B3EE4907F00F0A3F0907FB57402F0020B3E907F04
:400A4600ECE0F45480FFC4540FFFE054072F25E024B4F582E4347FF583E054FD907F00F0E4A3F0907FB57402F0020B3E907FB4E04401F0020B3E907FE8E024FE601D24020F
:400A86006003020B3E907FEAE0B40105C210020B3E907FB4E04401F0020B3E907FEAE07038907FECE0F45480FFC4540FFFE054072F25E024B4F582E4347FF583E4F0907FB6
:400AC600ECE05480FF131313541FFFE054072F907FD7F0E04420F0805F907FB4E04401F08056907FE8E024FE60182402704A907FEAE0B40104D210803F907FB4E04401F049
:400B06008036907FEAE07020907FECE0F45480FFC4540FFFE054072F25E024B4F582E4347FF5837401F08010907FB4E04401F08007907FB4E04401F0907FB4E04402F022D4
:400B4600E4907F93F0907F9C7430F0E4907F96F0907F9574C0F0907F9E743FF0907F987418F0E4F58E907FDF74FFF0907FDEF0E4F5247518017B0074242518F9E43400FA8B
:400B8600E4120ED20518E518B409EA753A01E4F538F513F536C207C20BC205C200C209C213907F987413F075440390C0007403F07F0CE4FD1211B17F108F42121081907F02
:400BC600987412F07F018F40EF440690C000F0907F987414F075468090C0007480F00FE4FD1211B1E4FF7EA3AD068D3E1211B1907F987411F090C000E4F07F057D7F12118E
:400C0600B17F0112126A7F037D071211B1201B03020CB7752D017518017B00742D2518F9E43400FAE4120ED20518E518B409EA753B01E4F539F513F537C208C20CC206C2CD
:400C460000C20AC213907F98740BF075450390C0007403F07F0CE4FD1211FB7F108F431210F3907F98740AF07F018F41EF440690C000F0907F98740CF075478090C000744E
:400C860080F00FE4FD1211FBE4FF7EA3AD068D3F1211FB907F987409F090C000E4F07F057D7F1211FB7F0112128B7F037D071211FBD21222907F987410F0AF08E50DF582A5
:400CC600E50CF583C2AF058690C0000586E0A30586F00586DFF7D2AF22907F987410F0AF08E50DF582E50CF583C2AF058690C000E00586F0A30586DFF70586D2AF22907F20
:400D0600987408F0AF08E50DF582E50CF583C2AF058690C0000586E0A30586F00586DFF7D2AF22907F987408F0AF08E50DF582E50CF583C2AF058690C000E00586F0A3055C
:400D460086DFF70586D2AF227400F58690FDA57C05A3E582458370F922907FD6E04480F0438701000000000022D219907F92E04402F0907FAEE0FFD39210E433FEEF4EF089
:400D8600D2E843D820907FDE7401F0907FDFF0907FAB74FFF0907FA9F0907FAAF05391EF907FAFE04401F0907FAEE0440DF0D2AFD21A121245C211E4F50BF513C217C212D4
:400DC600907FA104F0907FD8E065176010301205D21A120046907FD8E0F5178008301205C21A120046301107C21112092180D63018D3C21812139380CC22787FE4F6D8FDC7
:400E0600758147020E47020D6FE493A3F8E493A34003F68001F208DFF48029E493A3F85407240CC8C333C4540F4420C8834004F456800146F6DFE4800B01020408102040F5
:400E4600809012ACE47E019360BCA3FF543F30E509541FFEE493A360010ECF54C025E060A840B8E493A3FAE493A3F8E493A3C8C582C8CAC583CAF0A3C8C582C8CAC583CA1E
:400E8600DFE9DEE780BEBB010689828A83E0225002E722BBFE02E32289828A83E49322BB010CE58229F582E5833AF583E0225006E92582F8E622BBFE06E92582F8E222E5B8
:400EC6008229F582E5833AF583E49322BB010689828A83F0225002F722BBFE01F322D083D082F8E4937012740193700DA3A393F8740193F5828883E4737402936860EFA3C1
:400F0600A3A380DF8F18E4F519751AFF751B19751C86AB1AAA1BA91C900001120EA5B4031DAF190519EFB5180122120E8C7E0029FFEE3AA907751AFFF51B891C80D47B00A5
:400F46007A007900228F1A050DE50DAE0C7002050C14F5828E83E51AF0120036050DE50DAC0C7002050C14F5828C83EFF01508E508600A1213278F1AEF423680CA228F1AFC
:400F8600050DE50DAE0C7002050C14F5828E83E51AF012133F050DE50DAC0C7002050C14F5828C83EFF01508E508600A12137B8F1AEF423780CA22C0E0C083C082C085C088
:400FC60084C086758600907FC4E4F05391EF907FAB7404F0D086D084D085D082D083D0E032C0E0C083C082C085C084C086758600D2115391EF907FAB7401F0D086D084D0C6
:4010060085D082D083D0E032C0E0C083C082C085C084C086758600D2185391EF907FAB7408F0D086D084D085D082D083D0E032907F987413F090C00074BFF0907F9874108A
:40104600F090C000EFF0907F987413F0E544547F90C000F022907F987413F090C00074BFF0907F987411F090C000EFF0907F987413F0E544547F90C000F022907F98741349
:40108600F090C00074BFF0907F987412F090C000EFF0907F987413F0E544547F90C000F022907F987413F090C00074BFF0907F987414F090C000EFF0907F987413F0E544D9
:4010C600547F90C000F022907F987413F090C00074BFF0907F987416F090C000EFF0907F987413F0E544547F90C000F022907F98740BF090C00074BFF0907F98740AF0902A
:40110600C000EFF0907F98740BF0E545547F90C000F022907F98740BF090C00074BFF0907F987408F090C000EFF0907F98740BF0E545547F90C000F022907F98740BF090AF
:40114600C00074BFF0907F987409F090C000EFF0907F98740BF0E545547F90C000F022907F98740BF090C00074BFF0907F98740CF090C000EFF0907F98740BF0E545547FEC
:4011860090C000F022907F98740BF090C00074BFF0907F98740EF090C000EFF0907F98740BF0E545547F90C000F022907F987413F0E544547F90C000F0907F987417F09075
:4011C600C000EFF0907F987415F090C000EDF02212130F8F1A12130F8F1BE51A651B601212130F8F1AE51A651B600712130F8F1B80E8AF1A22907F98740BF0E545547F9098
:40120600C000F0907F98740FF090C000EFF0907F98740DF090C000EDF0221213638F1A1213638F1BE51A651B60121213638F1AE51A651B60071213638F1B80E8AF1A2290C8
:401246007FD6E054FBF0E04408F0301A04E04402F07FF47E011212C8907FD6E054F7F0E04404F022AE07E4FFE53E547FFD1211B1907F987411F090C000EEF0E4E53E4480E8
:40128600FD1211B122AE07E4FFE53F547FFD1211FB907F987409F090C000EEF0E4E53F4480FD1211FB22050E02000000000314030000C111C118C195C110C116010A00C19C
:4012C6009B008E188F19E5191519AE18700215184E6005120D4E80EE22907F987411F090C000E0FF22907F987412F090C000E0FF2253D8EF320000000000020FE70002138A
:401306000400020FBD0002100E907F987413F090C000E0FF22907F987414F090C000E0FF22907F987415F090C000E0FF22907F987416F090C000E0FF22907F987408F09050
:40134600C000E0FF22907F987409F090C000E0FF22907F98740AF090C000E0FF22907F98740BF090C000E0FF22907F98740CF090C000E0FF22907F98740DF090C000E0FFC5
:4013860022907F98740EF090C000E0FF22120003120D5F120B4622000000000000000000000000000000000000000000000000000000000000000000000000000000000083
:4013C60000000000000000000000000000000000000000000000000000000000000000000000000000000000000000000000000000000000000000000000000000000000E7
:4014060000000000000000000000000000000000000000000000000000000000000000000000000000000000000000000000000000000000000000000000000000000000A6
:401446000000000000000000000000000000000000000000000000000000000000000000000000000000000000000000000000000000000000000000000000000000000066
:401486000000000000000000000000000000000000000000000000000000000000000000000000000000000000000000000000000000000000000000000000000000000026
:4014C60000000000000000000000000000000000000000000000000000000000000000000000000000000000000000000000000000000000000000000000000000000000E6
:4015060000000000000000000000000000000000000000000000000000000000000000000000000000000000000000000000000000000000000000000000000000000000A5
:401546000000000000000000000000000000000000000000000000000000000000000000000000000000000000000000000000000000000000000000000000000000000065
:401586000000000000000000000000000000000000000000000000000000000000000000000000000000000000000000000000000000000000000000000000000000000025
:4015C60000000000000000000000000000000000000000000000000000000000000000000000000000000000000000000000000000000000000000000000000000000000E5
:4016060000000000000000000000000000000000000000000000000000000000000000000000000000000000000000000000000000000000000000000000000000000000A4
:401646000000000000000000000000000000000000000000000000000000000000000000000000000000000000000000000000000000000000000000000000000000000064
:401686000000000000000000000000000000000000000000000000000000000000000000000000000000000000000000000000000000000000000000000000000000000024
:4016C60000000000000000000000000000000000000000000000000000000000000000000000000000000000000000000000000000000000000000000000000000000000E4
:4017060000000000000000000000000000000000000000000000000000000000000000000000000000000000000000000000000000000000000000000000000000000000A3
:401746000000000000000000000000000000000000000000000000000000000000000000000000000000000000000000000000000000000000000000000000000000000063
:401786000000000000000000000000000000000000000000000000000000000000000000000000000000000000000000000000000000000000000000000000000000000023
:4017C60000000000000000000000000000000000000000000000000000000000000000000000000000000000000000000000000000000000000000000000000000000000E3
:4018060000000000000000000000000000000000000000000000000000000000000000000000000000000000000000000000000000000000000000000000000000000000A2
:401846000000000000000000000000000000000000000000000000000000000000000000000000000000000000000000000000000000000000000000000000000000000062
:401886000000000000000000000000000000000000000000000000000000000000000000000000000000000000000000000000000000000000000000000000000000000022
:4018C6000000000000000000000000000000000000000000000000000000000000000000000000000000000000000000000000000000000000000000000012011001FF00BF
:401906000040CD06100100000102000209027400010100A032090400000EFF0000000705010240000007050202400000070503024000000705040240000007050502400076
:4019460000070506024000000705070240000007058102400001070582024000000705830240000107058402400001070585024000010705860240000107058702400001F4
:401986000403090448034B00650079007300700061006E002C002000610020006400690076006900730069006F006E0020006F006600200049006E006E006F005300790040
:4019C6007300200049006E0063002E0036034B00650079007300700061006E0020005500530042002000530065007200690061006C002000410064006100700074006500F9
:041A0600720000006A
:00000001FF

	The firmware contained herein is

		Copyright (C) 1999-2001
		Keyspan, A division of InnoSys Incorporated ("Keyspan")

	as an unpublished work. This notice does not imply unrestricted or
	public access to the source code from which this firmware image is
	derived.  Except as noted below this firmware image may not be
	reproduced, used, sold or transferred to any third party without
	Keyspan's prior written consent.  All Rights Reserved.

	Permission is hereby granted for the distribution of this firmware
	image as part of a Linux or other Open Source operating system kernel
	in text or binary form as required.

	This firmware may not be modified and may only be used with
	Keyspan hardware.  Distribution and/or Modification of the
	keyspan.c driver which includes this firmware, in whole or in
	part, requires the inclusion of this statement."
