:030000000246B9FC
:03000300020FFDEC
:03000B00024E0F93
:030013000217FDD4
:03001B00024E1280
:03002300024DEF9C
:03002B0002480088
:03003300024DE695
:03003B00024DF67D
:030043000249006F
:03004B00024E035F
:030053000248FA66
:03005B00024DFD56
:03006300024E0743
:1005000012011001000000406A08110100010102FF
:100510000001090208020501008032090400000000
:10052000010100000A2401000156000201020C240E
:10053000020101010002000000000D240605010275
:10054000030000000000000924030204030005006A
:100550000C24020305020006000000001524060614
:100560000302000003000300030003000300030074
:100570000009240304010100060009040100000130
:100580000200000904010102010200000724010128
:10059000000100112402010202100344AC0080BBE0
:1005A0000000770109050A05840101008F07250174
:1005B0000100000009058F01030001050009040185
:1005C00002020102000007240101000100112402BF
:1005D000010203180344AC0080BB00007701090549
:1005E0000A05460201008F072501010000000905E8
:1005F0008F01030001050009040200000102000050
:1006000009040201010102000007240104000100A5
:100610000E2402010602100244AC0080BB00090552
:100620008C054C02010000072501000200000904AE
:1006300002020101020000072401040001000E244F
:1006400002010603180244AC0080BB0009058C05BA
:1006500072030100000725010002000009040203E3
:10066000010102000007240104000100112402011D
:100670000202100344AC0080BB0000770109058C26
:1006800005840101000007250100020000090402A1
:1006900004010102000007240104000100112402EA
:1006A000010203180344AC0080BB00007701090578
:1006B0008C05460201000007250100020000090424
:1006C00003000001010000092401000109000104E8
:1006D00009040400020103000007240100012400B2
:1006E000062402010700092403020801070100068D
:1006F0002402020900092403010A01090100090575
:10070000010204000000000525010107090581021E
:100710000400000000052501010A04030904180370
:1007200045006D006100670069006300200047001C
:100730006D0062004800220345006D006100670003
:1007400069006300200045004D004900200036008C
:100750007C00320020006D002A0343006F006E0011
:10076000660069006700750072006100740069002E
:100770006F006E00200053007400720069006E006C
:100780006700220349006E00740065007200660075
:10079000610063006500200053007400720069006E
:0607A0006E00670000007E
:1007A600E4907666F01244AD202613907666E0C398
:1007B6009402500AE004F0D242124B7F80EA3026BF
:1007C60005122801C22630252B907696E054FCF0BF
:1007D600908003F0121496907696E04403F0908091
:1007E60003F0E4907667F0907667E004F0E0B44BAF
:0A07F600F61247FA12411B80C522DB
:10080000E4907631F0907631E0FF75F003A4240F88
:10081000F582E43475F583E0FE907FEDE0FDEE6D4A
:10082000600EEFC3940B5008907631E004F080D551
:10083000EFB40B08907FB4E04401F022EF75F003B1
:10084000A4240EF582E43475F583E0907633F02429
:10085000F0600A240E60028187124BC722907FED60
:10086000E0640570519076187405F0907637740145
:10087000F09076397403F0907621F0E4907620F0D1
:10088000907FEAE0F4602F907620E0FF75F00AA4F4
:1008900024AAF582E43475F583E0FE907FEAE0FD5A
:1008A000EE6D6012907621E0FEEFC39E50089076C8
:1008B00020E004F080D1907FEDE0640670529076E5
:1008C000187406F09076377404F0907639740AF054
:1008D000907621F09076207403F0907FEAE0F46047
:1008E0002F907620E0FF75F00AA424AAF582E43464
:1008F00075F583E0FE907FEAE0FDEE6D6012907684
:1009000021E0FEEFC39E5008907620E004F080D1F5
:10091000907620E0FF75F00AA424AAF582E43475ED
:10092000F583E0907229F0E490763BF0907621E038
:10093000FEEF6E7008907FB4E04401F022907FEBF0
:10094000E014601314700221E224026002817F909F
:100950007FB4E04401F022907FE9E014707C907F46
:10096000EAE0F47048907637E0907620F09076399F
:10097000E0FE907620E0FDC39E502B90763BE0FE9B
:1009800004F074C02EF582E4347EF583E0FEED754C
:10099000F00AA424ABF582E43475F583EEF090768A
:1009A00020E004F080C790763F7401F022907EC072
:1009B000E0FEEF75F00AA424ABF582E43475F5830C
:1009C000EEF0E0B4010890763E7401F08005E4900A
:1009D000763EF090763F7401F022907FB4E04401BF
:1009E000F022907FE9E024FE700241A314700261BE
:1009F0003F14700261DB240360028177907FEAE09C
:100A0000F4706B907637E0907620F0907639E0FFC6
:100A1000907620E0FEC39F504E90763BE0FF04F0BE
:100A200074C02FF582E4347EF583E0FFEE75F00AA2
:100A3000A424ACF582E43475F583EFF090763BE0C6
:100A4000FF04F074C02FF582E4347EF583E0FFEEFE
:100A500075F00AA424ADF582E43475F583EFF090C7
:100A60007620E004F080A49076407401F022907E1D
:100A7000C0E0FF907620E0FE75F00AA424ACF58279
:100A8000E43475F583EFF0907EC1E0FFEE75F00A77
:100A9000A424ADF582E43475F583EFF090764174CB
:100AA00001F022907FEAE0F47066907637E090766D
:100AB00020F0907639E0FF907620E0FEC39F400260
:100AC000818E90763BE0FF04F074C02FF582E43411
:100AD0007EF583E0FFEE75F00AA424AEF582E434DF
:100AE00075F583EFF090763BE0FF04F074C02FF5CE
:100AF00082E4347EF583E0FFEE75F00AA424AFF5BE
:100B000082E43475F583EFF0907620E004F080A263
:100B1000907EC0E0FF907620E0FE75F00AA424AE3F
:100B2000F582E43475F583EFF0907EC1E0FFEE7559
:100B3000F00AA424AFF582E43475F583EFF0229037
:100B40007FEAE0F47066907637E0907620F0907659
:100B500039E0FF907620E0FEC39F4002818E9076C0
:100B60003BE0FF04F074C02FF582E4347EF583E0AF
:100B7000FFEE75F00AA424B0F582E43475F583EF36
:100B8000F090763BE0FF04F074C02FF582E4347EF1
:100B9000F583E0FFEE75F00AA424B1F582E4347524
:100BA000F583EFF0907620E004F080A2907EC0E024
:100BB000FF907620E0FE75F00AA424B0F582E434BC
:100BC00075F583EFF0907EC1E0FFEE75F00AA42486
:100BD000B1F582E43475F583EFF022907FEAE0F41A
:100BE0007066907637E0907620F0907639E0FF904E
:100BF0007620E0FEC39F4002818E90763BE0FF04AA
:100C0000F074C02FF582E4347EF583E0FFEE75F0DA
:100C10000AA424B2F582E43475F583EFF090763BB4
:100C2000E0FF04F074C02FF582E4347EF583E0FF2A
:100C3000EE75F00AA424B3F582E43475F583EFF081
:100C4000907620E004F080A2907EC0E0FF907620B5
:100C5000E0FE75F00AA424B2F582E43475F583EF62
:100C6000F0907EC1E0FFEE75F00AA424B3F582E4B3
:100C70003475F583EFF022907FB4E04401F02290C8
:0F0C80007FB4E04401F022907FB4E04401F02201
:100C8F004176680141766A0241766B0AC120C12123
:020C9F00C12F63
:040CA1004176230075
:100CA500417201014572050002C9000045720A0042
:100CB500010203044D720FD100D1000000000000B5
:100CC500282809004D721C010001020304050607CE
:100CD50008090A0B41722E2241722F2341723020DE
:100CE5004172312162D2723A00000000000000001A
:100CF50000000000000000000000000000000000EF
:100D050000000000000000000000000000000000DE
:100D150000000000000000000000000000000000CE
:100D250000000000000000000000000000000000BE
:100D350000000000000000000000000000000000AE
:100D4500000000000000000000000000000000009E
:100D5500000000000000000000000000000000008E
:100D6500000000000000000000000000000000007E
:100D75000000000000000000000001010101010168
:100D8500010101010101010101010101010101014E
:100D9500010101010101010101010101010101013E
:100DA500010101010101010101010101010101012E
:100DB5000101010101010101020202020202020216
:100DC50002020202020202020202020202020202FE
:100DD50002020202020202020202020202020202EE
:100DE50002020202020202020202020202020202DE
:100DF50002020202020303030303030303030303C3
:100E050003030303030303030303030303030303AD
:100E1500030303030303030303030303030303039D
:100E2500030303030303030303030303030303038D
:100E3500030304040404040404040404040404046F
:100E4500040404040404040404040404040404045D
:100E5500040404040404040404040404040404044D
:100E6500040404040404040404040404040404043D
:100E7500050505050505050505050505050505051D
:100E8500050505050505050505050505050505050D
:100E950005050505050505050505050505050505FD
:100EA50005050505050505050505050505050606EB
:100EB50006060606060606060606060606060606CD
:100EC50006060606060606060606060606060606BD
:100ED50006060606060606060606060606060606AD
:100EE5000606060606060606060606070707080896
:100EF500080909090A0A0A0B0B0B0C0C0C0D0D0D40
:100F05000E0E0E0F0F0F10101011111112121213D9
:100F15001313141414151515161616171717181874
:100F250018191919191A1A1A1A1B1B1B1B1C1C1C18
:100F35001C1D1D1D1D1E1E1E1E1F1F1F1F202020C8
:100F45002121212222222323242425252626272761
:100F5500282829292A2A2B2B2C2C2D2D2E2E2F2FD4
:100F65003030313132323333343435353636373744
:100F7500383839393A3A3B3C3D3E3F40414243449B
:100F85004546474849494A4B4B4C4D4E4F505152A7
:100F95005354555556565757585A5B5D5E5F6162B7
:100FA500636465666768696A6B6C6D6F717273748B
:100FB50075767778797A7B7C7E80013701013800F8
:010FC500002B
:100FC600E4FF74462FF582E43476F583E0FE742060
:100FD6002FF582E43480F583EEF0744E2FF582E42B
:100FE6003476F583E0FE74302FF582E43480F583A1
:060FF600EEF00FBF08CC75
:010FFC0022D2
:030FFD00C2893274
:10100000E490762CF090762CE0FF75F003A4240F8A
:10101000F582E43475F583E0FE907FEDE0FDEE6D42
:10102000600EEFC3940B500890762CE004F080D54E
:10103000EFB40B08907FB4E04401F022EF75F003A9
:10104000A4240EF582E43475F583E090762EF02426
:10105000F0600A240F6002817D124BA422907FED84
:10106000E0640570519076187405F090763874013C
:10107000F090763A7403F090761CF0E490761BF0D2
:10108000907FEAE0F4602F90761BE0FF75F00AA4F1
:1010900024AAF582E43475F583E0FE907FEAE0FD52
:1010A000EE6D601290761CE0FEEFC39E50089076C5
:1010B0001BE004F080D1907FEDE0640670529076E2
:1010C000187406F09076387404F090763A740AF04A
:1010D00090761CF090761B7403F0907FEAE0F46049
:1010E0002F90761BE0FF75F00AA424AAF582E43461
:1010F00075F583E0FE907FEAE0FDEE6D601290767C
:101100001CE0FEEFC39E500890761BE004F080D1F7
:10111000E490761EF090761CE0FF90761BE0FE6F68
:101120007008907FB4E04401F022907FEBE01460FF
:101130001314700221BF240260028175907FB4E015
:101140004401F022907FE9E0247F706B907FEAE019
:10115000F4704A907638E090761BF090763AE0FF93
:1011600090761BE0FDC39F502BED75F00AA424ABD5
:10117000F582E43475F583E0FF90761EE0FD04F01F
:1011800074002DF582E4347FF583EFF090761BE058
:1011900004F080C790761EE0907FB5F022EE75F0E7
:1011A0000AA424ABF582E43475F583E0907F00F067
:1011B000907FB57401F022907FB4E04401F022905A
:1011C0007FE9E0247E7002417E1470026123147076
:1011D0000261C824036002816D907FEAE0F4706DC3
:1011E000907638E090761BF090763AE0FF90761B90
:1011F000E0C39F504FE0FF75F00AA424ACF582E4F1
:101200003475F583E0FE90761EE0FD04F074002D49
:10121000F582E4347FF583EEF0EF75F00AA424AD97
:10122000F582E43475F583E0FF90761EE0FE04F06D
:1012300074002EF582E4347FF583EFF090761BE0A6
:1012400004F080A490761EE0907FB5F02290761B8B
:10125000E0FF75F00AA424ACF582E43475F583E070
:10126000907F00F0EF75F00AA424ADF582E43475A8
:10127000F583E0907F01F0907FB57402F022907FBB
:10128000EAE0F4706D907638E090761BF090763A54
:10129000E0FF90761BE0C39F504FE0FF75F00AA47B
:1012A00024AEF582E43475F583E0FE90761EE0FD11
:1012B00004F074002DF582E4347FF583EEF0EF75D1
:1012C000F00AA424AFF582E43475F583E0FF90764C
:1012D0001EE0FE04F074002EF582E4347FF583EF07
:1012E000F090761BE004F080A490761EE0907FB52D
:1012F000F02290761BE0FF75F00AA424AEF582E49C
:101300003475F583E0907F00F0EF75F00AA424AF08
:10131000F582E43475F583E0907F01F0907FB57439
:1013200002F022907FEAE0F4706D907638E09076DB
:101330001BF090763AE0FF90761BE0C39F504FE0A1
:10134000FF75F00AA424B0F582E43475F583E0FE5D
:1013500090761EE0FD04F074002DF582E4347FF5F4
:1013600083EEF0EF75F00AA424B1F582E43475F54C
:1013700083E0FF90761EE0FE04F074002EF582E418
:10138000347FF583EFF090761BE004F080A4907634
:101390001EE0907FB5F02290761BE0FF75F00AA466
:1013A00024B0F582E43475F583E0907F00F0EF75AA
:1013B000F00AA424B1F582E43475F583E0907F014E
:1013C000F0907FB57402F022907FEAE0F4706D90A7
:1013D0007638E090761BF090763AE0FF90761BE04E
:1013E000C39F504FE0FF75F00AA424B2F582E434A5
:1013F00075F583E0FE90761EE0FD04F074002DF597
:1014000082E4347FF583EEF0EF75F00AA424B3F59F
:1014100082E43475F583E0FF90761EE0FE04F074FC
:10142000002EF582E4347FF583EFF090761BE00424
:10143000F080A490761EE0907FB5F02290761BE0BD
:10144000FF75F00AA424B2F582E43475F583E090C8
:101450007F00F0EF75F00AA424B3F582E43475F54B
:1014600083E0907F01F0907FB57402F022907FB40A
:10147000E04401F022907FB4E04401F022907FB478
:05148000E04401F02230
:101485007400F58690FDA57C05A3E582458370F97A
:011495002234
:10149600907FD6E04480F0438701000000000022E0
:1014A600C0D0C0E08FE0C0E08EE0C0E08DE0C0E0DC
:1014B6008CE0C0E0C082C0830586C084C0857D0004
:1014C600907FE3747BF0A37480F07C11907F99E0A9
:1014D6005440DC030214F3B40013907FE27440F02E
:1014E600907FE5F0907FE27400F00214D29076903F
:1014F600E0B4011290768FE02DFD907FE27480F0CB
:10150600907F6C021557B4021290768FE02DFD90F5
:101516007FE27480F0907F6C021596B40312907689
:101526008FE02DFD907FE27480F0907F6C0215E1D4
:10153600B4041290768FE02DFD907FE27480F090D7
:101546007F6C021610907FE27480F0907F6C02161A
:1015560040F0F0F0F0F0F0F0F0F0F0F0F0DDF27DB9
:10156600020586907FE27400F0907F9BE05404B4FD
:1015760000050586021640907FE27480F00586F02D
:10158600F0F0F0F0F0F0F0F0F0F0F0DDD4021640FC
:10159600F0F0F0F0F0F0F0F0F0F0F0F0F0F0F0F045
:1015A600F0F0DDEC7D020586907FE27400F0907F1E
:1015B6009BE05404B400050586021640907FE27451
:1015C60080F00586F0F0F0F0F0F0F0F0F0F0F0F0DA
:0615D600F0F0F0F0F0F06F
:1015DC00DDCE021640F0F0F0F0DDFA7D02058690CB
:1015EC007FE27400F0907F9BE05404B40005058604
:1015FC00021640907FE27480F00586F0F0F0F0DD8A
:10160C00DC021640F0F0F0F0F0F0DDF87D0205861B
:10161C00907FE27400F0907F9BE05404B4000505C9
:10162C0086021640907FE27480F00586F0F0F0F0B0
:10163C00F0F0DDDA907FE27400F0D085D08405867E
:10164C00D083D082D0E0FCD0E0FDD0E0FED0E0FF33
:05165C00D0E0D0D02217
:10166100C0D0C0E0C082C08390767CE0907F6FF0F4
:1016710090767DE0907F6FF090767EE0907F6FF0C6
:09168100D083D082D0E0D0D02249
:10168A00C0D0C0E08FE0C0E08EE0C0E0C082C0837E
:10169A000586C084C085907687E0FFBF00030217E5
:1016AA0001907F96E04480F0907FE27480F0907F12
:1016BA0062E00586907FE27400F0907F96E0547FA6
:1016CA00F0907FE27480F090768EE0B40105058692
:1016DA000216F6B4020505860216EB05860216FB0B
:1016EA00E0E0E0E0E0E0DFF80216FBE0E0E0E0DF67
:1016FA00FA907FE27400F0D085D0840586D083D03A
:0C170A0082D0E0FED0E0FFD0E0D0D02282
:10171600C082C083C0E0E8C0E078D1E814F870FB6E
:0A172600D0E0F8D0E0D083D082229A
:10173000C082C083C0E0E8C0E07878E814F870FBAD
:0A174000D0E0F8D0E0D083D0822280
:07174A00907FC57402F0223C
:10175100907EC0E0907645F0907EC1E0907644F0B6
:10176100907EC2E0907643F0B40003021778907641
:10177100197403F002178E907644E0B4BB09907699
:10178100197402F002178E9076197401F090764266
:03179100E4F0225F
:041794008D298B2AE6
:10179800124A55EA4960571236927E0029FFEE3AFE
:1017A800C9EFC9752BFFF52C892DAB2BAA2CA92DB8
:1017B8009000011236ABFF64046005EF6405702EDB
:1017C800EFB404159000021236AB6529700B900037
:1017D800031236AB652A7001221236927E0029FF69
:1017E800EE3AC9EFC9752BFFF52C892D80BC7B001B
:0417F8007A007900FA
:0117FC0022CA
:0317FD00C28B326A
:10180000907690E014603714700201D814700221B1
:1018100072147002413B240460026103907FFC74E7
:10182000CCF0907FFF74FCF0907695E04401F0548A
:1018300005F0908001F0E490761AF0C22E229076A6
:1018400095E04401F04402F0303E06E04404F080AC
:1018500007907695E054FBF090761AE0B40108907A
:101860007695E0908001F0907619E0FFB401229027
:101870007FFC7474F0907FFF74FCF090768F742B73
:10188000F0907697E054FDF0E4907681F0907680C9
:10189000F0EFB40222907FFC7468F0907FFF74FC3C
:1018A000F090768F742FF0907697E04402F0E490F9
:1018B0007681F0907680F0303F09907697E054FE84
:1018C000F08007907697E04401F0907697E054FB23
:1018D000F0908002F0D22E22907695E054FEF044F3
:1018E00002F0303E06E04404F08007907695E05424
:1018F000FBF090761AE0B40108907695E0908001B4
:10190000F0907619E0FFB40122907FFC7430F090E3
:101910007FFF74FCF090768F742BF0907697E054F4
:10192000FDF0E4907681F0907680F0EFB4022290A2
:101930007FFC741CF0907FFF74FCF090768F742F06
:10194000F0907697E04402F0E4907681F090768013
:10195000F0303F09907697E054FEF080079076973C
:10196000E04401F0907697E054FBF0908002F0D2D2
:101970002E22907695E04401F04402F04408F030C5
:101980003E06E04404F08007907695E054FBF0902A
:10199000761AE0B40108907695E0908001F0907698
:1019A00019E0FFB40125907FFC74CCF0907FFF74A8
:1019B000FCF090768F742BF0907697E054FDF05405
:1019C000FBF0E4907681F0907680F0EFB402259001
:1019D0007FFC74C8F0907FFF74FCF090768F742FBA
:1019E000F0907697E04402F054FBF0E4907681F0BA
:1019F000907680F0EFB40325907FFC7498F0907F90
:101A0000FF74FCF090768F745FF0907697E054FD51
:101A1000F04404F0E4907681F0907680F0303F0955
:101A2000907697E054FEF08007907697E04401F0BE
:101A3000907697E0908002F0D22E22907695E05436
:101A4000FEF04402F04408F0303E06E04404F0802A
:101A500007907695E054FBF090761AE0B401089078
:101A60007695E0908001F0907619E0FFB401259022
:101A70007FFC74B4F0907FFF74FCF090768F742B31
:101A8000F0907697E054FDF054FBF0E4907681F00E
:101A9000907680F0EFB40225907FFC74B0F0907FD8
:101AA000FF74FCF090768F742FF0907697E04402EC
:101AB000F054FBF0E4907681F0907680F0EFB40380
:101AC00025907FFC7468F0907FFF74FCF090768F17
:101AD000745FF0907697E054FDF04404F0E4907663
:101AE00081F0907680F0303F09907697E054FEF0D8
:101AF0008007907697E04401F0907697E09080021E
:041B0000F0D22E22CF
:101B0400302C38C22C907619E0FFB4010E90767C0C
:101B140074C0F0A37414F0A3740BF0EFB4020DE4DA
:101B240090767CF0A37410F0A3740CF0EFB4030B64
:0C1B3400E490767CF0A37418F0A3F0227B
:101B40000000000000000000000000000000000095
:101B50000000000000000000000000000000000085
:101B60000000000000000000000000000000000075
:101B70000000000000000000000000000000000065
:021F3E000000A1
:101F40000000000000000000000000000000000091
:101F50000000000000000000000000000000000081
:101F60000000000000000000000000000000000071
:101F70000000000000000000000000000000000061
:0527FC000000000022B6
:10280100C220C221C22A907FE8E01237F9283000A5
:10281100288C0128A2022A1F212A6A22293D802907
:102821007D8129D1822A84A12ABAA200002ABF90DF
:102831007FE9E014601124FE602824FE603B24FC43
:102841007040123FE541CB124E1D400241CB907FBB
:10285100EAE0B40104C22241CB907FB4E04401F02C
:1028610041CB124E1F907FEAE0B40104D22241CB4A
:10287100907FB4E04401F041CB907FB4E04401F09B
:1028810041CB907FB4E04401F041CB907FE9E0245B
:10289100F5700512486341CB907FB4E04401F041EB
:1028A100CB907FE9E024FD605424026002213412C0
:1028B1004E1D400241CB907FEAE07038907FECE002
:1028C100F45480FFC4540FFFE054072F25E024B4D3
:1028D100F582E4347FF583E4F0907FECE05480FFEF
:1028E100131313541FFFE054072F907FD7F0E044D8
:1028F10020F041CB907FB4E04401F041CB124E1F58
:10290100400241CB907FEAE07020907FECE0F454EC
:1029110080FFC4540FFFE054072F25E024B4F58253
:10292100E4347FF5837401F041CB907FB4E044013E
:10293100F041CB907FB4E04401F041CB907FE9E0DE
:10294100601224F86009240270291243E741CB1276
:102951004DCA41CB124E1BA222E433FF25E0FFA258
:1029610023E4334F907F00F0E4A3F0907FB574022D
:10297100F041CB907FB4E04401F041CB907FE9E09E
:10298100603324F6602A2404703D907FEBE024DE5E
:10299100600C047012907FB4E04401F041CB907F51
:1029A100B4E04401F041CB907FB4E04401F041CB6D
:1029B10012474541CB124E1BE4907F00F0A3F090EB
:1029C1007FB57402F041CB907FB4E04401F041CB7C
:1029D100907FE9E024F46034240C7039124E1B908E
:1029E1007FECE0F45480FFC4540FFFE054072F251F
:1029F100E024B4F582E4347FF583E054FD907F0058
:102A0100F0E4A3F0907FB57402F041CB907FB4E085
:102A11004401F041CB907FB4E04401F041CB907F81
:102A2100E9E024F6601214601A2402701DD220908D
:102A31007FB4E04401F08012D220907FB4E04401E1
:102A4100F08007907FB4E04401F0202018907FEEE1
:102A5100E07004A3E0600BD229D22712174AD22AD0
:102A61008003120800C2208061907FEEE07004A311
:102A7100E0600BD229D22812174AD22A804C123890
:102A8100748047907FE9E024FE601214601A2402EA
:102A9100701DD221907FB4E04401F08012D22190C8
:102AA1007FB4E04401F08007907FB4E04401F0205E
:102AB1002103121000C2218011122AD6800C124E5D
:102AC100215007907FB4E04401F0202A07907FB4A1
:052AD100E04402F022C8
:102AD600E4907627F0907627E0FF75F00FA4244265
:102AE600F582E43475F583E0FE907FECE0FDEE6D53
:102AF600600EEFC394065008907627E004F080D568
:102B0600EFB40608907FB4E04401F022EF75F00FB1
:102B1600A42441F582E43475F583E0907628F02408
:102B26009F7002A17424216002A1A1907FE9E02494
:102B36007E700261FC14700281B524026002A16CF1
:102B4600EF75F00FA42443F582E43475F583E0FCB9
:102B5600A3E0FDA3E0FEA3E0FF7B447AAC79007816
:102B660000C31237AB7013907F007444F0A374ACAB
:102B7600F0E4A3F0907FB57403F0907627E075F04B
:102B86000FA42443F582E43475F583E0FCA3E0FD4D
:102B9600A3E0FEA3E0FF7B807ABB79007800C31236
:102BA60037AB7013907F007480F0A374BBF0E4A37E
:102BB600F0907FB57403F0907627E075F00FA424AB
:102BC60043F582E43475F583E0FCA3E0FDA3E0FE63
:102BD600A3E0FF7B007A7779017800C31237AB60F8
:102BE60002A1A8907F00F0A37477F0A37401F0907F
:102BF6007FB57403F022907627E075F00FA4244782
:102C0600F582E43475F583E0FCA3E0FDA3E0FEA3C2
:102C1600E0FF7B447AAC79007800C31237AB7013BF
:102C2600907F007444F0A374ACF0E4A3F0907FB5F9
:102C36007403F0907627E075F00FA42447F582E43C
:102C46003475F583E0FCA3E0FDA3E0FEA3E0FF7B83
:102C5600807ABB79007800C31237AB7013907F007F
:102C66007480F0A374BBF0E4A3F0907FB57403F016
:102C7600907627E075F00FA42447F582E43475F5C5
:102C860083E0FCA3E0FDA3E0FEA3E0FF7B007A77F0
:102C960079017800C31237AB6002A1A8907F00F0DB
:102CA600A37477F0A37401F0907FB57403F02290BB
:102CB6007627E075F00FA4244BF582E43475F5838E
:102CC600E0FCA3E0FDA3E0FEA3E0FF7B447AAC7941
:102CD600007800C31237AB7013907F007444F0A3E2
:102CE60074ACF0E4A3F0907FB57403F0907627E01F
:102CF60075F00FA4244BF582E43475F583E0FCA34C
:102D0600E0FDA3E0FEA3E0FF7B807ABB79007800BC
:102D1600C31237AB7013907F007480F0A374BBF0BE
:102D2600E4A3F0907FB57403F0907627E075F00F7A
:102D3600A4244BF582E43475F583E0FCA3E0FDA3FF
:102D4600E0FEA3E0FF7B007A7779017800C31237B3
:102D5600AB704F907F00F0A37477F0A37401F090EE
:102D66007FB57403F022907FB4E04401F022907F97
:102D7600E9E0247F701E907627E075F00FA4244FBB
:102D8600F582E43475F583E0907F00F0907FB574AA
:102D960001F08007907FB4E04401F0907FB4E044F6
:032DA60001F02217
:102DA900E4907636F0E0FF75F003A4240EF582E492
:102DB9003475F5837401F0EF75F003A4240FF582DF
:102DC900E43475F5837401F0EF75F003A42410F56C
:102DD90082E43475F583E4F0907636E004F0E0FFA0
:102DE90075F003A4240EF582E43475F5837410F0AC
:102DF900EF75F003A4240FF582E43475F5837405A7
:102E0900F0EF75F003A42410F582E43475F583E43A
:102E1900F0907636E004F0E0FF75F003A4240EF597
:102E290082E43475F5837402F0EF75F003A4240F7E
:102E3900F582E43475F5837402F0EF75F003A42488
:102E490010F582E43475F583E4F0907636E004F009
:102E5900E0FF75F003A4240EF582E43475F583745C
:102E690001F0EF75F003A4240FF582E43475F583BE
:102E79007403F0EF75F003A42410F582E43475F5BA
:102E890083E4F0907636E004F0E0FF75F003A424C3
:102E99000EF582E43475F5837410F0EF75F003A430
:102EA900240FF582E43475F5837406F0EF75F003A9
:102EB900A42410F582E43475F583E4F0907636E0C5
:102EC90004F0E0FF75F003A4240EF582E43475F5EF
:102ED900837402F0EF75F003A4240FF582E43475CE
:102EE900F5837404F0EF75F003A42410F582E4343B
:102EF90075F583E4F0907636E004F0E0FF75F003B1
:102F0900A4240EF582E43475F5837402F0EF75F0AC
:102F190003A4240FF582E43475F5837408F0EF7582
:102F2900F003A42410F582E43475F5837404F09059
:102F39007636E004F0E0FF75F003A4240EF582E490
:102F49003475F5837402F0EF75F003A4240FF5824C
:102F5900E43475F583740AF0EF75F003A42410F5D1
:102F690082E43475F5837404F0907636E004F0E079
:102F7900FF75F003A4240EF582E43475F583740219
:102F8900F0EF75F003A4240FF582E43475F583742A
:102F990009F0EF75F003A42410F582E43475F58384
:102FA9007404F0907636E004F0E0FF75F003A42491
:102FB9000EF582E43475F5837402F0EF75F003A41D
:102FC900240FF582E43475F5837407F0EF75F00387
:0E2FD900A42410F582E43475F5837404F0220C
:102FE700C0E0C083C082D2265391EF907FAB7401BB
:082FF700F0D082D083D0E0325B
:012FFF00329F
:10300000907FB6E020E102C23DD236203602416E0A
:10301000303D02416E908007E06004D2368002C2EB
:1030200036203602412ED235E4F51A908004E0F5C0
:10303000197408250EF8A619851918E51820E70453
:10304000D2388002C23830380221D4E4F516E519AE
:10305000B4F00CD2397508047509F0050E8002052C
:1030600016E51964F7703DC239E50E24FE601714A9
:103070006022240370297508057509F7E4F50AF53F
:103080000B750E048020750806750AF7E4F50B75BC
:103090000E048012750807750BF7750E0480071271
:1030A0004DDA80020516E51954F864F8703BC23514
:1030B000E5192407600C24FC6008240524F8500658
:1030C0008008D23A8006C23A8002D23A751A0120AC
:1030D0003A19907E80740FF0A3E519F0E4A3F0A3F1
:1030E000F0907FB77404F08002051620396DE51961
:1030F00064F76067E51A7063E51854F064F070597E
:10310000851819F50EE519240F601B24FE6017249D
:10311000FD602214601F2405702F750803050E85BD
:103120001809D2378028750802050E85180975140C
:1031300001D2378019750805050E851809E4F50ACE
:10314000F50B750E03D2378005124DDAC2353035D6
:103150000A85081385181280020516851819E516C8
:1031600064047062F50EE51954F0F519F51585182B
:1031700019E5152470601824F0601424F060102400
:10318000F0601E24F0601A24F0600424607027E5CB
:1031900015C4540FF519F508050E851809D23780A6
:1031A0001AE515C4540FF519F508050E85180975AB
:1031B0001401D2378005124DDAC23530350A85192F
:1031C0001385181280020516E516D3940540571290
:1031D0004DDA8052303917E50E700A8508097508F6
:1031E00004050E80417408250EF8A6198038203792
:1031F0002AE50EB4010F85080A85090B8513088599
:103200001209750E04E514B4011C85080AE4F50BD7
:10321000851308851209750E04800BE514B40106A8
:10322000E4F50B750E04E4F51A303502050EE50ED3
:10323000D394035002010BC237E4F50EF510C236E9
:10324000D23DF51474082510F8E6FF74802510F5BA
:1032500082E4347EF583EFF074082510F8E4F60577
:0F32600010E510B404DE907FB77404F0010B2268
:10326F00907618E0FF640570429075ABE0B40119D9
:10327F009072377401F0E4908020F0908031F090DC
:10328F008028F0908039F08022E4907237F09075AA
:10329F00ADE090722BF0E02480F0E0908020F09071
:1032AF008031F0908028F0908039F0EF6406600252
:1032BF0081999072397404F0907239E0FF24FE9076
:1032CF007204F0EF75F00AA424ABF582E43475F5BF
:1032DF0083E06401705490723604F0907204E0FF42
:1032EF0024FD602824FE6024240324FB5004601C6A
:1032FF00818C74202FF582E43480F583E4F07428F8
:10330F002FF582E43480F583E4F0818C907204E031
:10331F00FF2430F582E43480F583E4F074382FF520
:10332F0082E43480F583E4F0818CE4907236F0907F
:10333F007239E075F00AA424ADF582E43475F58393
:10334F00E0FF7E0090750CEEF0A3EFF07006907228
:10335F0002743BF090750CE0FEA3E0FF64804E70AA
:10336F0004907202F0EF4E70028135EF64804E7060
:10337F00028135EFF8E490750DF0E890750CF09040
:10338F007234E075F00AA424ACF582E43475F58349
:10339F00E0FF907202F090750DE02FF090750CE049
:1033AF003400F0E0FEA3E0FFE4FCFD7BD67AA5F944
:1033BF00F8D3123795400A90750C74A5F0A374D604
:1033CF00F090750DE0242AF090750CE0345AF0E07F
:1033DF00FEA3E07805CEA2E713CE13D8F8FF9075C1
:1033EF000CEEF0A3EFF090722CEEF0A3EFF0D3946D
:1033FF00D2EE64809482400A90722C7402F0A3740F
:10340F00D2F0C390722CE0648094805004E4F0A357
:10341F00F090722CE0FEA3E0243AF582EE3472F5C0
:10342F0083E0907202F0907204E0FF24FD602D247F
:10343F00FE6029240324FB50046021804090720217
:10344F00E0FE74202FF582E43480F583EEF07428CB
:10345F002FF582E43480F583EEF08021907202E044
:10346F00FF907204E0FE2430F582E43480F583EFA0
:10347F00F074382EF582E43480F583EFF0907239D2
:0B348F00E004F0E0640A600241C72284
:10349A00907618E0FFB40523907237E0701D90759E
:1034AA00ADE090722BF0E02480F0E0908020F09064
:1034BA008031F0908028F0908039F0EF6406600245
:1034CA00C191907236E06002C191907640E070310D
:1034DA009072037403F0907203E0FF75F00AA4245B
:1034EA00AAF582E43475F583E0FE907229E0FDEED8
:1034FA006D600EEFC3940A5008907203E004F080E6
:10350A00D59072397404F0907640E0700890720396
:10351A00E0907239F0907239E0FD24FE90722AF040
:10352A00ED75F00AA424ADF582E43475F583E0FF65
:10353A007E0090750CEEF0A3EFF0700690720274A4
:10354A0080F090750CE0FEA3E0FF64804E7004905A
:10355A007202F0EF4E7002C11BEF64804E7002C11E
:10356A001BEFF8E490750DF0E890750CF0ED75F02E
:10357A000AA424ACF582E43475F583E0FF90720264
:10358A00F090750DE02FF090750CE03400F0E0FE3D
:10359A00A3E0FFE4FCFD7BD67AA5F9F8D3123795B0
:1035AA00400A90750C74A5F0A374D6F090750DE0DE
:1035BA00242AF090750CE0345AF0E0FEA3E0780576
:1035CA00CEA2E713CE13D8F8FF90750CEEF0A3EF56
:1035DA00F090722CEEF0A3EFF0D394D2EE648094C4
:1035EA0082400A90722C7402F0A374D2F0C39072D3
:1035FA002CE0648094805004E4F0A3F090722CE0F4
:10360A00FEA3E0243AF582EE3472F583E09072026A
:10361A00F090722AE0FF24FD602D24FE6029240325
:10362A0024FB500460218040907202E0FE74202F37
:10363A00F582E43480F583EEF074282FF582E434C1
:10364A0080F583EEF08021907202E0FF90722AE00A
:10365A00FE2430F582E43480F583EFF074382EF5D9
:10366A0082E43480F583EFF0907640E07006907241
:10367A0039740AF0907239E004F0E0C3940A5002F7
:08368A00A111E4907640F0224A
:10369200BB010689828A83E0225002E722BBFE0236
:0936A200E32289828A83E4932269
:1036AB00BB010CE58229F582E5833AF583E02250D4
:1036BB0006E92582F8E622BBFE06E92582F8E2221E
:0D36CB00E58229F582E5833AF583E4932238
:1036D800C2D5EC30E709B2D5E4C39DFDE49CFCEE0D
:1036E80030E715B2D5E4C39FFFE49EFE12381FC32E
:1036F800E49DFDE49CFC800312381F30D507C3E429
:063708009FFFE49EFE227B
:10370E00BB0110E58229F582E5833AF583E0F5F0F9
:10371E00A3E0225009E92582F886F008E622BBFED6
:10372E000AE92582F8E2F5F008E222E5832AF5831C
:08373E00E993F5F0A3E99322E1
:10374600E88FF0A4CC8BF0A42CFCE98EF0A42CFC22
:103756008AF0EDA42CFCEA8EF0A4CDA8F08BF0A4A0
:103766002DCC3825F0FDE98FF0A42CCD35F0FCEBFF
:103776008EF0A4FEA9F0EB8FF0A4CFC5F02ECD39C4
:0F378600FEE43CFCEAA42DCE35F0FDE43CFC2231
:10379500EB9FF5F0EA9E42F0E99D42F0EC6480C8AB
:0637A50064809845F0224B
:1037AB00EB9FF5F0EA9E42F0E99D42F0E89C45F074
:0137BB0022EB
:0C37BC00ECF0A3EDF0A3EEF0A3EFF02280
:1037C800A8828583F0D083D0821237DF1237DF12C8
:1037D80037DF1237DFE473E493A3C583C5F0C583ED
:1037E800C8C582C8F0A3C583C5F0C583C8C582C84B
:0137F80022AE
:1037F900D083D082F8E4937012740193700DA3A35F
:1038090093F8740193F5828883E473740293686072
:06381900EFA3A3A380DF72
:10381F00BC000BBE0029EF8DF084FFADF022E4CC8D
:10382F00F875F008EF2FFFEE33FEEC33FCEE9DEC56
:10383F00984005FCEE9DFE0FD5F0E9E4CEFD22ED9C
:10384F00F8F5F0EE8420D21CFEADF075F008EF2FE6
:10385F00FFED33FD4007985006D5F0F222C398FDD7
:05386F000FD5F0EA2274
:10387400E4907629F0907629E0FF75F00FA42442B5
:10388400F582E43475F583E0FE907FECE0FDEE6DA7
:10389400600EEFC394065008907629E004F080D5BA
:1038A400EFB40608907FB4E04401F022EF75F00F06
:1038B400A42441F582E43475F583E090762AF0245B
:1038C400BF7002414124E070024112242160024190
:1038D4003A907FE9E024FE607D14700221B2240254
:1038E4006002410A121751907642E0FCA3E0FDA366
:1038F400E0FEA3E0FF907629E075F00FA42443F5E1
:1039040082E43475F5831237BC907619E0FFB40174
:103914001290767C7467F090767D7406F090767ED3
:10392400740BF0EFB4020FE490767CF090767DF0A7
:1039340090767E740CF0EFB4030FE490767CF090F4
:10394400767DF090767E7418F090761A7401F012F9
:103954003E9F12180022907EC2E0FFE4FCFDFEFBB5
:10396400FA7901F8123746C8ECC8C9EDC9CAEECADB
:10397400CBEFCB907EC1E0FEE4FCFD2BFBEA3EFAEC
:10398400ED39F9EC38F8907EC0E0FFE4FEEB2FFF50
:10399400EE3AFEED39FDEC38FC907629E075F00F37
:1039A400A42447F582E43475F5831237BC22907E53
:1039B400C2E0FFE4FCFDFEFBFA7901F8123746C8C9
:1039C400ECC8C9EDC9CAEECACBEFCB907EC1E0FE0C
:1039D400E4FCFD2BFBEA3EFAED39F9EC38F8907E75
:1039E400C0E0FFE4FEEB2FFFEE3AFEED39FDEC38CC
:1039F400FC907629E075F00FA4244BF582E434752D
:103A0400F5831237BC22907FB4E04401F022907F0A
:103A1400E9E0147019907EC0E0FF907629E075F01B
:103A24000FA4244FF582E43475F583EFF022907FE0
:0E3A3400B4E04401F022907FB4E04401F0229F
:103A4200E4907635F0907635E0FFC394034002416E
:103A5200FFEF75F00AA424AAF582E43475F583EF2A
:103A6200F0EF75F00AA424ABF582E43475F583E433
:103A7200F0EF75F00AA424ACF582E43475F5837492
:103A8200F0F0EF75F00AA424ADF582E43475F58305
:103A920074FFF0EF75F00AA424AEF582E43475F5F4
:103AA20083E4F0EF75F00AA424AFF582E43475F5EF
:103AB200837480F0EF75F00AA424B0F582E43475C3
:103AC200F583E4F0EF75F00AA424B1F582E43475CD
:103AD200F583E4F0EF75F00AA424B2F582E43475BC
:103AE200F583E4F0EF75F00AA424B3F582E43475AB
:103AF200F5837401F0907635E004F0414790763C0E
:103B0200740AF0E4A3F09076357403F090763CE00A
:103B1200FF907635E0FEC39F400261D290763DE091
:103B2200FF04F0EE75F00AA424AAF582E43475F5D8
:103B320083EFF0EE75F00AA424ABF582E43475F558
:103B420083E4F0EE75F00AA424ACF582E43475F552
:103B520083745EF0EE75F00AA424ADF582E4347548
:103B6200F58374BAF0EE75F00AA424AEF582E4345B
:103B720075F5837405F0EE75F00AA424AFF582E4BE
:103B82003475F5837480F0EE75F00AA424B0F582E2
:103B9200E43475F583E4F0EE75F00AA424B1F582FD
:103BA200E43475F583E4F0EE75F00AA424B2F582EC
:103BB200E43475F5837415F0EE75F00AA424B3F5B8
:103BC20082E43475F583E4F0907635E004F0610E1A
:013BD20022D0
:103BD300E4907636F0E0FB75F00FA42441F582E41F
:103BE3003475F5837440F0EB75F00FA42442F5822D
:103BF300E43475F583740AF0EB75F00FA42443F5F0
:103C030082E43475F5831237C80000AC44EB75F0D9
:103C13000FA42447F582E43475F5831237C80000F6
:103C2300AC44EB75F00FA4244BF582E43475F583B3
:103C33001237C800017700907636E004F0E0FB7598
:103C4300F00FA42441F582E43475F5837440F0EB5E
:103C530075F00FA42442F582E43475F583748CF077
:103C6300EB75F00FA42443F582E43475F583123722
:103C7300C80000AC44EB75F00FA42447F582E4348C
:103C830075F5831237C80000AC44EB75F00FA4241C
:103C93004BF582E43475F5831237C8000177009041
:103CA3007636E004F0E0FF75F00FA42441F582E4DA
:103CB3003475F5837440F0EF75F00FA42442F58258
:103CC300E43475F583748FF0907636E004F0E0FF0A
:103CD30075F00FA42441F582E43475F5837441F043
:103CE300EF75F00FA42442F582E43475F5837484F0
:103CF300F0907636E004F0E0FF75F00FA42441F570
:103D030082E43475F5837461F0EF75F00FA42442F7
:103D1300F582E43475F5837481F0907636E004F02F
:103D2300E0FF75F00FA42441F582E43475F5837444
:103D330061F0EF75F00FA42442F582E43475F58346
:043D43007401F022F5
:103D4700C0E0C0F0C083C082C0D0E8C0E0E9C0E0F6
:103D5700EAC0E0EBC0E0ECC0E0EDC0E0EEC0E0EFB1
:103D6700C0E0907FA2E090767FF0907F74E090763D
:103D770087F0907F75E0907688F0907F98E0440216
:103D8700F0907696E0FF20E10C4402F0908003F07B
:103D9700D232124B2890767FE020E250907687E06F
:103DA700FEA3E07C002400F534EC3EF533907698D2
:103DB700E0FDAE33AF341236D8907687EFF0D22FCE
:103DC700303129203F26C231907F94E054CFF090C4
:103DD7007F9AE030E404D22DC22C907F9AE020E550
:103DE70004C22DD22C907F94E04430F01248BD12CB
:103DF7001B04302F1212421FC22F75E80112168AB8
:103E070075E80DD22B800575E801C22B202B349065
:103E17007619E0FFB4010E90767C7467F0A3740600
:103E2700F0A3740BF0EFB4020B90767CE4F0A3F0F0
:103E3700A3740CF0EFB4030B90767CE4F0A3F0A32B
:103E47007418F075CAD375CBFED2CA303404C234A5
:103E57008002D23430340D907689E0C39403400455
:103E6700E024FDF05391EF907FAB7402F0F0907F68
:103E770098E054FDF0D0E0FFD0E0FED0E0FDD0E0C8
:103E8700FCD0E0FBD0E0FAD0E0F9D0E0F8D0D0D019
:083E970082D083D0F0D0E032AC
:103E9F00907692E014601D147002E15424026002C7
:103EAF00E1E49076947401F0908000F0E490768EC7
:103EBF00F0D23122907619E0FFB4011BE4907FF22B
:103ECF00F0907FF37430F0907FFF74FCF090769752
:103EDF00E054FDF054FBF0EFB4021BE4907FF2F0DE
:103EEF00907FF37434F0907FFF74FCF0907697E03E
:103EFF004402F054FBF0EFB40318E4907FF2F0901B
:103F0F007FF37464F0907FFF74FCF0907697E04439
:103F1F0004F0907694E04401F0908000F0303F0977
:103F2F00907697E054FEF08007907697E04401F08A
:103F3F00907697E0908002F09076987404F09076E7
:103F4F008E7401F022907619E0FFB4011BE4907F8C
:103F5F00F2F0907FF37444F0907FFF74FCF0907652
:103F6F0097E054FDF054FBF0EFB4021BE4907FF2A6
:103F7F00F0907FF3744CF0907FFF74FCF090769785
:103F8F00E04402F054FBF0EFB40318E4907FF2F03A
:103F9F00907FF37494F0907FFF74FCF0907697E02D
:103FAF004404F0907694E054FEF0908000F0303F9F
:103FBF0009907697E054FEF08007907697E04401E1
:103FCF00F0907697E0908002F09076987406F090DB
:063FDF00768E7402F02250
:103FE500907FEAE0907682F0E4907691F090769278
:0B3FF500F0907690F0907693F0D322CD
:10400000E511D3940050022106907689E0C394080C
:10401000400221067440250FF582E4347EF583E0EA
:10402000F517E50D600E908005E517F0907689E0B4
:1040300004F001DAE5171237F940C1024067054084
:104040007A0640980740C10C40C10D40C70F40CBD5
:10405000F640CBF840CBFA40CBFB40CBFC40CBFE4C
:1040600040CBFF000040DA907E41E0908005F09068
:104070007689E004F07511018060907E41E09080C7
:1040800005F0907E42E0908005F0907689E004F0A3
:10409000E004F07511018042907E41E0908005F0CF
:1040A000907E42E0908005F0907E43E0908005F0A5
:1040B000907689E004F0E004F0E004F075110180EE
:1040C00019D23BD23C8013D23B800F908005E5177C
:1040D000F0907689E004F0751101203B04050D8015
:1040E0001F303C1C907E41E0908005F0907E42E0C5
:1040F000908005F0907689E004F0E004F0751101FD
:10410000050F15110100E5117010C233F50DF50F03
:0B411000907FC77404F0C23BC23C2249
:10411B0090768DE064017027302708C227120800C3
:10412B0012174A302808C22812387412174A302A3C
:10413B000EE490768DF0C22A907FB4E04402F090AA
:10414B00763FE0B40105E4F012326F907641E0B4B3
:10415B000105E4F012349A907640E0B40103123476
:10416B009A123000303303124000907F9BE020E422
:10417B0002C23F907F9BE030E402D23F907F9BE0F6
:10418B0020E502C23E907F9BE030E502D23EA24189
:10419B00303F01B3501FA23F9241303F09907697B9
:1041AB00E054FEF08007907697E04401F09076970C
:1041BB00E0908002F0303F34907619E0FFB4010EAE
:1041CB0090767C7467F0A37406F0A3740BF0EFB4D5
:1041DB00020BE490767CF0A3F0A3740CF0EFB40325
:1041EB000BE490767CF0A3F0A37418F0A240303E61
:1041FB0001B3501FA23E9240303E09907695E044A9
:10420B0004F08007907695E054FBF0907695E09063
:04421B008001F0220C
:10421F00907619E064017035907687E0FFD3942D86
:10422F00402B9076867401F0907685E004F0E0D311
:10423F00940F4019E4F0EFD394314008907619743D
:10424F0003F080069076197402F0123E9F90761953
:10425F00E0B4022C907687E0FFC3942F5022EFD367
:10426F00942A401C9076867401F0907685E004F0D5
:10427F00E0D3940F400AE4F090761904F0123E9FB9
:10428F00907619E0B40226907687E0D39431401DE2
:10429F009076867401F0907685E004F0E0D3940F69
:1042AF00400BE4F09076197403F0123E9F9076194C
:1042BF00E06403703F907687E0FFC3945F503590C2
:1042CF0076867401F0907685E004F0E0D3940F4089
:1042DF0023E4F0EFC3942F500CEFD3942A400690B1
:1042EF0076197401F0EFD3942F400690761974026B
:1042FF00F0123E9F907686E07005907685F022E46E
:05430F00907686F0220B
:10431400E4907696F0908003F0907FE07490F090B3
:104324007FE17404F0E4907FDDF0907FA1F0538E80
:10433400F875880575B82075F801438E30F5C87591
:10434400CA7F75CBF843A820124565C22CC22DC282
:104354002BC22F907FFC74DDF0907FFF74FFF090F0
:104364007F97E04401F09076197401F0E49076852B
:10437400F0A3F0907681F0907680F01249AE120F9F
:10438400C6124AF1907F97E04408F0E054B9F0D2A5
:1043940030203018124AA612300012400012421F78
:1043A4001248BD121B0412166112421F124AA6C201
:1043B4002FC231C232C234C233C229C227C228E456
:1043C400F511907689F090763FF0907641F09076F2
:1043D40040F090768AF0A3F0A304F0E4A3F0907682
:0343E40099F0222B
:1043E700124E19400281AC907FEBE024FE601E1450
:1043F700604614606E147002819D2404600281A5DA
:104407007405907FD4F07400907FD5F022907FEAF6
:10441700E0FF124A558B208A218922EA496011CE92
:10442700EACEEE907FD4F0CFE9CFEF907FD5F022A0
:10443700907FB4E04401F022907FEAE0FF1247B793
:104447008B208A218922EA496011CEEACEEE907F3D
:10445700D4F0CFE9CFEF907FD5F022907FB4E0443E
:1044670001F022907FEAE0FF907EC0E0FDA3E0FB31
:104477001217948B208A218922EA496011CEEACE4D
:10448700EE907FD4F0CFE9CFEF907FD5F022907FE9
:10449700B4E04401F022907FB4E04401F022907F21
:0544A700B4E04401F047
:0144AC0022ED
:1044AD00C2AFD224907F937430F0907F9C74BBF098
:1044BD00907F96E04430F0E05430F0907F9474306B
:1044CD00F0907F9D74CFF0907F9774A0F0907F95C2
:1044DD0074C0F0907F9E7403F0907F99E030E209F4
:1044ED0090051974A0F0E4A3F0C225C222C223C224
:1044FD0026124B28122DA9123BD3124619123A42FD
:10450D009076687401F0700F124C29124E15124EF0
:10451D0017121B40121496124314907FAFE0440102
:10452D00F0907FAEE0441FF0907FAC74FFF0907F71
:10453D00ADF0907FDEF0907FDFF0907FABF0907F5D
:10454D00A9F0907FAAF05391EF43D820D2E843D839
:08455D002053A8A043A880220E
:1045650090769A7402F0E4907691F0A3F0907690AC
:10457500F0907693F09076967403F0908003F0E4D3
:10458500907697F0908002F090769404F0908000F9
:10459500F0E490768EF090761AF090769504F0C25D
:1045A5002E907F9BE0FF5410FF7002C23F907F9BCF
:1045B500E0FF5410FEFFBE1002D23F907F9BE0FF4C
:1045C5005420FF7002C23E907F9BE0FF5420FEFF07
:1045D500BE2002D23E303F09907697E054FEF0802F
:1045E50007907697E04401F0907697E0908002F08E
:1045F500303E09907695E04404F08007907695E08A
:1046050054FBF0907695E0908001F0A23E9240A296
:034615003F924190
:01461800227F
:10461900E4907636F0E0FF75F003A42432F582E4E5
:104629003475F583E4F0EF75F003A42433F582E4DF
:104639003475F5837401F0907636E004F0E0FF7587
:10464900F003A42432F582E43475F583E4F0EF75C0
:10465900F003A42433F582E43475F5837402F090F1
:104669007636E004F0E0FF75F003A42432F582E425
:104679003475F583E4F0EF75F003A42433F582E48F
:104689003475F5837403F0907636E004F0E0FF7535
:10469900F003A42432F582E43475F583E4F0EF7570
:1046A900F003A42433F582E43475F5837404F0220D
:0C46B900787FE4F6D8FD758138024700D8
:1046C5000207A6E493A3F8E493A34003F68001F25E
:1046D50008DFF48029E493A3F85407240CC8C333F6
:1046E500C4540F4420C8834004F456800146F6DFC5
:1046F500E4800B0102040810204080900C8FE47EBA
:10470500019360BCA3FF543F30E509541FFEE493B9
:10471500A360010ECF54C025E060A840B8E493A380
:10472500FAE493A3F8E493A3C8C582C8CAC583CAAB
:10473500F0A3C8C582C8CAC583CADFE9DEE780BE63
:10474500907FECE0907683F0E014601D14602A14ED
:10475500603714604424047050907691E0907F0097
:10476500F0907FB57401F08047907692E0907F00DD
:10477500F0907FB57401F08037907690E0907F00DF
:10478500F0907FB57401F08027907684E0907F00EB
:10479500F0907FB57401F08017907693E0907F00DC
:1047A500F0907FB57401F08007907FB4E04401F08C
:0247B500D3220D
:0247B7008F2E43
:1047B900E4F52F7530FF75310775321AAB30AA3120
:1047C900A9329000011236ABB4031FAF2F052FEFAA
:1047D900652E7001221236927E0029FFEE3AC9EF4A
:1047E900C97530FFF531893280D27B007A007900B2
:0147F900229D
:0647FA00124B28C231221F
:10480000C0E0C0F0C083C082C0D0E8C0E0E9C0E032
:10481000EAC0E0EBC0E0ECC0E0EDC0E0EEC0E0EFED
:10482000C0E0C2CAC2CF907F98E04401F0302E03AE
:104830001214A6907F98E054FEF053A8FA12166165
:10484000D0E0FFD0E0FED0E0FDD0E0FCD0E0FBD037
:10485000E0FAD0E0F9D0E0F8D0D0D082D083D0F028
:03486000D0E03273
:10486300907FECE0907683F0E014601714602114DD
:10487300602B14603224047038907FEAE0907691C4
:10488300F08035907FEAE0907692F0123E9F802888
:10489300907FEAE0907690F0121800801B907FEAF8
:1048A300E0907684F08011907FEAE0907693F08038
:0A48B30007907FB4E04401F0D32227
:1048BD00302D39C22D907619E0FFB4010DE49076BC
:1048CD007CF0A374F8F0A3740AF0EFB4020DE49039
:1048DD00767CF0A374F0F0A3740BF0EFB4030DE449
:0D48ED0090767CF0A374F8F0A37417F0220D
:0648FA005391BFD22D32E4
:10490000022FE700023D4700024DB400024C430075
:10491000024BE900022FFF00024C5B00024C0A0030
:10492000024C7200024B5A00024C8900024CA0005B
:10493000024CB700024CCE00024CE500024CFC00D9
:10494000024D1300024D2A00024D4100024D580055
:08495000024D6F00024D8600CC
:10495800E4907626F0907626E0FF75F003A42434E0
:10496800F582E43475F583E0FE907FECE0FDEE6DB2
:10497800600EEFC394045008907626E004F080D5CA
:10498800EFB40408907FB4E04401F022EF75F0031F
:10499800A42432F582E43475F583E0907F00F0902A
:0649A8007FB57401F0224E
:1049AE009076467480F0E4A3F0A3F0A3F0A3F0A3F6
:1049BE00F0A3F0A3F0A3F0A37480F0E4A3F0A3F0AF
:1049CE00A3F0A3F0A3F0A3F0A37440F0E4A3F0A32C
:1049DE007440F0E4A3F0A3F0A3F0A3F0A3F0A3F0CF
:1049EE00A37440F0E4A3F0A37440F0E4A3F0A3F0AA
:0549FE00A3F0A3F0226C
:104A0300E4907625F0907625E0FF75F003A4243436
:104A1300F582E43475F583E0FE907FECE0FDEE6D06
:104A2300600EEFC394045008907625E004F080D51F
:104A3300EFB40408907FB4E04401F022907EC0E01C
:104A4300FEEF75F003A42432F582E43475F583EEAA
:024A5300F0224F
:104A5500E4FE751DFF751E05751F12AB1DAA1EA967
:104A65001F9000011236AB6402702FCDEECD0EED16
:104A75006F70012290000212370E85F01BF51C6243
:104A85001BE51B621CE51C621B29FDE51B3AC9EDF4
:104A9500C9751DFFF51E891F80C17B007A0079004D
:014AA50022EE
:104AA600E490769BF090769BE0FF04F0EF6008E0E0
:104AB6002408F8E4F680EE907696E04404F0440884
:104AC600F0908003F0E4F518D235F50EF510D236E5
:104AD600751211751322C237C239C238F516F5148C
:0B4AE600F51AF50DC23BC23CC23D2298
:104AF100E4FF74562FF582E43476F583E0FE7428E2
:104B01002FF582E43480F583EEF0745E2FF582E4B4
:104B11003476F583E0FE74382FF582E43480F58332
:064B2100EEF00FBF08CC0E
:014B2700226B
:104B2800E4907236F0A3F0907F97E054FBF0E490A5
:104B38007233F0907232F090720104F0E4907233A4
:104B4800F0907232F090720104F0907F97E0440484
:024B5800F02249
:104B5A00C0E0C083C0825391EF907FAAE04402F084
:104B6A00907FC7E0F511750F00750D00D233D08222
:054B7A00D083D0E03201
:104B7F00907FD6E054FBF0E04408F0304204E0446C
:104B8F0002F07FDC7E05124D9D907FD6E054F7F04A
:054B9F00E04404F022D7
:104BA400907FEBE0147014907FE9E0247F7004128E
:104BB400495822907FB4E04401F022907FB4E0444D
:034BC40001F022DB
:104BC700907FEBE0147013907FE9E0147004124AB1
:104BD7000322907FB4E04401F022907FB4E04401C7
:024BE700F022BA
:104BE900C0E0C083C0825391EF907FAB7410F09006
:104BF9007696E054FDF0908003F0D082D083D0E027
:014C09003278
:104C0A00C0E0C083C0825391EF907FAAE04401F0D4
:0F4C1A00C22990768D7401F0D082D083D0E03221
:104C2900907FD6E030E712E04401F07F147E001255
:0A4C39004D9D907FD6E054FEF0225E
:104C4300C0E0C083C082D2255391EF907FAB74083C
:084C5300F0D082D083D0E032E2
:104C5B00C0E0C083C0825391EF907FA9E04401F084
:074C6B00D082D083D0E032BB
:104C7200C0E0C083C0825391EF907FA9E04402F06C
:074C8200D082D083D0E032A4
:104C8900C0E0C083C0825391EF907FA9E04404F053
:074C9900D082D083D0E0328D
:104CA000C0E0C083C0825391EF907FAAE04404F03B
:074CB000D082D083D0E03276
:104CB700C0E0C083C0825391EF907FA9E04408F021
:074CC700D082D083D0E0325F
:104CCE00C0E0C083C0825391EF907FAAE04408F009
:074CDE00D082D083D0E03248
:104CE500C0E0C083C0825391EF907FA9E04410F0EB
:074CF500D082D083D0E03231
:104CFC00C0E0C083C0825391EF907FAAE04410F0D3
:074D0C00D082D083D0E03219
:104D1300C0E0C083C0825391EF907FA9E04420F0AC
:074D2300D082D083D0E03202
:104D2A00C0E0C083C0825391EF907FAAE04420F094
:074D3A00D082D083D0E032EB
:104D4100C0E0C083C0825391EF907FA9E04440F05E
:074D5100D082D083D0E032D4
:104D5800C0E0C083C0825391EF907FAAE04440F046
:074D6800D082D083D0E032BD
:104D6F00C0E0C083C0825391EF907FA9E04480F0F0
:074D7F00D082D083D0E032A6
:104D8600C0E0C083C0825391EF907FAAE04480F0D8
:074D9600D082D083D0E0328F
:104D9D008E358F36E5361536AE35700215354E60CB
:074DAD000512148580EE22BF
:104DB400C0E0C083C0825391EF907FAB7404F0D005
:064DC40082D083D0E03232
:104DCA00907682E0907F00F0907FB57401F0D32254
:0C4DDA00C237E4F50EF510C236F51422C5
:094DE600C22553D8EF43D8203256
:074DEF005398FE5398FD32BA
:074DF60053C0FE53C0FD3263
:064DFD0053917FD22C321D
:044E03005391DF32B6
:044E070053D8F73253
:044E0B001217302228
:034E0F00C28D321F
:034E1200C28F321A
:024E1500D322A6
:024E1700D322A4
:024E1900D322A2
:024E1B00D322A0
:024E1D00D3229E
:024E1F00D3229C
:024E2100C322AA
:00000001FF
