:10000000070000000700240007000C0007001C0088
:1000100007000600020070002000000040000300FE
:100020000471000086420000400003000D0F000034
:10003000100800003A042000820200000D020000B7
:10004000100800003A04200082120000820E2000F6
:10005000821A00000D2D0300100800003A04100061
:100060008DD30200100800003A0418000D010000B2
:1000700015000200FD000000200000006088030061
:100080006090030060800300408003004080030014
:1000900040800300408001007D0A00004080030092
:1000A000408003004080010002042000820800001C
:1000B0001A0008000409000086590100070000002A
:1000C000070026000700000007000000068A010064
:1000D000070000008D0C0300100800003A0418000F
:1000E000070026007D080000428001000A1600007B
:1000F00006A20400070000008D2100001008000087
:100100003A04080006C2210007000000FD070000B5
:10011000428001000A0008000409000086930200E2
:1001200095010000040D09000700000020080000F0
:10013000F50000007D0B000060F00100FD000000F4
:1001400006220300408001007D0A00004280030077
:100150004A8013000A001800201800006090050073
:100160006088050040800100FD0000004280010021
:100170000A007000150100004411070086230300E7
:100180000000030020700000064A030040800100C8
:100190008D340000100800003A04080006EA21002F
:1001A000070000008DD30200100800003A04180078
:1001B0000682010007000000070024008D0F0000E8
:1001C000100800003A16000002240000025C000043
:1001D000FD28000020000000408001000D00080004
:1001E0001508000084095100070000004D000000C0
:1001F0005D0E0000020E00008D410000100800009E
:100200003A040800068A2C00070000008D00000058
:1002100024090000020F00008D45000010080000B6
:100220003A040800068A2C00070000007D38000010
:10023000428001000A000800151000008409010036
:10024000868301000700000006AA010007000000E5
:10025000FD080000428001000A0018000419000097
:100260008680210007002800101800003A042800AA
:10027000020C28000D000000100800003A142800AD
:100280008D80080020080000FD0200004080010071
:10029000070020000D02000004991800070000006C
:1002A0002D400000BD000000FD0200004280010062
:1002B0000A00080004090000865A05000700000033
:1002C00000010000200A00007D04000040800100C1
:1002D000428001000A002000153000004421010086
:1002E000864903000700000004210000864903003E
:1002F000070000008D0F0000100800003A0C2800D5
:100300004439020086C906000700000010180000EA
:100310003A0428000D81080020080000FD020000BA
:100320004080010007002000102800003A007800FB
:100330008D680000100800003A040800068A2800B2
:10034000070000000D40000015100000049918007F
:1003500004292900043939000700000006020600BC
:1003600007000000F50400007D00000020000000F0
:100370008D00000060080100408001007D04000045
:10038000428003004A8021000A001800441902003C
:1003900086582100070000007540000004F171003C
:1003A00007000000420001000A00280004290000A4
:1003B00086202100070000000D3C000004A9300049
:1003C000070000007D070000428001000A000800CD
:1003D0000409000086DA07007D05000020280000DF
:1003E00060B0030006F207004080010020300000EA
:1003F00060A8030040800100FD020000428001006F
:100400000A0008000409000086FA0700070000003F
:100410007D050000428001000A0428008D0E0000C6
:10042000100800003A0C28000D0000001008000021
:100430003A1428000D00090020080000FD02000009
:100440004080010007002000FD3D0000200000006A
:10045000408001007D1000008D8D0000100800001C
:100460003A040800068A280007000000150800006A
:100470001A00080084090100865109007D1300005C
:1004800000052000200F2800608F3300608F3B00A4
:10049000608F4300608F4B00608F5300608F5B0064
:1004A000608A030040800100BD7F0000C43D380029
:1004B000070000007D1A0000751300004280010053
:1004C0004A0009000A001000048D0B000495130077
:1004D00007000000200800006090010004110000E7
:1004E0008620210040000100FD170000428001002D
:1004F0000A0008000409000086222100070000000D
:100500007D190000428003004A8009000A001000A3
:100510002409000064160000FD1100004280030061
:100520004A802B004A8019008D0000004489210078
:10053000070000004422000086E10A0007000000D6
:10054000641A0000242A00007D190000020108003E
:10055000220110002008000060900300408001008C
:10056000FD3D00008D0000002008000040800100DB
:10057000751300007D1A0000420001004A80090046
:100580000A0010001D020000E4890100E492290025
:1005900044913000070000000D060000150A00001D
:1005A0001D0C000025100000E4A90000E42B010050
:1005B00064040000E4B30100E432020064040000BB
:1005C0006404000064040000640400000D040000E2
:1005D000C4B108000700000020080000F50B00006F
:1005E000400003007D190000428003004A8009009A
:1005F000240A00000A000800640E0800070000003A
:1006000022011000200800006010030040000100DB
:10061000AC6400007D02000020000000408001006A
:100620007D10000042800100FD1100004A803B0067
:100630004A8009000A0020009500000044111A00B9
:1006400044A1000086200D000D04000084B90000C4
:1006500086210D00FD18000042800100FD10000001
:100660004A8009000A0028009500000024090100C2
:10067000642A000086110D00070000000429000014
:1006800086220D0007000000062A0D000200080067
:100690008D0000007D38000020080000408001002F
:1006A0007D120000428001000A00100004390000A1
:1006B00086D10D000D080000B5FF7F0084B9000051
:1006C00086A10D0025000000067A0E002D00000016
:1006D000150000002D0800008DC702002008000052
:1006E00006C20E000D00000035807F0084B90000B6
:1006F00086710E00250040008D00000044091100A5
:10070000070000008D0100000495100007000000A4
:10071000649100002404000024040000240400006C
:1007200002011000020028008DC60200200800000F
:1007300006C20E008D0100002D0400008D00000097
:1007400004951000070000000D02000084911000C5
:10075000070000000DC70200200800008D00000007
:10076000FD38000040800100FD3B0000201000002B
:1007700060A80300150800008431310084212100A5
:100780000700000060B0030060A00300408001008B
:10079000FD2200009500000024090100240400004F
:1007A0002404000064120000020110002008000070
:1007B0006090030040800100241900008DFB0000C0
:1007C0007D390000200800004080050042800300C1
:1007D0004A840900060600000A04080024040000F8
:1007E000240400007D110000428001000A0008007E
:1007F000240A000002052800020C28000D800900D0
:1008000020080000FD0200004080010007002000D9
:10081000FD220000428001000A000800950000004F
:10082000C40D2800241901007D1900004280010038
:10083000FD1100004A8009000A001000B500000008
:1008400044311100048D0A0007000000440A08002A
:100850000495120007000000FD2300002010000096
:100860004080030044121000070000002008000030
:100870006090030040800100FD0200004280010002
:100880000A0008000409000086FA100007000000B2
:10089000FD3B000000010000100A00007A800B0000
:1008A0004A80130084090900070000009500000039
:1008B000043D0100868011000A00100002001000B3
:1008C0008409090007000000428003004A801100EB
:1008D000040D0900070000000A001000840D090043
:1008E000070000007D250000200800004080010076
:1008F0000D010000100800003A1428007D120000CD
:10090000428001000A0020007D19000042800100A1
:100910007D1100004A8031000A00100024310000DF
:100920000D2801007D3900002008000040800500EE
:10093000428003004A840900060600000A040800F9
:1009400002013000243100002404000024040000CF
:1009500024120000020528004C1A00008601130032
:10096000020070002D000000000003007D38000030
:10097000428001000A001000062A13002421000012
:10098000AD000000020010000D010000240900006D
:10099000246B00008D3601007D3900002008000026
:1009A00040800500428003004A84090006060000DA
:1009B0000A040800643200008D000000240A0000D0
:1009C000201000007D220000408001000D3C01004D
:1009D000100800003A04080006D2290007000000B1
:1009E000202800007D200000408001007D110000D3
:1009F000428003004A8013000A8033007D380000E3
:100A0000428001000A00080004090000863A16002E
:100A1000070000008D000000640903008D470100FD
:100A20007D3900002008000040800500428003005E
:100A30004A840900060600000A0408000201380082
:100A4000240400002404000024120000FD02000021
:100A5000428001000A0008000409000086A2140078
:100A600007000000020528004C1A00008639160015
:100A700007000000642103002C630000FD3D00001E
:100A8000428001000A0008009500000004090900E6
:100A900007000000200800004C1A000086611500C5
:100AA0004080010000000300067A150024210000A8
:100AB0000D01000024090000246B00008D5B010083
:100AC0007D390000200800004080050042800300BE
:100AD0004A840900060600000A040800643A00007F
:100AE0009500000024120000FD0200004280010079
:100AF0000A0008000409000086DA1500070000005B
:100B00008D620100100800003A04080006D2290096
:100B10000700000006D2140007000000207000004B
:100B20000A0108002A011000FD200000608803006F
:100B300060900300408001007D220000428001009F
:100B4000FD3D00000A0008004A843100040900004D
:100B500086D816008B0018008D000000049918003C
:100B60002C31000006AA1700070000004C320000DC
:100B700086331700070000000419000086301700B4
:100B80000700000095000000449119002C2200008D
:100B9000243100006C6300003D0E0000751300005E
:100BA000FD0B0000420001004A8009000A0010000D
:100BB000EC8A0300EC9303004C22000086A9170086
:100BC000070000008D000000049918006C2200004E
:100BD0002C3200000A053000AB1D300083200000DD
:100BE000FD180000428001000A000800248901006D
:100BF000020530008310000075180000420001005B
:100C00000A0010008D000000240901007513000087
:100C100042053300CB0C3300CB2C3300CB343300F4
:100C2000CB3C3300CB443300CB4C3300CB543300AC
:100C30008B5C300083600000F50200004200010080
:100C40000A00080004090000867A18000700000066
:100C50002D1E0000FD050000428001000A00080072
:100C600024890200020528000D060000100800007B
:100C70003A0C28008D000000100800003A142800EB
:100C80008D800A0020080000F502000040000100ED
:100C90000700220075120000420003004A002100F4
:100CA0008D00000044091A00070000000D980100A3
:100CB000100800003A04080006222B00070000007C
:100CC000F5010000420003004A000D000A00100078
:100CD00044910800070000002008000040000100C7
:100CE000F525000044310A0007000000200800003C
:100CF00060280300400003007D21000042800300C3
:100D00004A800B000A001000200800006010030059
:100D1000400003008D000000240100002C010000B1
:100D2000640E0000641A00006C6300000A010800F1
:100D30002A0110002008000060100300400003009A
:100D4000FD200000428001000A0008007D22000012
:100D5000428001000A00100020080000601003001B
:100D6000400003007D190000428001000A000800D5
:100D7000FD220000428003000A001000200800004D
:100D80006010030040000300040D0900070000008C
:100D90002008000040000300428003004A800B004E
:100DA0000A0010002008000060100300400003004B
:100DB000428003004A8013004A801900040D11008C
:100DC000048D1900070000000A0008002010000030
:100DD0006018030060080300400003008D0000005D
:100DE00044090B000700000020080000400001003B
:100DF000F5050000420003000A000800200800007A
:100E000040000100F5000000420001000A00080057
:100E10000409000086601C00751E000042000300EB
:100E20004A0401000A0C000006721C0007000000C2
:100E300002040000020C00007D170000F51A0000FB
:100E4000428001004A1403004A1C03004A240300A4
:100E50004A2C03004A3403004A3C03004A4403007E
:100E60000A4C00003D040000F5130000FD1A0000CC
:100E7000420003004A000B004A801B004A80130016
:100E80000A0020004491080044A11900E4890300ED
:100E9000EC990300025500000A5D000042000300C7
:100EA0004A000B004A801B004A8013000A00200001
:100EB0004491080044A11900E4890300EC9903005F
:100EC000026500000A6D0000420003004A000B00AA
:100ED0004A0019004A802B004A8013004A802100F2
:100EE0000A0030004491080044A1190044B12A00CE
:100EF000E4890300EC990300027500000A7D0000FC
:100F0000E4A90300020700007D10000015040000A2
:100F1000428001000A000800E4090100020F0000FD
:100F2000F52A0000FD190000420001004A80090076
:100F30000A0010003409000074160000F5290000B2
:100F4000420001000A0010007C91000075200000A2
:100F5000420001000A0008000409000086D21E00B9
:100F6000F5260000F5270000420003004A000900B2
:100F70000A0010003C0A00007C160000751A0000F0
:100F8000FD0B0000420001004A8051000A004800A9
:100F90000700160075100000420001000A2C28000E
:100FA000121D280012252800321F000007001E0015
:100FB00007000E007519000042000100F52D000029
:100FC0004A000D000A0010004491000086B21F0084
:100FD000420001000A3428005D0E00008D00000070
:100FE000750300002008000040000100F4D2050055
:100FF00004D154005C7300008653200007000000F9
:1010000007000C000700080007000A000D0402009A
:10101000100800003A040800062233000700000010
:10102000065A200007000000070008007522000093
:10103000420001000A002000042100008620210057
:101040002D1E0000F5020000420001000A00080009
:101050000409000086922000070000001020000014
:101060003A0430007D050000C38001000A0008003A
:101070002489020002052800020C28000D810A00C4
:1010800020080000F50200004000010007002200D7
:10109000FD040000428001000A007000000003000F
:1010A0002070000006FA0600408001000D180200C2
:1010B000100800003A04080006222B000700000078
:1010C000FD020000428001000A000800040900003F
:1010D000868A21000700000006F2010007000000D8
:1010E00075080000FD0900000D010000060A22003D
:1010F00095020000750B00007D0900000D00000046
:1011000015050000420001000A0018000419000043
:1011100086782800F506000020100000400001003D
:10112000F5040000200800004000010075070000E1
:10113000420001004A8009000A001000241100004A
:101140000409000086BA2200150800000201080008
:101150000412100006DA22007505000004120800CF
:1011600007000000020110007505000025040000C2
:10117000241102000201100020080000601003008A
:101180004000010024190000867828008D0000002E
:1011900064040000049D00008688270002011800F6
:1011A00075050000420001000A0428008D010000BE
:1011B00024090000020D28000D0000002409000091
:1011C000021528000D00100020080000F5020000A4
:1011D000400001000700200075110000FD02000022
:1011E000428001000A0008000409000086C22300B2
:1011F0000700000000010000200B0800600B130036
:10120000600B1B00600A0300400001004200050063
:101210004A003D004A0035004A002D000A00200027
:10122000F5060000420001000A142800F504000041
:10123000420001000A00080015030000040D01002F
:1012400086CA24001540000095000000040D01002E
:1012500086B82400220010002A00100006E22400B4
:10126000070000000431330004A92A000700000031
:10127000242103000205280024110000240400009A
:1012800024040000243200002C2900006C630000BC
:1012900086F325000700000064B10200640400002A
:1012A000640400008D000000640A0000020D2800A4
:1012B0008D00100020080000F50200004000010031
:1012C000070022008D00000004B93800070000006C
:1012D0006C2903000A013000F50200004200010001
:1012E0000A0008000409000086BA25000700000073
:1012F0002C3102000A0528008D0000006C09010055
:101300000A0D28000D01100020080000F502000061
:101310004000010007002200241100002404000006
:10132000240400002432000002013000442903009C
:10133000867A26000700000002003000F504000055
:10134000420001000A00080015030000040D01001E
:1013500086C0260024310000640400000201300031
:10136000F5020000420001000A0008000409000024
:1013700086CA260007000000243100000205300064
:10138000243900008305300083080000F5050000C3
:10139000420001000A0428008D00000024810000A2
:1013A000020D28008D000000248100000215280095
:1013B0008D01100020080000F5020000400001002F
:1013C0000700220025100000750500004200030000
:1013D0004A0009000A00100004090A000411120062
:1013E0000700000020100000600805004000050014
:1013F000FD060000428001004A0009000A001000BA
:10140000A500000004090A000411120007000000F2
:10141000200800006090010040000100F50200007B
:10142000420001000A00080004090000864228006A
:1014300007000000060A230007000000060600005F
:1014400007000000F5020000420001000A00080049
:101450000409000086922800070000000001000037
:10146000200B0800608B1300608B1B00608B230037
:10147000608B2B00608B3300608B3B00608B4300E4
:10148000608B4B00608B5300608B5B00608B630054
:10149000608B6B00608B7300608B7B00608F030040
:1014A000608F0B00608F1300608F1B00608F230024
:1014B000608F2B00608F3300608F3B00608F430094
:1014C000608F4B00608F5300608F5B00608F630004
:1014D000608F6B00608F7300608F7B00608A0300F9
:1014E00006060000408001008D000000640A000034
:1014F000020D2800240A00007D0200004280010045
:101500000A00100024120000FD03000042800100C8
:101510000A0008000409000086822A000700000073
:101520008D010000240A000064040000640400002F
:101530000201080024090000240400002404000023
:10154000020110000D0002004491000086D92A001B
:1015500007000000FD010000428001000A000800B1
:10156000440A000086BB2A00428001000D000A00E8
:1015700020080000FD02000040800100070020005C
:101580007D020000201000000606000040800100DF
:10159000F5020000420001000A00080004090000F2
:1015A000862A2B00070000007D0300004280010016
:1015B0000A00080004090000865A2B0007000000FA
:1015C000750000007D2E0000420001004A800B00E3
:1015D0002000000004090000860600004000010011
:1015E0004A8431008B043000830800008D00000025
:1015F000100800003A1428008D00000010080000B8
:101600003A0C280075060000420001000A0008009C
:101610001538000024090100020528000D000B0008
:1016200020080000F502000040000100060600004E
:1016300007002200640400006404000006060000A5
:1016400007000000340100008D7F00003C0900000D
:10165000121D280012252800321F000007000E006E
:101660000D0100007D030000200800004080010003
:10167000F4D2050007000000070008007D03000009
:10168000428001000A0008000409000086022D00C3
:101690000700000006060000070000000700000029
:1016A0001200000007001000070032000700600071
:1016B000800010001A0048000449000086612D00D7
:1016C00007000000101200003A0058004501000019
:1016D000045D5C0007000000800000001A00480064
:1016E0000449000086B12D00070000001012000020
:1016F0003A0050000459000086082E004500000002
:10170000C5000000F5FF7F007DFF7F0024D50700A6
:101710002442000002015000020520008200000067
:101720001A0040000441000086392E000700000026
:10173000653800001A004000204000004D100000F5
:1017400084C10400861B3000400000000700040034
:10175000650100004501000020400000400000003D
:1017600065070000800008001A00400004410000E6
:1017700086C92E0007000000101200003A00400049
:101780000441000086222F004D000000CD00000023
:10179000104800003A042000820800001A004000AF
:1017A0000441000086312F0007000000204800009F
:1017B000045900008608300040000000E5070000E2
:1017C00080042000A0162800E0163200E0163A003F
:1017D000E0164200601202004000000032000000EB
:1017E000750040007D00000074D507001205200040
:1017F000820000001A0040000441000086E12F0032
:1018000007000000067203000700640007000600DE
:10181000E50000002000000040000000650A000014
:1018200020000000400002004000020040000000D4
:1018300065010000420000000A0070000471000011
:1018400086A2300007000000068201000700640045
:101850000000050020700000400000000672030038
:1018600007006400070000006D300000608802007F
:10187000609002000A0008006088020040800000BA
:10188000120010000D10000084910000864131000C
:101890000D0E000084910000865132000700000008
:1018A00007003000201000006D3B00004080000069
:1018B000800000001A000800040900008661310061
:1018C0000700000020120000ED0D00004080000025
:1018D000428000000A0010000D00400044951000F6
:1018E0000700000020100000ED0D00004080000007
:1018F000428000000A042000820000001A00080054
:101900000409000086F13100070000006D3B000073
:10191000428000000A000800150E00008409010042
:10192000869B3200070060001A000800150C0000BA
:1019300084090100868332002000000007001A009D
:10194000ED02000040800000070062006D300000E2
:10195000428002004A800A00200800004A800A00F3
:10196000060600004A80100007000000122528002B
:10197000321F0000F4D2050004D154005C73000053
:10198000860700000700000007000C0007000A009F
:1019900007001C00653400004000020020480000E1
:1019A000605002000A004000604002004000000059
:1019B000444945000700000020400000E53A0000CF
:1019C00040000000E5280000420000000A00480036
:1019D0000449000086683800652C000042000000C1
:1019E0000A004000D5000000044145000700000047
:1019F000550600000445050086F23400D5010000BC
:101A00000445050086F03400652B0000420000000C
:101A1000E53A00004A0050000A004000D4C34500E7
:101A2000070000000445450007000000CD0000004D
:101A30004449440007000000044545000700000039
:101A40004D010000444955000700000044510400C6
:101A500086E93400652C0000420000000A004800BE
:101A600004D14C000700000044C1040086F3340098
:101A70000700000007001600E52C000042000400EB
:101A80000A004000204000004000000065290000DE
:101A9000420000000A00400004410000866035005A
:101AA000070000000224000006A23600025C0000CD
:101AB000E5250000420000000A00400074420000DA
:101AC000E52A0000420000000A00400074420000C5
:101AD00012015000E5290000420000000A00400009
:101AE000344200000441450007000000204000008F
:101AF00040000000E53E0000200000004000000023
:101B0000E52D0000520140000A005000445104003D
:101B1000864A3600C5000000E53E00002040000077
:101B200040000000E52B0000420000000A004000D9
:101B30005442400007000000E52A00002040000059
:101B400040000000320150003401040074560000CF
:101B5000E5290000420002000A00420042000000A5
:101B60000A0050007C410500E5280000420000000A
:101B70000A004800C500000044C14C008610370030
:101B8000E5260000E5270000420002004A00400070
:101B90000A0050003C4200007C560000E52800008E
:101BA0002048000040000000121D280012252800D7
:101BB000721F000065290000420000000A0040007A
:101BC0000441000086AA370007000E000700160037
:101BD00007001E00E53E0000420000000A00400031
:101BE0000441000086E83700652D00004200000037
:101BF0000A34280065340000420002004A00420016
:101C0000204000004A004A004A005000F4D205007B
:101C100004D154005C7300008651380007000000B6
:101C2000060600000700080007000C000700080077
:101C300007000A00E5010000450002002040000006
:101C4000600000006503000040000000652E0000F9
:101C5000201A0000601A0A004000000065340000ED
:101C6000420002004A004200204000004A004A00B0
:101C7000060600004A0050000000000000000000BE
:101C80000000000000000000000000000000000054
:101C90000000000000000000000000000000000044
:101CA0000000000000000000000000000000000034
:101CB0000000000000000000000000000000000024
:00000001FF
