:10000000070000000700240007000C0007001C0088
:1000100007000600020070002000000040000300FE
:100020000471000086420000400003000D0F000034
:10003000100800003A042000820200000D020000B7
:10004000100800003A04200082120000820E2000F6
:100050000D800000100800003A042000821A000001
:100060000D460300100800003A0410000DEC0200D9
:10007000100800003A0418000D01000015000200ED
:10008000FD00000020000000608803006090030075
:100090006080030040800300408003004080030034
:1000A000408001007D0A0000408003004080030082
:1000B0004080010002042000820800001A000800AD
:1000C00004090000867101000700000007002600F7
:1000D00007004000070000008D2503001008000005
:1000E0003A04180007002600024428007D0800009A
:1000F000428001000A16000006A205000700000069
:10010000070044000D230000100800003A04080016
:1001100006FA220007000000FD07000042800100EF
:100120000A0008000409000086AB020095010000E7
:10013000040D09000700000020080000F500000081
:100140007D0B000060F00100FD000000063A030096
:10015000408001007D0A0000428003004A801300B5
:100160000A00180020180000609005006088050053
:1001700040800100FD000000428001000A00700084
:100180001501000044110700863B03000000030036
:100190002070000006620300408001000D36000060
:1001A000100800003A04080006222300070000009F
:1001B0000DEC0200100800003A041800069A010035
:1001C00007000000070024008D0F00001008000049
:1001D0003A16000002240000025C0000FD28000026
:1001E00020000000408001000D00080015080000FC
:1001F00084095100070000004D0000005D0E000062
:10020000020E00000D430000100800003A04080030
:1002100006122E00070000008D00000024090000D7
:10022000020F00000D470000100800003A0408000B
:1002300006122E0007000000800448001012000083
:100240003A0428008D770000100800003A0C2800BE
:100250008D060000100800003A142800024428000F
:100260008D250300100800003A0418008DFF0700D8
:1002700020080000FD020000408001000700260069
:1002800007002000FD020000428001000A00080073
:100290000409000086120500070000000700240082
:1002A0000DEC0200100800003A0418007D38000030
:1002B000428001000A0008001510000084090100B6
:1002C000869B01000700000006B201000700000045
:1002D000FD080000428001000A0018000419000017
:1002E00086B8220007002800101800003A042800F1
:1002F000020C28000D000000100800003A1428002D
:100300008D80080020080000FD02000040800100F0
:10031000070020000D0200000499180007000000EB
:100320002D400000BD000000FD02000042800100E1
:100330000A00080004090000865A060007000000B1
:1003400000010000200A00007D0400004080010040
:10035000428001000A002000153000004421010005
:10036000866103000700000004210000866103008D
:10037000070000008D0F0000100800003A0C280054
:100380004439020086C90700070000001018000069
:100390003A0428000D81080020080000FD0200003A
:1003A0004080010007002000102800003A0078007B
:1003B0008D780000100800003A04080006122A0098
:1003C000070000000D4000001510000004991800FF
:1003D000042929000439390007000000060207003B
:1003E00007000000F50400007D0000002000000070
:1003F0008D00000060080100408001007D040000C5
:10040000428003004A8021000A00180044190200BB
:1004100086902200070000007540000004F1710082
:1004200007000000420001000A0028000429000023
:1004300086582200070000000D3C000004A930008F
:10044000070000007D070000428001000A0008004C
:100450000409000086DA08007D050000202800005D
:1004600060B0030006F20800408001002030000068
:1004700060A8030040800100FD02000042800100EE
:100480000A0008000409000086FA080007000000BE
:100490007D050000428001000A0428008D0E000046
:1004A000100800003A0C28000D00000010080000A1
:1004B0003A1428000D00090020080000FD02000089
:1004C0004080010007002000FD3D000020000000EA
:1004D000408001007D1000008D9D0000100800008C
:1004E0003A04080006122A00070000001508000060
:1004F0001A0008008409010086510A007D130000DB
:1005000000052000200F2800608F3300608F3B0023
:10051000608F4300608F4B00608F5300608F5B00E3
:10052000608A0300408001007D10000042800100CD
:100530000A000800150200008409010086813A00C3
:1005400007000000BD7F0000C43D38000700000028
:100550007D1A000075130000428001004A00090066
:100560000A001000048D0B00049513000700000022
:10057000200800006090010004110000865822004D
:1005800040000100FD170000428001000A00080041
:1005900004090000865A2200070000007D190000AF
:1005A000428003004A8009000A001000240900006C
:1005B00064160000FD110000428003004A802B00F9
:1005C0004A8019008D0000004489210007000000C6
:1005D0004422000086190C0007000000641A000085
:1005E000242A00007D1900000201080022011000E9
:1005F000200800006090030040800100FD3D0000E5
:100600008D000000200800004080010075130000EC
:100610007D1A0000420001004A8009000A00100013
:100620001D020000E4890100E49229004491300099
:10063000070000000D060000150A00001D0C000058
:1006400025100000E4A90000E42B01006404000070
:10065000E4B30100E432020064040000640400001A
:1006600064040000640400000D040000C4B108002C
:100670000700000020080000F50B00004000030008
:100680007D190000428003004A800900240A00000E
:100690000A000800640E0800070000002201100094
:1006A000200800006010030040000100AC6400005E
:1006B0007D02000020000000408001007D1000004D
:1006C00042800100FD1100004A803B004A80090081
:1006D0000A0020009500000044111A0044A1000007
:1006E00086580E000D04000084B9000086590E00E3
:1006F000FD18000042800100FD1000004A80090042
:100700000A0028009500000024090100642A000066
:1007100086490E000700000004290000865A0E00DA
:100720000700000006620E00020008008D000000B5
:100730007D38000020080000408001007D1200008C
:10074000428001000A0010000439000086090F00F1
:100750000D080000B5FF7F0084B9000086D90E00A7
:100760002500000006B20F002D000000150000005B
:100770002D0800000DE002002008000006FA0F001E
:100780000D00000035807F0084B9000086A90F00AD
:10079000250040008D000000440911000700000002
:1007A0008D01000004951000070000006491000016
:1007B00024040000240400002404000002011000AE
:1007C000020028000DDF02002008000006FA0F00DA
:1007D0008D0100002D0400008D0000000495100024
:1007E000070000000D0200008491100007000000C7
:1007F0008DDF0200200800008D000000FD380000A1
:1008000040800100FD3B00002010000060A80300B4
:100810001508000084313100842121000700000008
:1008200060B0030060A0030040800100FD220000D2
:1008300095000000240901002404000024040000A5
:100840006412000002011000200800006090030004
:1008500040800100241900000D0F01007D390000C7
:100860002008000040800500428003004A840900FF
:10087000060600000A040800240400002404000006
:100880007D110000428001000A000800240A0000D7
:1008900002052800020C28000D8009002008000035
:1008A000FD0200004080010007002000FD22000042
:1008B000428001000A00080095000000C40D2800D5
:1008C000241901007D19000042800100FD11000083
:1008D0004A8009000A001000B500000044311100F0
:1008E000048D0A0007000000440A08000495120065
:1008F00007000000FD2300002010000040800300DE
:10090000441210000700000020080000609003005F
:1009100040800100FD020000428001000A00080042
:10092000040900008632120007000000FD3B0000B1
:1009300000010000100A00007A800B004A801300BA
:10094000840909000700000095000000043D010033
:1009500086B812000A001000020010008409090085
:1009600007000000428003004A801100040D0900C6
:10097000070000000A001000840D090007000000B5
:100980007D25000020080000408001000D010000CE
:10099000100800003A1428007D1200004280010077
:1009A0000A0020007D190000428001007D11000036
:1009B0004A8031000A001000243100008D3B010004
:1009C0007D390000200800004080050042800300BF
:1009D0004A840900060600000A04080002013000EB
:1009E000243100002404000024040000241200002C
:1009F000020528004C1A000086391400020070001D
:100A00002D000000000003007D380000428001003E
:100A10000A0010000662140024210000AD0000004E
:100A2000020010000D01000024090000246B0000EA
:100A30000D4A01007D3900002008000040800500BB
:100A4000428003004A840900060600000A040800E8
:100A5000643200008D000000240A00002010000015
:100A60007D220000408001008D4F01001008000031
:100A70003A040800065A2B00070000002028000056
:100A80007D200000408001007D11000042800300B5
:100A90004A8013000A8033007D3800004280010044
:100AA0000A00080004090000867217000700000011
:100AB0008D000000640903000D5B01007D3900001A
:100AC0002008000040800500428003004A8409009D
:100AD000060600000A040800020138002404000091
:100AE0002404000024120000FD02000042800100E6
:100AF0000A0008000409000086DA1500070000005B
:100B0000020528004C1A000086711700070000003B
:100B1000642103002C630000FD3D000042800100C1
:100B20000A00080095000000040909000700000001
:100B3000200800004C1A0000869916004080010031
:100B40000000030006B21600242100000D01000081
:100B500024090000246B00000D6F01007D390000A6
:100B60002008000040800500428003004A840900FC
:100B7000060600000A040800643A00009500000020
:100B800024120000FD020000428001000A0008005B
:100B90000409000086121700070000000D7601000E
:100BA000100800003A040800065A2B000700000055
:100BB000060A160007000000207000000A01080065
:100BC0002A011000FD2000006088030060900300EF
:100BD000408001007D22000042800100FD3D0000B8
:100BE0000A0008004A843100040900008610180039
:100BF0008B0018008D000000049918002C310000B3
:100C000006E21800070000004C320000866B180056
:100C100007000000041900008668180007000000A3
:100C200095000000449119002C220000243100009E
:100C30006C6300003D0E000075130000FD0B00000A
:100C4000420001004A8009000A001000EC8A0300FB
:100C5000EC9303004C22000086E11800070000001E
:100C60008D000000049918006C2200002C32000056
:100C70000A053000AB1D300083200000FD18000085
:100C8000428001000A0008002489010002053000AA
:100C90008310000075180000420001000A001000D7
:100CA0008D00000024090100751300004205330087
:100CB000CB0C3300CB2C3300CB343300CB3C330094
:100CC000CB443300CB4C3300CB5433008B5C30002F
:100CD00083600000F5020000420001000A000800E5
:100CE0000409000086B21900070000002D1E000054
:100CF000FD050000428001000A000800248902006E
:100D0000020528000D060000100800003A0C28001B
:100D10008D000000100800003A1428008D800A00A1
:100D200020080000F502000040000100070022003A
:100D300075120000420003004A0021008D000000EF
:100D400044091A00070000008DAB010010080000E4
:100D50003A04080006AA2C0007000000F501000074
:100D6000420003004A000D000A00100044910800F0
:100D7000070000002008000040000100F5250000E9
:100D800044310A000700000020080000602803002A
:100D9000400003007D210000428003004A800B00D8
:100DA0000A0010002008000060100300400003004B
:100DB0008D000000240100002C010000640E0000E2
:100DC000641A00006C6300000A0108002A01100088
:100DD000200800006010030040000300FD20000018
:100DE000428001000A0008007D22000042800100CC
:100DF0000A001000200800006010030040000300FB
:100E00007D190000428001000A000800FD22000058
:100E1000428003000A001000200800006010030058
:100E200040000300040D0900070000002008000036
:100E300040000300428003004A800B000A001000BB
:100E400020080000601003004000030042800300FF
:100E50004A8013004A801900040D1100048D190006
:100E6000070000000A0008002010000060180300BE
:100E700060080300400003008D00000044090B00DF
:100E8000070000002008000040000100F5050000F8
:100E9000420003000A000800200800004000010092
:100EA000F5000000420001000A00080004090000EB
:100EB00086981D00751E0000420003004A040100D0
:100EC0000A0C000006AA1D00070000000204000032
:100ED000020C00007D170000F51A0000428001009E
:100EE0004A1403004A1C03004A2403004A2C03004E
:100EF0004A3403004A3C03004A4403000A4C000001
:100F00003D040000F5130000FD1A0000420003003C
:100F10004A000B004A801B004A8013000A00200090
:100F20004491080044A11900E4890300EC990300EE
:100F3000025500000A5D0000420003004A000B0059
:100F40004A801B004A8013000A00200044910800D8
:100F500044A11900E4890300EC9903000265000034
:100F60000A6D0000420003004A000B004A0019000D
:100F70004A802B004A8013004A8021000A0030007A
:100F80004491080044A1190044B12A00E4890300F7
:100F9000EC990300027500000A7D0000E4A903003B
:100FA000020700007D1000001504000042800100CF
:100FB0000A000800E4090100020F0000F52A000001
:100FC000FD190000420001004A8009000A001000DB
:100FD0003409000074160000F529000042000100E9
:100FE0000A0010007C910000752000004200010002
:100FF0000A00080004090000860A2000F526000007
:10100000F5270000420003004A0009000A00100012
:101010003C0A00007C160000751A0000FD0B000061
:10102000420001004A8051000A00480007001600F3
:1010300075100000420001000A2C2800121D280033
:1010400012252800321F000007001E0007000E00B6
:101050007519000042000100F52D00004A000D0046
:101060000A0010004491000086EA200042000100BE
:101070000A3428005D0E00008D000000750300009A
:101080002008000040000100F4D2050004D1540003
:101090005C730000868B21000700000007000C0035
:1010A0000700080007000A008D1702001008000062
:1010B0003A04080006B2340007000000069221003E
:1010C0000700000007000800752200004200010030
:1010D0000A00200004210000865822002D1E000076
:1010E000F5020000420001000A00080004090000A7
:1010F00086CA210007000000102000003A043000DA
:101100007D050000C38001000A0008002489020058
:1011100002052800020C28000D810A0020080000AA
:10112000F50200004000010007002200FD0400005D
:10113000428001000A0070000000030020700000DF
:1011400006FA0700408001008D2B02001008000005
:101150003A04080006AA2C0007000000FD02000067
:10116000428001000A0008000409000086C2220033
:1011700007000000060202000700000075080000DA
:10118000FD0900000D010000064223009502000049
:10119000750B00007D0900000D0000001505000022
:1011A000420001000A0018000419000086002A000D
:1011B000F50600002010000040000100F5040000CA
:1011C00020080000400001007507000042000100F7
:1011D0004A8009000A0010002411000004090000E0
:1011E00086F2230015080000020108000412100016
:1011F0000612240075050000041208000700000014
:1012000002011000750500002504000024110200F1
:1012100002011000200800006010030040000100DF
:101220002419000086002A008D00000064040000DC
:10123000049D0000861029000201180075050000B9
:10124000420001000A0428008D010000240900006A
:10125000020D28000D0000002409000002152800DE
:101260000D00100020080000F50200004000010001
:101270000700200075110000FD02000042800100FF
:101280000A0008000409000086FA24000700000094
:1012900000010000200B0800600B1300600B1B0016
:1012A000600A030040000100420005004A003D00C2
:1012B0004A0035004A002D000A002000F506000013
:1012C000420001000A142800F50400004200010059
:1012D0000A00080015030000040D01008602260024
:1012E0001540000095000000040D010086F0250067
:1012F000220010002A001000061A26000700000035
:101300000431330004A92A0007000000242103004F
:1013100002052800024428002411000002014000B8
:101320002404000024040000243200002C290000C2
:101330006C630000867327000700000064B10200A0
:1013400064040000640400008D000000640A0000D2
:10135000020D28008D00100020080000F50200009A
:1013600040000100070022008D00000004B9380091
:10137000070000006C2903000A013000F50200009C
:10138000420001000A00080004090000860227004C
:10139000070000002C2100000A0528006C31000025
:1013A0006C0400006C0400000A45280024110000B1
:1013B000646B0000020110008D0000006C09010048
:1013C0000A0D28000D01100020080000F5020000A1
:1013D0004000010007002200244100002404000016
:1013E00024040000243200000201300044290300DC
:1013F00086FA27000700000002003000F504000014
:10140000420001000A00080015030000040D01005D
:1014100086402800243100006404000002013000EE
:10142000F5020000420001000A0008000409000063
:10143000864A2800070000000244280024310000EA
:1014400002053000243900008305300083080000C5
:10145000F5050000420001000A0428008D0000008C
:1014600024810000020D28008D000000248100006E
:10147000021528008D01100020080000F502000070
:101480004000010007002200251000007505000043
:10149000420003004A0009000A00100004090A0083
:1014A0000411120007000000201000006008050071
:1014B00040000500FD060000428001004A000900CE
:1014C0000A001000A500000004090A00041112001F
:1014D00007000000200800006090010040000100AB
:1014E000F5020000420001000A00080004090000A3
:1014F00086CA2900070000000642240007000000F9
:101500000606000007000000F5020000420001008E
:101510000A00080004090000861A2A0007000000DB
:1015200000010000200B0800608B1300608B1B0083
:10153000608B2300608B2B00608B3300608B3B0043
:10154000608B4300608B4B00608B5300608B5B00B3
:10155000608B6300608B6B00608B7300608B7B0023
:10156000608F0300608F0B00608F1300608F1B0083
:10157000608F2300608F2B00608F3300608F3B00F3
:10158000608F4300608F4B00608F5300608F5B0063
:10159000608F6300608F6B00608F7300608F7B00D3
:1015A000608A030006060000408001008D000000F4
:1015B000640A0000020D2800240A00007D020000D9
:1015C000428001000A00100024120000FD03000008
:1015D000428001000A00080004090000860A2C006D
:1015E000070000008D010000240A000064040000D0
:1015F0006404000002010800240900002404000023
:1016000024040000020110000D00020044910000BB
:1016100086612C0007000000FD01000042800100EF
:101620000A000800440A000086432C0042800100A2
:101630000D000A0020080000FD02000040800100AB
:10164000070020007D0200002010000006060000B8
:1016500040800100F5020000420001000A0008007D
:101660000409000086B22C00070000007D03000082
:10167000428001000A0008000409000086E22C00F4
:1016800007000000750000007D2E000042000100F0
:101690004A800B00200000000409000086060000BC
:1016A000400001004A8431008B04300083080000B0
:1016B0008D000000100800003A1428008D00000082
:1016C000100800003A0C28007506000042000100D6
:1016D0000A0008001538000024090100020528004E
:1016E0000D000B0020080000F50200004000010082
:1016F00006060000070022006404000064040000E5
:101700000606000007000000340100008D7F000085
:101710003C090000121D280012252800321F00007D
:1017200007000E000D0100007D03000020080000EE
:1017300040800100F4D20500070000000700080007
:101740007D030000428001000A0008000409000037
:10175000868A2E0007000000060600000700000031
:101760000700000012000000070010000700320010
:101770000700600007004600800010001A004800C3
:101780000449000086F12E0007000000101200003E
:101790003A00580045010000045D5C0007000000AD
:1017A000800000001A0048000449000086412F0014
:1017B00007000000101200003A0050000459000019
:1017C00086982F0045000000C5000000F5FF7F004F
:1017D0007DFF7F0024D50700244200000201500055
:1017E00002052000820000001A00400004410000B1
:1017F00086C92F0007000000653800001A0040006D
:10180000204000004D10000084C1040086AB310070
:1018100040000000070004006501000045010000D1
:101820002040000040000000650700008000080024
:101830001A004000044100008659300007000000F3
:10184000101200003A0040000441000086B230004F
:101850004D000000CD000000104800003A042000B8
:10186000820800001A0040000441000086C13000D8
:10187000070000002048000004590000869831004D
:1018800040000000E507000080042000A0162800AA
:10189000E0163200E0163A00E01642006012020044
:1018A0004000000032000000750040007D00000094
:1018B00074D5070012052000820000001A004000C5
:1018C000044100008671310007000000068A030011
:1018D00007006400E5000000200000004000000058
:1018E000650A0000200000004000020040000200E5
:1018F0004000000065010000420000000A00700086
:101900000471000086323200070000000700060064
:10191000069A010007006400000005002070000026
:1019200040000000068A0300070064000700000072
:101930006D30000060880200609002000A0008001C
:101940006088020040800000120010000D100000AE
:101950008491000086D132000D0E000084910000B9
:1019600086E133000700000007003000201000006F
:101970006D3B000040800000800000001A0008005D
:101980000409000086F13200070000002012000068
:10199000ED0D000040800000428000000A001000B1
:1019A0000D004000449510000700000020100000CA
:1019B000ED0D000040800000428000000A0420007D
:1019C000820000001A00080004090000868133002C
:1019D000070000006D3B0000428000000A00080084
:1019E000150E000084090100862B340007006000FA
:1019F0001A000800150C0000840901008613340049
:101A00002000000007001A00ED02000040800000E6
:101A1000070062006D300000428002004A800A0028
:101A2000200800004A800A00060600004A801000D4
:101A30000700000012252800321F0000F4D2050024
:101A400004D154005C73000086070000070000000A
:101A500007000C0007000A0007001C0065340000A6
:101A60004000020020480000605002000A004000D0
:101A700060400200400000004449450007000000AB
:101A800020400000E53A000040000000E52800008A
:101A9000420000000A0048000449000086F83900AE
:101AA000652C0000420000000A004000D500000044
:101AB00004414500070000005506000004450500EC
:101AC00086823600D5010000044505008680360078
:101AD000652B000042000000E53A00004A0050007B
:101AE0000A004000D4C3450007000000044545003B
:101AF00007000000CD00000044494400070000003A
:101B000004454500070000004D0100004449550010
:101B1000070000004451040086793600652C00005F
:101B2000420000000A00480004D14C0007000000F9
:101B300044C1040086833600070000000700160039
:101B4000E52C0000420004000A0040002040000094
:101B50004000000065290000420000000A0040002B
:101B60000441000086F03600070000000224000057
:101B700006323800025C0000E5250000420000004B
:101B80000A00400074420000E52A00004200000004
:101B90000A0040007442000012015000E5290000D4
:101BA000420000000A0040003442000004414500A9
:101BB000070000002040000040000000E53E00005B
:101BC0002000000040000000E52D00005201400010
:101BD0000A0050004451040086DA3700C5000000B6
:101BE000E53E00002040000040000000E52B000022
:101BF000420000000A00400054424000070000007C
:101C0000E52A0000204000004000000032015000A2
:101C10003401040074560000E5290000420002006F
:101C20000A004200420000000A0050007C4105000A
:101C3000E5280000420000000A004800C50000003E
:101C400044C14C0086A03800E5260000E5270000CE
:101C5000420002004A0040000A0050003C420000DE
:101C60007C560000E52800002048000040000000ED
:101C7000121D280012252800721F0000652900008F
:101C8000420000000A00400004410000863A39008A
:101C900007000E000700160007001E00E53E0000CA
:101CA000420000000A00400004410000867839002C
:101CB000652D0000420000000A3428006534000051
:101CC000420002004A004200204000004A004A0050
:101CD0004A005000F4D2050004D154005C730000A7
:101CE00086E1390007000000060600000700080032
:101CF00007000C000700080007000A00E5010000CB
:101D00004500020020400000600000006503000064
:101D100040000000652E0000201A0000601A0A0032
:101D20004000000065340000420002004A0042000A
:101D3000204000004A004A00060600004A00500009
:101D4000FD170000428001000A000800040900009D
:101D5000865A2200070000007D100000428001002A
:101D6000FD1100004A8033004A8019000A0020005B
:101D70009500000044112A0044A1010086903B0018
:101D80000D04000084B1000086913B00FD180000A6
:101D900042800100FD1000004A8009000A0038005E
:101DA0009500000024090100643A000086813B0090
:101DB000070000000439000086923B000700000085
:101DC000069A3B000D0000008D0000002008000076
:101DD0007D38000040800100020070007D1100008D
:101DE000428001007D1900004A8029000A0030006D
:101DF0000200380024310000240400002404000004
:101E0000242A0000020528008D06000010080000AA
:101E10003A1428000D75000024B10000642200006F
:101E200086033D0002442800100800003A0C2800F8
:101E30000D800B0020080000FD0200004080010022
:101E4000070020008D75000024B100000201100081
:101E50004421010086493E00101800003A0010009D
:101E60007D380000428001000A00080004090000DB
:101E700086483E0000000300064A3E00BD00000008
:101E80008D00000064310200640A0000020D280089
:101E90008D800B0020080000FD0200004080010042
:101EA000070020007D380000428001000A00080081
:101EB0000409000086323E0000000300FD0200001D
:101EC000428001000A0008000409000086823D00EB
:101ED00007000000102800003A0428000D750000DB
:101EE0002409030064220000020D28006C31020066
:101EF0000A4528000D810B0020080000FD020000AB
:101F000040800100070020008D000000240A00002E
:101F1000064A3E0002011000101800003A001000AE
:101F2000BD000000103800003A0430007D180000A9
:101F300042800100FD1800004A8009000A002000CC
:101F4000AD000000248902002C21070010100000C1
:101F5000830530008B0D3000BB143000831C300033
:101F6000832000007D130000428003004A84330078
:101F7000CBAC3300CBB43300CBBC3300CBC4330089
:101F8000CBCC3300CBD433008B5C300083600000BB
:101F90000D1E0000FD050000428001000A00200027
:101FA000240902008D0600006CA900009D000000BD
:101FB000FD020000428001000A0008000409000040
:101FC000866A3F0007000000020528000A0D28006D
:101FD00002442800101800003A1428008D000C005C
:101FE00020080000FD0200004080010007002200E0
:101FF00004390000865822000D1E00007D050000F7
:10200000428001000A00200024090200A50000000F
:10201000FD020000428001000A00080004090000DF
:10202000862A40000700000002052800020C280054
:10203000102000003A1428000D010C0020080000B8
:10204000FD02000040800100065A22000700220025
:102050000000000000000000000000000000000080
:102060000000000000000000000000000000000070
:102070000000000000000000000000000000000060
:102080000000000000000000000000000000000050
:00000001FF
