:10000000B6C3AABBCCDD0200080028002C003400D7
:100010003C0040004800540058005E006400680046
:100020006E006C00720076007C00800086008A0002
:100030009000940098009E00A600AA00B000B400B2
:10004000B800C000C600CA00D000D400D800E0004C
:10005000DE00E800F000FC0004010A0118012201A2
:1000600028013A013E017E0198019C01A201AC01E8
:10007000B201BA01C001C801D001D601F401FC01EE
:10008000080216021A0222022A022E023E0244022C
:100090004A025002640262026C02720286028C0200
:1000A00090029E02BC02D002D802DC02E002E8020A
:1000B000E602F402FE0204030C0328037C0390030F
:1000C00094039C03A203C003D003D403EE03FA03FA
:1000D000FE032E0432043C0440044E0476047C04E7
:1000E00084048A048E04A604B004B804BE04D204B6
:1000F000DC04EE0410051A0524052A05360534052E
:100100003C05420564056A056E058605220626063D
:100110002C06300642064A064E06560654065A0675
:1001200060066606E806EE06F406160726072C07A4
:10013000320736073A073E07520756075A07640741
:1001400076077A07800784078A079E07A207DA07DF
:10015000DE07E207E607EA07EE07F207F6070E08F2
:10016000160818081A081C081E0820082208240867
:10017000260828082A082C082E0832083A084608BB
:100180004E0854085E0878087E08820886088C08A5
:10019000900898089E08A408AA08B008AE08B408F9
:1001A000BE08C408C208CA08C808D408E408E80899
:1001B000F608140912091A092009260924092A092E
:1001C0003E094C0956097009740978097E097C09B1
:1001D000820998099C09A009A609B809DC09E8095F
:1001E000EC09FC09120A180A1E0A420A460A4E0ABB
:1001F000540A5A0A5E0A680A6E0A720A780A760A6D
:100200007C0A800A840A940AA40AB80ABE0ABC0AB4
:10021000C20AC80AC60ACC0AD00AD40AD80ADC0A1A
:10022000E00AF20AF60AFA0A140B1A0B200B1E0B4C
:10023000260B2E0B2C0B360B3C0B420B400B4A0BA8
:10024000AA0BB00BB60BC00BC80BDA0BE80BEC0B10
:10025000FA0B4A0C540C620C660C960C9A0CA00C0F
:0E026000A60CA40CAC0CB20CB00CC00C000030
:00000001FF
