:03000000020200F9
:0400230002055F0073
:0400430002010000B6
:050030000000000000CB
:10010000020296000200000002000000020000004F
:1001100002000000020000000200000002000000D7
:1001200002000000020000000204610002048900D5
:1002000075815EE4F532F533F530F531F534C20031
:10021000C201A90074FE901000F0A3D9FC74FD90F7
:100220001100F0A3D9FC7402907F9DF07400907FC0
:1002300097F07486907F9EF0907F957403F0907F86
:10024000AFE0D2E0F07401907FABF0907FAEF09021
:100250007FAC7404F0907FAD7404F0907FC9F074AB
:1002600084907F98F07400F59875C8307B059120D4
:10027000D2CA759850D2E8D2AFD2AC7400F586904D
:100280007FD67402F0792E7A007B00DBFEDAFAD991
:10029000F67406F080FEC086C082C083C084C0852C
:1002A000C0E0E591C2E4F591907FAB7401F0907FDE
:1002B000E8E0F9A3E0FAA3E0FBA3E0FCE95460B4B2
:1002C0000003020339B4406EBA000B12042040034D
:1002D00002040202040ABA010302040ABA02030277
:1002E000040ABA0303020444BA041EBB000A907F46
:1002F00095E04402F0020402907F98E054FDF090F3
:100300007F95E054FDF0020402BA050302040ABA24
:100310000619BB0008E533D395320203DEBB0108A2
:10032000E532C395330203DE02040ABA07058B34B3
:1003300002040202040A02040ABA0020B9801090E2
:100340007F00E4F0A3F0907FB57402F0020402B9DC
:10035000820280EBB9810280E602040ABA010FBB77
:10036000000302040ABB010302040202040ABA03E6
:100370000FBB000302040ABB010302040202040AC9
:10038000BA0656BC010F907FD47406F0907FD574E6
:1003900012F0020402BC0212BB006F907FD47406FC
:1003A000F0907FD57424F0020402BC03297404C3C6
:1003B0009B40576055EB2B9006442582F5827400D4
:1003C0003583F583E0F9A3E0FA907FD4E9F0907FDC
:1003D000D5EAF002040202040ABA080F7401907F01
:1003E00000F07401907FB5F0020402BA0903020420
:1003F00002BA0A0574000203DEBA0B030204020209
:10040000040A907FB47402F08009907FB4E0440144
:10041000F08000D0E0D085D084D083D082D08632E6
:10042000EB20E71EC3940A5019EB2324FEF58274D7
:10043000053400F583E0F5CBF5CDA3E0F5CAF5CCA6
:10044000C322D322B94111EB64FF5484FB907F98FF
:10045000E0547B4BF0020402907F9BE064FF0203B8
:10046000DEC086C082C083C084C085C0E0E591C282
:10047000E4F591907FA97404F01205A0D0E0D08536
:10048000D084D083D082D08632C086C082C083C060
:1004900084C085C0E0E591C2E4F591907FAA740420
:1004A000F0907FC9E0F9E4F586907DC075851085F0
:1004B0003284E005860584F0E584B53302800905C1
:1004C000320586A3D9EC8000907FC9F0B131D0E02D
:1004D000D085D084D083D082D08632E4F586907FD8
:1004E000BCE020E14B907D00E532F0A3E533F0A3C2
:1004F000E530F0A3E531F0A3E430000104F0A305FA
:10050000869010007910E0A30586F0A30586D9F641
:10051000058674FCF0A305869011007910E0A30510
:1005200086F0A30586D9F6E4F586907FBD7426F0A3
:1005300022200013E532B53301220533758310857F
:100540003382E0F599D2007400B5340122E533D34B
:100550009532C3953440F5753400D2010205A0C030
:1005600086C082C083C084C085C0E0309907C2992C
:10057000C20012053430980512058AC298D0E0D026
:1005800085D084D083D082D0863275831185308225
:100590000582E599F0E582B53101220530B1A0224E
:1005A000907FB8E020E138200136E530B5310122F6
:1005B000E4F5867583110586907E00F0A3058679A3
:1005C00001E530B5310280100531853182E00586C4
:1005D000F0A3058609B940E9907FB9E96001F022EE
:1005E000C201E4F586907E007401F0A37402F090DD
:1005F0007FB9F022C299F5993099FDC29922E55E42
:10060000F63CFD8FFEC8FF64FFB2FFD9FFEDFFF39C
:10061000FFFA12010001FFFFFF40CD06040189AB84
:1006200001020301090220000101008032090400D7
:100630000002FFFFFF0007058203400001070502DB
:1006400002400000064C0650067206A0040300009B
:100650002203410043004D00450020007500730057
:100660006200200077006900640067006500740084
:1006700073002E03410043004D004500200055004B
:1006800053004200200073006500720069006100A1
:100690006C0020007700690064006700650074004A
:0606A000060334003700E0
:00000001FF
