:10000000F0360002001E021AFBFFFFFFFFFF023363
:10001000F9FFFFFFFFFFFFFFFFFFFFFFFFFF0234BE
:10002000A47581D490FDE88583A0123618EC4D604C
:100030007378AF8003760018B8A0FA787F800376D3
:100040000018B865FA78208003760018B820FA788E
:10005000208003760018B81FFA90FDDDAE83AF82D2
:1000600090FBF81200AA6005E4F0A380F690FDE88A
:10007000A88290FDE8A982E8696005E4F20880F7AB
:100080009001081200B390010C1200B390011012FD
:1000900000B39001141200D190011A1200D1900106
:1000A000201200D175D0001234F6020126EF6582CD
:1000B0007003EE658322E493F8740193F97402935C
:1000C000FE740393F5828E83E869700122E493F64F
:1000D000A30880F4E493FC740193FD740293FE740E
:1000E0000393FF740493F8740593F58288831200D8
:1000F000AA700122E493A3A883A9828C838D82F045
:10010000A3AC83AD828883898280E32121049B8014
:1001100080049BB0B4049BFDE8049F049FFBF304A0
:10012000A4049FFBF30504050480FED0F030F00921
:1001300020F303F68010F7800D30F10920F303F26D
:100140008004F38001F020F404FCD0E0CC22CCC089
:10015000E0120163020154BC0005D0F0ACF022C3F0
:1001600013DCFC02012ABF0009ED258275F001F8BD
:10017000E622BF010FED2582F582EE3583F583750A
:10018000F004E022ED258275F002F8E222D083D05F
:1001900082F5F0C3E493A3C5F095F0C0E0C3D0F0BE
:1001A000E493A395F04012A3A3C3E5F033500205F6
:1001B000832582F58250020583740193C0E0E493A5
:1001C000C0E022D083D082F5F0E4937009740193EB
:1001D0007004A3A3800C74029365F06005A3A3A32D
:1001E00080E7740193C0E0E493C0E022120264024D
:1001F00001FB1202B80201FB1202DC0201FB30E03B
:100200000720E302E622E72230E10720E302E222B0
:10021000E32230E202E022E493221202DC02022313
:100220001202B8020223ABF012022DCBC5F0CB2292
:1002300030E01020E306E6F5F008E622E7F5F009E5
:10024000E7192230E11020E306E2F5F008E222E3AC
:10025000F5F009E3192230E206E0F5F0A3E022E42C
:1002600093F5F074019322BB0003740922BB0107CC
:1002700089828A83740422BB020789828A8374106C
:1002800022740A22020284BB0007E92582F8740165
:1002900022BB010DE92582F582EA3583F5837404DA
:1002A00022BB020DE92582F582EA3583F5837410BD
:1002B00022E92582F87402220202B8BF0005EDF897
:1002C000740122BF01078D828E83740422BF02074E
:1002D0008D828E83741022EDF87402220202DCBF3C
:1002E0000007ED2582F8740122BF010DED2582F58E
:1002F00082EE3583F583740422BF020DED2582F56D
:1003000082EE3583F583741022ED2582F874022283
:10031000020310C0E0120264020328C0E01202B817
:10032000020328C0E01202DC02032830E00B20E3C5
:1003300004D0E0F622D0E0F72230E10B20E304D035
:10034000E0F222D0E0F322D0E0F022C9CDC9CACE3B
:10035000CACBCFCB12035BEDF9EEFAEFFB22BB0069
:100360002FBF000AFAEDF8E7F60809DAFA22BF0112
:10037000128D828E83F802037809A3E7F0D8FA225F
:10038000020383FAEDF8E7F20809DAFA2202038D94
:10039000BB014DBF001489828A83F9EDF802039FE7
:1003A00008A3E0F6D9FA220203B0BF01228D828EA3
:1003B00083FB08C9C582C9CAC583CAE0A3C9C5826F
:1003C000C9CAC583CAF0A3DBEAD8E8220203D38DE9
:1003D000828E83F9EDF8E0F208A3D9FA220203DD58
:1003E000BB024DBF001289828A83F9EDF80203EF48
:1003F00008A3E493F6D9F922BF01238D828E83FBF3
:1004000008C9C582C9CAC583CAE493A3C9C582C93C
:10041000CAC583CAF0A3DBE9D8E722020422898295
:100420008A83F9EDF8E493F208A3D9F922020433A0
:10043000BF000DFAEDF8E3F60809DAFA2202043DEE
:10044000BF01128D828E83F802044A09A3E3F0D81B
:10045000FA22020455FAEDF8E3F20809DAFA220268
:10046000045FE6FB08E6FA08E6F904F618700106F0
:1004700022E6FF08E6FE08E6FD22EFF0A3EEF0A379
:10048000EDF022EBF0A3EAF0A3E9F022E0FFA3E015
:10049000FEA3E0FD22E0FBA3E0FAA3E0F9220000C6
:1004A000000000000000000504006105730026053F
:1004B0009A00330A0B00610A770066154600610C4A
:1004C000FB006109AB006109E200610DC200610B34
:1004D000F300610A1E00610A530061173E003317E2
:1004E0005100341E1600431EBC0044202900442045
:1004F0001700471EE300471F88004D1FD9004F1FFC
:10050000050058338400617CCC7DFF121CC722900B
:10051000FFFCE020E72DC2AFAE59AF58755A20E579
:100520005A14C55A6019E4FE7F05EE4FCE24FFCE63
:10053000CF34FFCF6007E490FF92F080ED80E08E33
:10054000598F582212050C7D077CB71233A07D0FFE
:100550007C6E1233BA78A17A06E4F608DAFC7A06E1
:100560001205CF7C03120E57122165E4FEFF7C0FAB
:10057000123329D2A822123214E490FC38F090FFF2
:10058000F0E030E408740190FC39F08005E490FC60
:1005900039F07D0A7C00122547123297221232145C
:1005A00090FC39E014700E90FFF0E04410F07C00F5
:1005B0001225E0801990FC39E0700E90FFF0E054B5
:1005C000EFF07C001225E080057C171225E0123246
:1005D000972290FFF0E054ABF090FFF0E04420F061
:1005E000228C378D367882EDF608ECF6EDFEECFDC8
:1005F0007F019000051201F57880F67882E6FD080B
:10060000E6FCEDFEECFD7F019000041201F5540FB5
:10061000FC7D8012176F7880E6700DAD3AAE39AF71
:1006200038E41203187C082290FFF0E054FEF090AA
:10063000FFF0E054FDF0801E7882E6FD08E6FCED58
:10064000FEECFD7F0190000812021725E0440190A6
:10065000FFF3F00206DB7882E6FD08E6FCEDFEEC37
:10066000FD7F0190000612021754FE90FFF3F08008
:100670002B7882E6FD08E6FCEDFEECFD7F019000A4
:1006800008120217FAEB90FFF1F01208CA400DAD04
:100690003AAE39AF38E41203187C18227882E6FDAE
:1006A00008E6FCEDFEECFD7F0190000812021790B9
:1006B000FFF1F01208CA400DAD3AAE39AF38E4127E
:1006C00003187C18227882E6FD08E6FCEDFEECFDBE
:1006D0007F01900006120217440190FFF3F0788327
:1006E000E62403F618E63400F67880E624FE500986
:1006F00090FFF0E054FDF0800790FFF0E04402F03E
:10070000E490FFF1F0788176007880E624FFFCE445
:1007100034FFFD7881E67F00FEECD39EEF6480CD50
:1007200064809D402F1208AF400F7881E6AD3AAE4D
:1007300039AF381203187C182290FFF2E0FC78825F
:100740008683088682ECF0788106A37882A68308E7
:10075000A68280B51208AF400F7881E6AD3AAE3977
:10076000AF381203187C182290FFF2E0FC788286E2
:1007700083088682ECF07880E6AD3AAE39AF381265
:1007800003187C00228C378D367882EDF608ECF663
:10079000EDFEECFD7F019000051201F57881F67801
:1007A00082E6FD08E6FCEDFEECFD7F019000041200
:1007B00001F5540FFC7D8112176F7881E670037C80
:1007C000082290FFF0E054FEF090FFF0E054FDF0BE
:1007D000801B7882E6FD08E6FCEDFEECFD7F0190D3
:1007E000000812021725E090FFF3F0805B7882E6A4
:1007F000FD08E6FCEDFEECFD7F01900006120217FD
:1008000054FE90FFF3F080217882E6FD08E6FCEDCF
:10081000FEECFD7F01900008120217FAEB90FFF149
:10082000F01208CA40037C18227882E6FD08E6FC34
:10083000EDFEECFD7F0190000812021790FFF1F031
:100840001208CA40037C18227883E6240AF618E6C8
:100850003400F6788076007881E624FFFCE434FFEB
:10086000FD7880E67F00FEECD39EEF6480CD64804F
:100870009D402178828683088682E090FFF1F01205
:1008800008CA40037C1822788006788306E6187030
:10089000010680C390FFF0E04401F078828683086F
:1008A0008682E090FFF1F01208CA40037C18227C97
:1008B000002290FFF0E020E71290FFF0E030E50921
:1008C00090FFF0E04420F0C32280E7D32290FFF0B5
:1008D000E020E31290FFF0E030E50990FFF0E04403
:1008E00020F0C32280E7D3228C428D417C00ED545E
:1008F000F0FDEC7003ED64307005753E0380037508
:100900003E04AC3E120F74758300858340E541546C
:100910000FF53FE5407004E53F64037035E53E2484
:10092000FD75F00AA42402F582E434FCF583E0307E
:10093000E60512105B8019E53E24A1F8E654FBF6AB
:1009400078ADE62405F58218E63400F583740FF0DF
:100950008059E5407004E53F64047048E53E24FD9D
:1009600075F00AA42402F582E434FCF583E030E556
:1009700007AC42AD41121C5CE54230E21578B1E6AD
:1009800030E00F78B1E630E109E4FF04FE7C0412A8
:10099000332978ADE62406F58218E63400F5837431
:1009A0000FF08007E4FC7DEE121C5CC203221232C1
:1009B00014120F7478ADE62406F58218E63400F5BB
:1009C00083E090FC38F078ADE62405F58218E63433
:1009D00000F583E090FC39F0C2037D027C00122513
:1009E00047123297221232147899ECF6EC24A1F8CF
:1009F000E630E1077C131225E0800F90FC39E0FD22
:100A00007899E6FC1213F11225E012329722123285
:100A1000147899ECF67D00120F141225E01232972B
:100A2000221232147899ECF6EC24A1F8E630E207B1
:100A30007C131225E0801B7899E624A1F8E620E1DA
:100A4000077C121225E0800A7899E6FC1214151230
:100A500025E0123297221232147899ECF6EC24A198
:100A6000F8E620E2077C111225E0800A7899E6FC7E
:100A70001215161225E0123297221232147899ECD0
:100A8000F6120F7478ADE62409F58218E63400F505
:100A900083E090FC3FF078ADE6240AF58218E63456
:100AA00000F583E090FC40F078ADE62403F5821871
:100AB000E63400F583E0FC78ADE62404F58218E620
:100AC0003400F583E0F56278ADE62402F58218E69D
:100AD0003400F583E0F5638C61E4EC333354017842
:100AE00099F66008E56230E1037899067899E69016
:100AF000FC41F078ABE62402F58218E63400F58379
:100B0000E0FDA3E0540CFCED54E68C65F564E56172
:100B100030E503436501E56220E50EE561547F7031
:100B200008E56120E703436502E56130E3034365BF
:100B300010E56130E203436520E56154036003433F
:100B40006540E56130E103436580E56130E40343DE
:100B50006401E56130E603436408E56220E40EE5E4
:100B600061547F7008E56120E7034364105365FB1F
:100B70005364F9AD64E56590FC3ACDF0A3CDF0E5A2
:100B80006330E30DE5635430C4540F90FC3DF080B6
:100B900005E490FC3DF0E563540390FC3CF0E56314
:100BA0005404C31390FC3EF090FC3CE0700E7D3585
:100BB0007EFC7F01740190000912014B78ADE624A0
:100BC00008F58218E63400F583E07C00FD78ADE698
:100BD0002407F58218E63400F583E07F004CFEEF31
:100BE0004D90FC38F0A3CEF0CEC2037D0A7C0012FB
:100BF0002547123297221232147899ECF6789E76B5
:100C0000010876FC087638789B760C789E12046E84
:100C100012021D789CCBF6CB08F67F00EF24EA4049
:100C20001FE4EF25E090365AFD93CD0493789D663E
:100C30007003ED18667006789B760080030F80DCE9
:100C4000789AEFF6789E12046E90000212021778DE
:100C50009CCBF6CB08F65404CB54064B6004789B2F
:100C6000760B789DE630E313789E12046E900005B3
:100C70001201F524FB5004789B760D789DE654C054
:100C80007D0064C04D7004789B760B789E12046ED4
:100C90009000041201F524FC5004789B760F789E96
:100CA00012046E9000061201F524FD5004789B7624
:100CB0000E789E12046E9000091201F524FD500476
:100CC000789B760A789BE6702A7899E6FC120F7476
:100CD000789E12046E78ABE6F978AAE6FA7B017486
:100CE0000A7800120348C2037899E6FC12111778BB
:100CF0009BECF6789BE6FC1225E01232972212322A
:100D0000147899ECF6120F747899E624FD75F00AC0
:100D1000A42414F582E434FCF583AC82AD8378AA74
:100D20008683088682ECF9EDFA7B0A78011203B01B
:100D3000C2037899E6FC121117123297228D2B8C80
:100D40002AED60407527017529487528FFE52A249A
:100D5000FDFCE434FFFDEC7C0325E0CD33CDDCF974
:100D6000FCE5292CF529E5283DF528AD29AE28AF6D
:100D700027748090000612032074809000021203F2
:100D800020120FC7E52B14603B75270175290875E4
:100D900028FFE52A24FDFCE434FFFDEC7C0325E07C
:100DA000CD33CDDCF9FCE5292CF529E5283DF528E6
:100DB000AD29AE28AF27E4900006120320E490008E
:100DC00002120320221232147899ECF6EC24A1F8D6
:100DD000E630E2097899E6FC121516D2007899E619
:100DE000FC120F74789A760090FC39E030E70478B2
:100DF0009A7601789AE6FD7899E6FC120D3AC203DC
:100E00003000077899E6FC1214157C001225E012D8
:100E100032972278ADE62404F58218E63400F58393
:100E2000E04401F078ADE62404F58218E63400F5DC
:100E300083E030E00280ED78ADE6240BF58218E621
:100E40003400F583E054F8F078ADE62402F582181A
:100E5000E63400F583E04480F022C2038C58120F80
:100E60007478AA8683088682798B7A367B0A780121
:100E70001203FE120E10AC587D02120D3AC203ACE2
:100E800058121117228D538E528F518C50120F749D
:100E9000754F0078ADE62405F58218E63400F58339
:100EA000E020E41FE54F24F64019054FC2037C18EB
:100EB0001233D790FF93E04401F0B2B3AC50120F5D
:100EC0007480D078ADE62405F58218E63400F58309
:100ED000E020E405C2037C022278ADE62405F58219
:100EE00018E63400F583E0540F601678ADE624056B
:100EF000F58218E63400F583E0540FF0C2037C015C
:100F00002278AC8683088682E0AD53AE52AF511290
:100F10000318C2037C00228D318C30121516E53186
:100F2000600FE530B4030A7C0112250F7C81122585
:100F30000FAC30120F74E531601A78AE86830886E4
:100F400082E054E7F0A3A3A3A3E054E7F0AC307D24
:100F500002120D3A78AA868308868279957A367BC2
:100F60000A78011203FEC203E53024A1F8E654FD1D
:100F7000F6AC30121117228C26300305123376801E
:100F8000F87C0A123289D203E52624FD78A7F67090
:100F90000778AE76FF0876E078A7E67D007C04252A
:100FA000E0CD33CDDCF9FC24A078ADF6ED34FF18AC
:100FB000F678A7E675F00AA42400FCE434FCFD787A
:100FC000AAEDF608ECF61233222278ADE62402F5FB
:100FD0008218E63400F583E030E72278ADE624029B
:100FE000F58218E63400F583E0547FF078ADE6240E
:100FF00002F58218E63400F583E04480F02278AEF2
:101000008683088682E0547FF0AD83E5822404FC69
:10101000E43D8C82F583E0547FF078ADE6240BF557
:101020008218E63400F583E054F8F078AFE6240146
:10103000F58218E63400F583E04403F078AFE62447
:1010400005F58218E63400F583E04403F078ADE658
:101050002405F58218E63400F583740FF02278AE8B
:101060008683088682E0543FF0AD83E5822404FC49
:10107000E43D8C82F583E0543FF078A7E624A8F89D
:10108000E6FC78AFE62401F58218E63400F583EC3F
:10109000F078A7E624A8F8E6FC78AFE62405F58208
:1010A00018E63400F583ECF078ADE6240BF58218F1
:1010B000E63400F583E054FB4402F52678ABE624E1
:1010C00002F58218E63400F583E030E5034326019B
:1010D00078ADE62405F58218E63400F583E030E0CB
:1010E00003120FC7E526FC78ADE6240BF58218E65F
:1010F0003400F583ECF078ADE62405F58218E6348B
:1011000000F583740FF078AE8683088682E0448011
:10111000F0A3A3A3A3E04480F0228C2A120F7478DA
:10112000ABE62408F58218E63400F583E0FC78ADE0
:10113000E6240AF58218E63400F583ECF078ABE695
:101140002407F58218E63400F583E0FC78ADE62448
:1011500009F58218E63400F583ECF078AA86830856
:101160008682E0FDA3E0FCEDFE78ADE62408F58282
:1011700018E63400F583EEF0ECFE78ADE62407F5D2
:101180008218E63400F583EEF08C298D28C3EC94A8
:1011900005ED940C400575277C8033D3E529940137
:1011A000E5289403400575273C8023D3E5299481E5
:1011B000E528940140057527188013D3E52994602C
:1011C000E5289400400575270C8003752708AF2794
:1011D000E4EF547C4483FF8F27E527FC78AFE624B7
:1011E00001F58218E63400F583ECF0E527FC78AFD2
:1011F000E62405F58218E63400F583ECF0E527FCDB
:1012000078A7E624A8F8ECF678ADE62402F5821873
:10121000E63400F583E0F52778ABE62402F5821882
:10122000E63400F583A3E030E3175327C778ABE635
:101230002405F58218E63400F583E0903686934263
:101240002778ABE62402F58218E63400F583E03017
:10125000E70543274080035327BF5327FB78ABE6BE
:101260002406F58218E63400F583E0600343270482
:101270005327FC78ABE62404F58218E63400F583A6
:10128000E04227432780E527FC78ADE62402F5827B
:1012900018E63400F583ECF078ADE62404F5821806
:1012A000E63400F583E0F52778ABE62402F58218F2
:1012B000E63400F583A3E030E1055327DF800343E4
:1012C000272078ABE62402F58218E63400F583E0A7
:1012D00030E4055327EF800343271078ABE6240959
:1012E000F58218E63400F583E0B40203432702E5F3
:1012F00027FC78ADE62404F58218E63400F583EC8B
:10130000F078ADE62403F58218E63400F583E0F5C5
:101310002778ABE62409F58218E63400F583E070FF
:101320000553277F800343278078ABE62402F582AC
:1013300018E63400F583A3E030E00543272080035E
:101340005327DF78ABE62402F58218E63400F583F4
:10135000E030E30543274080035327BF78ABE62402
:1013600002F58218E63400F583E030E005432710EB
:1013700080035327EF78ABE62402F58218E63400A9
:10138000F583A3E030E40543270880035327F7786B
:10139000ABE62402F58218E63400F583A3E030E5DD
:1013A0000543270480035327FB78ABE62402F5822C
:1013B00018E63400F583A3E030E6054327018003F7
:1013C0005327FE78ABE62402F58218E63400F58355
:1013D000A3E030E70543270280035327FDE527FC00
:1013E00078ADE62403F58218E63400F583ECF0C20C
:1013F000037C00228D278C26ED54031460037C109F
:1014000022E527547C24FC40037C0B22E52624A102
:10141000F8E64402F67C00228C30120F74E530248A
:10142000A1F8E620E24FAC307D02120D3AE53024FF
:10143000FE4428FC78AE8683088682ECF0AF83E514
:10144000822404FEE43FFFEC8E828F83F07C038CC9
:101450002CE52CFC78AFE62401F58218E63400F583
:1014600083ECF0E52CFC78AFE62405F58218E63431
:1014700000F583ECF0752D01752F48752EFFE530D2
:1014800024FDFCE434FFFDEC7C0325E0CD33CDDC12
:10149000F9FCE52F2CF52FE52E3DF52E78AFE6244F
:1014A00004F58218E63400F583E054E7F52CAD2FFF
:1014B000AE2EAF2DE4900002120320E4900006123D
:1014C00003201201EF30E503432C10E52CFC78AF2C
:1014D000E62404F58218E63400F583ECF012105B84
:1014E00078ADE62406F58218E63400F583E0C20301
:1014F000FCE53024A1F8E64404F68C2CE530540FCA
:10150000C454F07E00FFEEEF44047D00FFEC4EFC7F
:10151000ED4FFD121CC77C00228C2F120F74120F8E
:10152000FB78AE8683088682E05408F0A3A3A3A3C9
:10153000E05408F0AC2F7D02120D3AC203E52F24CF
:10154000A1F8E654FBF67C0022123214789AECF6ED
:10155000EC24A1F8E630E10A7D007C131225471245
:101560003297789AE624A1F8E64401F6789AE6FCE8
:10157000120F74789AE624FD75F00AA42414F582FB
:10158000E434FCF58378AAE6FA08E6F97B0A7801E8
:101590001203B078AA868308868279957A367B0A08
:1015A00078011203FE120FC7C203789AE6FC1211EB
:1015B000177899ECF6EC600A7D007C08122547123A
:1015C0003297789AE6FC120F7478ADE62404F5821F
:1015D00018E63400F583E0441054DFFC78ADE624CF
:1015E00004F58218E63400F583ECF07899ECF6C245
:1015F000037CC81233D7789AE6FC120F7478ADE6F4
:101600002404F58218E63400F583E054EFF0C203B9
:101610007CC81233D7789AE6FC120F7478ADE624B2
:1016200004F58218E63400F583E04410F0C2037C30
:10163000C81233D7789AE6FC120F7478ADE624040A
:10164000F58218E63400F583E04420F0C2037CF014
:101650001233D7789AE6FC120F7478ADE62405F5BC
:101660008218E63400F583E030E415C203789AE688
:1016700044107F00FE7C0712332912329702173D77
:1016800078ADE62404F58218E63400F583E054CF03
:10169000F0C2037CC81233D7789AE6FC120F747834
:1016A000ADE62404F58218E63400F583E04430F01A
:1016B000C2037CF01233D7789AE6FC120F7478AD2F
:1016C000E62405F58218E63400F583E030E414C220
:1016D00003789AE644107F00FE7C07123329123209
:1016E00097805D78ADE62404F58218E63400F58332
:1016F000E054EFF078ADE62404F58218E63400F506
:1017000083E054DFF0789AE624FD75F00AA42414EF
:10171000F582E434FCF583AC82AD8378AA86830835
:101720008682ECF9EDFA7B0A78011203B0C20378E5
:101730009AE6FC1211177D007C0B12254712329796
:1017400022123214E490FC39F07D027C001225470D
:10175000123297221232147C001225E012329722A4
:10176000743C90FBE0F0743E90FBE0F0E490FC28C9
:10177000F0228D358C34ECB401028003D34002801A
:1017800028B402028003D34008A835E625E0F6809D
:1017900018B404028003D3400AA835E625E025E00A
:1017A000F68006A83576008000228C3C8D3BEDFE4D
:1017B000ECFD7F0175660675670090FC29120477C1
:1017C0001201EFB480028006D3500302187090FC1F
:1017D000291204899000031201F554F0B4300280FC
:1017E00003D3405F90FC291204899000081202176D
:1017F000FAFDEBFE7F0190FC2C120477EECD9036C3
:101800009FFCE493FF740193FEF9EFFA7B01EAFF7A
:10181000E9FEECC39EED9F40259036A1E493FD7454
:101820000193FCEDFEECFD7F01EECDFC90FC2EE083
:10183000D39C90FC2DE09D50057566808033121975
:101840008E802EB460028003D3400BAC3CAD3B12C3
:1018500007828C66801BB41003B34010C3B420030E
:10186000B34009C3B440028003D340007566818051
:10187000008075B481028003D3406B90FC29120470
:10188000899000031201F554F0B430028003D34074
:101890001D90FC29120489900008120217FAFDEB32
:1018A000FE7F0190FC2F1204771218F88036B46086
:1018B000028003D34013753A67E4F539F538AC3C40
:1018C000AD3B1205DE8C66801BB41003B34010C321
:1018D000B42003B34009C3B440028003D340007571
:1018E0006681800080028000E566FC90FC2912047D
:1018F00089EC900002120320AC672290FC291204AC
:10190000899000041201F5600474018001E4A2E0F2
:10191000920190FC29120489ED2403FD50010E90E0
:10192000FC2C12047790FC29120489900005120106
:10193000F5F5679000041201F5540FFC7D6712174E
:101940006FE5677004756608227566007884760016
:101950007884E6C39567503890FC2F1204891201F1
:10196000EFFC90FC2C120489EC12031830010E904D
:10197000FC31E004F090FC307003E004F078840661
:1019800090FC2EE004F090FC2D7003E004F080C089
:101990002290FC2AE0FDA3E0FCEDFEECFD7F01EDD2
:1019A000240AFD50010E90FC3212047790FC29129B
:1019B00004899000041201F5540FB401028003D38E
:1019C000401790FC321204890DED70010E90FC2F2F
:1019D00012047778887601804EB402028003D340E7
:1019E0001990FC32120489ED2402FD50010E90FC86
:1019F0002F12047778887602802DB404028003D3F6
:101A0000401990FC32120489ED2404FD50010E901F
:101A1000FC2F12047778887604800CB400028003CF
:101A2000D340007566082290FC29120489900005B5
:101A30001201F5F567788576007885E6C3956740ED
:101A400003021AF6788676007886E6C37888965080
:101A50007690FC2C1204891201EFFC90FC321204E7
:101A6000921201E9F45CFC1201E9F890FC2F1204D7
:101A700089E8C0E01201EFC8D0E0C8584CFC90FCE7
:101A80002C120489EC1203187887ECF690FC31E0F4
:101A900004F090FC307003E004F009E970010A9052
:101AA000FC3212048090FC29120489900004120177
:101AB000F530E40E90FC2EE004F090FC2D7003E075
:101AC00004F078860680817888E6FDE4FEFFEECD9E
:101AD000FC90FC31E02CF090FC30E03DF07888E6A2
:101AE000FDE4FEFFEECDFC90FC34E02CF090FC33E6
:101AF000E03DF0788506021A367566002222C0E0C5
:101B0000C0F0C082C083C0D0E8C0E0E9C0E0EAC055
:101B1000E0EBC0E0ECC0E0EDC0E0EEC0E0EFC0E024
:101B200090FF92E01201C01B49301B49321B58380C
:101B30001B6A3A1B7C3E1B94441B88461BA0501B0F
:101B4000E2521BC1541C035600001C2490FF92E07B
:101B50007F00FE7C01123329021C34E4FF04FE7C6A
:101B600003123329742090FFFEF0021C34E4FF04BA
:101B7000FE7C02123329744090FFFEF0021C34E414
:101B8000FF04FE7C04123329021C34E4FF04FE7CB3
:101B900005123329021C34E4FF04FE7C06123329AB
:101BA000021C3490FFA5E07D0090FBF8CDF0A3CDA2
:101BB000F090FBF9E0FCF58390FBF8E04433FD1274
:101BC0001CC7807390FFB5E07D0090FBFACDF0A3B9
:101BD000CDF090FBFBE0FCF58390FBFAE04443FD85
:101BE000121CC7805290FFA6E07D0090FBFCCDF058
:101BF000A3CDF090FBFDE0FCF58390FBFCE04434CA
:101C0000FD121CC7803190FFB6E07D0090FBFECD39
:101C1000F0A3CDF090FBFFE0FCF58390FBFEE044E9
:101C200044FD121CC7801090FF92E07D00FCED4443
:101C3000AAFD121CC78000E490FF92F0D0E0FFD014
:101C4000E0FED0E0FDD0E0FCD0E0FBD0E0FAD0E058
:101C5000F9D0E0F8D0D0D083D082D0F0D0E03205F7
:101C600081058105810581A881181818EDF608EC19
:101C7000F690FF5AE020E70280F790FF59E07D00E0
:101C8000A88118CDF6CD08F67D03A881E618FCE6FC
:101C9000CC25E0CC33CCDDF9CCF6CC08F6A8811805
:101CA000E644F8F6A881181818E6FD08E6FCA881B5
:101CB000188683088682EDF0A3ECF0740290FF5A38
:101CC000F0158115811581158122E5812405F581A5
:101CD000E4A88118F6A88118181818EDF608ECF693
:101CE00090FBF5E024F85003021DE8E4A8811818E1
:101CF000F6A88118E6FEA88118181818E6FD08E66F
:101D0000FC7F00EF24F8404DE4EF25E0247DF582D0
:101D1000E434FCF583E0FBA3E06C7003FAEB6D7038
:101D2000097401A8811818F6802BE4EF25E0247DC2
:101D3000F582E434FCF5837A00E054F0CCF8CCCDA5
:101D4000F9CDFB7800E954F0F9EA687002EB6970AC
:101D5000010E0F80AEA88118EEF6A8811818181889
:101D6000EDF608ECF6A881EFF6A8811818E6707970
:101D7000A88118E624F74071A88118181818E654AD
:101D80000FA881F664046017A881E664036010A8B8
:101D90008118181818E6FD08E6FC121C5C804A7CC5
:101DA0000A123289A88118181818E6FD08E6FC9076
:101DB000FBF4E025E0247DF582E434FCF583EDF0CE
:101DC000A3ECF090FBF4E0FFE4EF045407FF90FB7A
:101DD000F4F090FBF5E004F012332290FBF6E07093
:101DE00008E4FEFF7C0F123329802790FBF7E00404
:101DF000F0543F701D90FBF7E044FE7D00FC90FB2B
:101E0000F4E025E0247DF582E434FCF583EDF0A3D5
:101E1000ECF0E58124FBF58122788B7600788C76D6
:101E200000740190FBF6F012321490FBF5E060575D
:101E30007C0A12328990FBF3E025E0247DF582E4F0
:101E400034FCF583E0FDA3E0FC90FBF3E025E02407
:101E50007DF582E434FCF583E4F0A3F090FBF3E03D
:101E6000FFE4EF045407FF90FBF3F090FBF5E01460
:101E7000F07889EDF608ECF61233227889E6FD0851
:101E8000E6FC1208E580A312337690FF93E044014C
:101E9000F0B2B3788B06B6000D788B7600788CE6BE
:101EA000F40404788CF68082E490FBF6F090FBF565
:101EB000E07D00FCED44CFFD121C5C123297221233
:101EC0003214E5706449456F601590FF83E0540F4C
:101ED0007D00D39570ED956F500512305D80031233
:101EE000312D12329722123214E5706449456F6029
:101EF00005123167800E90FF80E04408F090FF8368
:101F0000E0547FF0123297221232148C54EC54F0C9
:101F1000B41015756A357569FC756801E56A2403A6
:101F2000F56AE5693400F569E4F557F556E556C3F9
:101F300094015027E554540FFCAD6AAE69AF6812A6
:101F40000E828C55EC60028012056AE56A7002050B
:101F5000690557E5577002055680D2E554540F24A1
:101F6000A1F8E654FEF6E554540F7F00FE7C1212F1
:101F70003329E5551470097D007C09122547800737
:101F8000AD577C001225471232972212321490FF6F
:101F9000FCE04402F090FF00E030E71390FF83E0A4
:101FA0004480F0436D8090FFFCE04401F08011908C
:101FB000FF82E04408F0536D7F90FFFCE054FEF098
:101FC00090FF81E04480F01225FA90FFFEE0440586
:101FD000F090FFFCE054FDF0123297221232147C94
:101FE000011233D778B1E64402F674FEFC04FD1208
:101FF0001CC790FF5AE030E70280F7E4F54E754DBC
:1020000010AC4EAD4DE54E154E7002154DEC4D60C9
:102010000280EE438701123297221232147C0212A0
:1020200032A378B1E654FDF61232972212321478B8
:10203000B1E630E02C78B1E630E12678B1E6FCF587
:102040008318E644F0FD121C5C90FFFCE04420F095
:102050007C021233D778B1E654FDF6741A90FFFE75
:10206000F078B1E6FCF58318E644F1FD121C5C1231
:10207000329722756D0090FFFFE06003436D01759C
:102080006E00E4F56CF56BE4F56F7570497484903F
:10209000FF82F0748490FF80F0748090FF58F07499
:1020A0008090FF5AF0AD46AF457E00EE24FE50030F
:1020B00002213FE4EE75F007A4247FF582E434F8B2
:1020C000F583E0FFE4EF5480FDE4EF540F14FFEDDF
:1020D0006038E4EF75F008A42448F582E434FFF595
:1020E000837490F0E4EF75F008A4244AF582E43498
:1020F000FFF5837480F0E4EF75F008A4244EF582B8
:10210000E434FFF5837480F08034E4EF75F008A4C4
:102110002408F582E434FFF5837490F0E4EF75F061
:1021200008A4240AF582E434FFF583E4F0E4EF75B3
:10213000F008A4240EF582E434FFF583E4F00E02E7
:1021400020A88D468E448F45747F90FFFDF07490DB
:1021500090FFFCF0228C58EC24F65006E55824370A
:10216000FC22E5582430FC22D2B0D2B1C2B41225F0
:1021700044EC700302227F755C03AE5B7F00E55C7C
:10218000155C6480247F5035EF2400F582E434FB35
:10219000F583E0FE24FE501EEF7D00FCE4FB74742A
:1021A000C39CFAEB9DFBEE7D00FCEAC39CED6480D2
:1021B000CB64809B50028005EF2EFF80C18E5B8F29
:1021C0005AE55C6480247F500302227FE55A248E06
:1021D000500302227F855A5D755B00AE5AAF5B905B
:1021E00036CAE493F55CE55C155C6480247F501886
:1021F000EE2400F582E434FBF583E0FCEF9036CA70
:10220000936C70040E0F80DE8E5A8F5BE55C6480E9
:10221000247F406E755E017560E8755FFFE55D24A3
:1022200002F55A755C07E55C334057AD60AE5FAFB1
:102230005EE55CF5823395E0F5831201F5C4540F39
:10224000FC122152E55A2400F582E434FBF583ECBC
:10225000F0055A055AAD60AE5FAF5EE55CF58233BE
:1022600095E0F5831201F5540FFC122152E55A2432
:1022700000F582E434FBF583ECF0055A055A155C51
:1022800080A4740290F851F090F86B79A37A367BB1
:102290002778011203FE756A357569FC756801E4DB
:1022A00090FF83F0748090FF81F0755902E55975B5
:1022B000F007A4247FF582E434F8F583E07893F600
:1022C000FC540F14FC7893ECF6E55975F007A42440
:1022D00081F582E434F8F583E0789676FD0876E8B7
:1022E000FC7893E675F008A42448F582E434FFF501
:1022F00083E4F07893E675F008A4244FF582E43483
:10230000FFF583ECF07896E6FF08E67E03CFC31373
:10231000CF13DEF9FE7893E675F008A42449F58220
:10232000E434FFF583EEF07893E675F008A4244AD0
:10233000F582E434FFF5837480F07894ECF67D0048
:102340007897E62CF618E63DF67896E6FD08E67CEA
:1023500003CDC313CD13DCF9FC7893E675F008A424
:10236000244DF582E434FFF583ECF07893E675F0C4
:1023700008A4244EF582E434FFF583E4F07896E671
:10238000FD08E6FC7893E6FF7E00EE24FE50030293
:1023900024FEE4EE75F007A4247FF582E434F8F51A
:1023A00083E0FFE4EF5480FAE4EF540F14FFE4EE0F
:1023B00075F007A42481F582E434F8F583E078947D
:1023C000F6E4EE1313548024F0F8E434FDF9E8FC4D
:1023D000E9FD8A5AEA700302246BE4EF75F008A461
:1023E0002448F582E434FFF583E4F07894E6FAE4D7
:1023F000EF75F008A4244FF582E434FFF583EAF08A
:10240000EDFBEC7A03CBC313CB13DAF9FAE4EF75E7
:10241000F008A42449F582E434FFF583EAF07894C7
:10242000E67B00FAEC2AFCED3BFDFBEC7A03CBC328
:1024300013CB13DAF9FAE4EF75F008A4244DF58212
:10244000E434FFF583EAF0E4EF75F008A4244AF5DC
:1024500082E434FFF5837480F0E4EF75F008A4247F
:102460004EF582E434FFF5837480F00224FAE4EF41
:1024700075F008A42408F582E434FFF583E4F078CD
:1024800094E6FAE4EF75F008A4240FF582E434FF33
:10249000F583EAF0EDFBEC7A03CBC313CB13DAF947
:1024A000FAE4EF75F008A42409F582E434FFF5831B
:1024B000EAF07894E67B00FAEC2AFCED3BFDFBECBD
:1024C0007A03CBC313CB13DAF9FAE4EF75F008A45F
:1024D000240DF582E434FFF583EAF0E4EF75F008AB
:1024E000A4240AF582E434FFF583E4F0E4EF75F008
:1024F00008A4240EF582E434FFF583E4F00E0223F1
:10250000878E597896EDF608ECF67893EFF6122060
:1025100070228C26EC30E718E526540F1475F0086D
:10252000A42448F582E434FFF583E054DFF08016FC
:10253000E526540F1475F008A42408F582E434FF4E
:10254000F583E054DFF0227C0022EC90FC37F08C25
:1025500024ED2403F5257D00D39572ED957140039C
:10256000857225E52524B75009752503740290FC72
:1025700037F0AC2512315222E4F56CF56B12257E52
:102580002290FC35E06573600E740490FC37F0E433
:10259000F56B756C0380467D73E4FEFF79357AFC3C
:1025A0007B0174057800120348E56C2403F56CE5A3
:1025B0006B3400F56BE56CD39572E56B9571400655
:1025C00085726C85716BD3E56C9448E56B94004023
:1025D0000C740290FC37F0E4F56B756C03AC6C1274
:1025E000315222EC90FC37F0E4F56CF56B8C32EC58
:1025F000600512314380057C001231522290FF9316
:10260000E04401F0B2B390FF04E0F54A90FF06E029
:10261000FDA3E0ED7D00FC7D00FC90FF06E0FFA344
:10262000E07E00FFE4FEEC4EFCED4FFDC3EC944871
:10263000ED9400502290FF06E0FDA3E0ED7D00FC4C
:102640007D00FC90FF06E0FFA3E07E00FFE4FEECCF
:102650004EFCED4FFD8004E4FD7C488C728D719042
:10266000FF02E0FDA3E0ED7D00FC7D00FC90FF0299
:10267000E0FFA3E07E00FFE4FEEC4EF54CED4FF5ED
:102680004B756A357569FC7568017D357EFC7F0187
:102690007973E4FAFB74057800120348754900E584
:1026A0004924FE4019AD6AAE69AF68E4120318050B
:1026B000490DED70010E8D6A8E698F6880E1756A33
:1026C000357569FC75680178B3E614184660030235
:1026D00027927890E6FF08E6FE788EE4F608F6C3C7
:1026E000788FE6940218E69400501DE4FEFFC3EED6
:1026F00094E8EF940350070EBE00010F80F0788F2E
:1027000006E61870010680D77890EFF608EEF6D24C
:10271000B47890E6FF08E6FE788EE4F608F6C37813
:102720008FE6941E18E69400501DE4FEFFC3EE945D
:10273000E8EF940350070EBE00010F80F0788F067B
:10274000E61870010680D77890EFF608EEF6C2B171
:102750007890E6FF08E6FE788EE4F608F6C3788FF8
:10276000E6943A18E69400501DE4FEFFC3EE94E8A8
:10277000EF940350070EBE00010F80F0788F06E63D
:102780001870010680D77890EFF608EEF6D2B1788F
:10279000B2E4F608F690FF00E05460B40002800650
:1027A000D35003022D9BE54A540FF549E54A548066
:1027B000A2E0920290FF01E012018A000B2D962701
:1027C000D428F22D9629FE2D962AE12B152C7C2C4F
:1027D0007F2CBF2D3F2D6DE56D30E70EE54C454B51
:1027E0007008E572640245716003022D9890FF0045
:1027F000E0541FB400028003D34029E54A6003027D
:1028000028EFAD6AAE69AF68740112031878B1E6BB
:1028100030E00BAD6AAE69AF6874021203187C0237
:1028200012315222B401028003D3401BE56D20E136
:1028300007E54A60030228EFE54A24FE5003022818
:10284000EF7C0212315222B402028006D3500302FE
:1028500028EDE56D20E10DE54A6009E54A648060F8
:10286000030228EFAC4A1231D940030228EFE549B0
:10287000702530021190FF80E05408AD6AAE69AF58
:1028800068120318800F90FF82E05408AD6AAE69A9
:10289000AF68120318803D154930021DE54975F0F7
:1028A00008A42448F582E434FFF583E05408AD6AB7
:1028B000AE69AF68120318801BE54975F008A424BF
:1028C00008F582E434FFF583E05408AD6AAE69AFE1
:1028D00068120318AD6AAE69AF681201EF600BAD04
:1028E0006AAE69AF6874011203187C021231522279
:1028F0008000022D98E56D20E706E57245716003C2
:10290000022D9890FF00E0541FB400028003D340D2
:102910001AE54C14454B7004E54A60030229FB7824
:10292000B1E654FEF67C0012315222B4010280035B
:10293000D3402AE56D20E108E56D20E0030229FB84
:10294000E56D30E004E54A700BE56D30E109E54ADC
:1029500024FE50030229FB7C0012315222B40202F1
:102960008006D350030229F9E54C454B6003022948
:10297000FBAC4A1231D940030229FBE56D20E10787
:10298000E56D20E0028077E56D30E006E549600204
:10299000806CE549700F90FF82E054F7F090FF8063
:1029A000E054F7F022E549B401028003D340097DE9
:1029B000017C03120F148011B402028003D340097A
:1029C0007D017C04120F1480001549300215E54981
:1029D00075F008A42448F582E434FFF583E054F749
:1029E000F08013E54975F008A42408F582E434FF6B
:1029F000F583E054F7F07C00123152228000022D62
:102A000098E56D20E706E57245716003022D989008
:102A1000FF00E0541FB400028003D3401AE54C14B9
:102A2000454B7004E54A6003022ADE78B1E64401B2
:102A3000F67C0012315222B401028003D34029E512
:102A40006D20E108E56D20E003022ADEE56D30E04F
:102A500004E549700BE56D30E108E54924FE5002BC
:102A6000807F7C0012315222B402028003D3406F77
:102A7000E54C454B60028069AC4A1231D940028076
:102A800060E56D20E107E56D20E0028054E54970C6
:102A90001430020990FF80E04408F0800790FF8224
:102AA000E04408F022E56D30E1331549300215E5C8
:102AB0004975F008A42448F582E434FFF583E04426
:102AC00008F08013E54975F008A42408F582E43481
:102AD000FFF583E04408F07C00123152228002802E
:102AE00000022D98E56D20E712E5724571700CE546
:102AF0004A700890FF00E0541F6003022D98E54CD7
:102B000090FFFFF090FFFFE06005436D01800353ED
:102B10006DFE7C0012315222E56D30E70EE5724504
:102B200071600890FF00E0541F6003022D98AD4BC8
:102B3000E54CED7D00FC7D00FCBD00028003022C15
:102B400077B401028003D34032E54A7005E54CFCBE
:102B50006003022C79756A407569F8756801D3E5E0
:102B6000729412E57194004006E4FD7C128004AC7E
:102B700072AD718C708D6F12316722B402028003C6
:102B8000D34059E54A6003022C79E54CFC70277567
:102B90006A527569F8756801D3E5729419E5719404
:102BA000004006E4FD7C198004AC72AD718C708D20
:102BB0006F1231678025756A6B7569F8756801D386
:102BC000E5729427E57194004006E4FD7C278004BB
:102BD000AC72AD718C708D6F12316722B4030280BC
:102BE00006D35003022C77E54CF549700F90FF0493
:102BF000E0FDA3E04D6003022C79801890FB02E019
:102C0000FDA3E0FC90FF05E06C700790FF04E06D11
:102C100060028068E4F570F56F7F00E54914C549EE
:102C2000600FEF2400F582E434FBF583E02FFF8092
:102C3000EA8F4AE54A2400F582E434FBF583E07D1F
:102C400000D39572ED95714006AC72AD71800FE5C1
:102C50004A2400F582E434FBF583E07D00FC8C70AF
:102C60008D6FE54A2400FCE434FBFDFEECFD7F01A2
:102C70008D6A8E698F68123167228000022D98025A
:102C80002D98E56D30E719E5721445717012E54A2B
:102C9000700EE54C454B700890FF00E0541F600338
:102CA000022D98E56D20E008E56D20E103022D98E6
:102CB000756A6EE4F569F568E4F56F04F570123134
:102CC0006722E56D20E727E57245717021E54A70BE
:102CD0001DE54C6402454B600DE54C14454B600608
:102CE000E54C454B700890FF00E0541F6003022D37
:102CF00098E56D20E008E56D20E103022D98854CF4
:102D00006EE56E7010436D01536DFDD2B078B2E484
:102D1000F608F68027E56E64026007E56E1460022F
:102D20008079536DFE436D02E56E64026005E56EC9
:102D300014700978B2E4F60804F6C2B07C001231CF
:102D40005222E56D30E71AE5721445717013E54AB9
:102D5000700FE54C454B700990FF00E0541F146064
:102D6000028038E56D20E10280317C01123152226F
:102D7000E56D20E715E5724571700FE54C454B7028
:102D80000990FF00E0541F146002800FE56D20E100
:102D90000280087C00123152228000023059B44077
:102DA000028006D3500302304F90FF01E090FC35C3
:102DB000F0E54A90FC36F0E490FC37F0E56A240335
:102DC000F56AE5693400F569AD4BE54C856A8285A5
:102DD0006983CDF0A3CDF090FF01E01201C02E0673
:102DE000012E2C022E56032E80042ECE052F0B060C
:102DF0002F31072F57082F83092FA90B2FCF0C2F07
:102E0000DE802FDE810000303CE56D20E7067C058A
:102E10001225E0227D527E367F0279387AFC7B01D2
:102E2000740878001203487D087C0012254722E5CB
:102E30006D20E7067C051225E022E54AB403004038
:102E400010B40500500BE54A7F00FE7C10123329B8
:102E5000227D007C0712254722E56D20E7067C05D0
:102E60001225E022E54AB403004010B40500500BDF
:102E7000E54A7F00FE7C11123329227D007C071277
:102E8000254722E56D20E7067C051225E022E54A6C
:102E9000B405028003D3400AE4FF04FE7C0A123327
:102EA0002922B401028003D3400AE4FF04FE7C0817
:102EB00012332922B403004010B40500500BE54A38
:102EC0007F00FE7C13123329227D007C07122547E8
:102ED00022E56D20E734D3E5729448E57194005003
:102EE00006E572457170067C021225E022E54AB4BF
:102EF0000103B3400BC3B403004009B406005004FF
:102F00001231FF227C071225E02212257E22E56D78
:102F100020E71DE54AB403004010B40500500BE55E
:102F20004A7F00FE7C16123329227C071225E022FC
:102F300012257E22E56D20E71DE54AB4030040100E
:102F4000B40500500BE54A7F00FE7C19123329229C
:102F50007C071225E02212257E22E56D20E72374EE
:102F60008190FF93F0E54AB403004010B40500508F
:102F70000BE54A7F00FE7C17123329227C071225BD
:102F8000E02212257E22E56D20E71DE54AB403000C
:102F90004010B40500500BE54A7F00FE7C18123348
:102FA00029227C071225E02212257E22E56D20E7EA
:102FB0001DE54AB403004010B40500500BE54A7FFC
:102FC00000FE7C15123329227C071225E0221225EF
:102FD0007E22E56D20E7067C071225E02212257E81
:102FE00022E56D30E72090FF00E0541F701090FF45
:102FF00001E0B48005122575800312257E227D0034
:103000007C051225472290FF00E0541F60067C05D6
:103010001225E022D3E5729448E5719400500BC369
:10302000E5729407E571940050067C031225E022B6
:10303000E54AB405041231FF227C071225E022E59F
:103040006D30E7087D007C05122547227C0512259E
:10305000E022B420028003D34000800012312D22F0
:1030600075430090FF83E0540FD395434024E5431C
:1030700024F0F582E434FEF583E0AD6AAE69AF6812
:1030800012031805430DED70010E8D6A8E698F686D
:1030900080D1E5437D00FCC3E5709CF570E56F9D34
:1030A000F56FE570456F6006E490FF83F02290FFB6
:1030B00082E04408F0E4F56F75704990FC35E0B4A7
:1030C00005028003D3404090FC36E0F543B405028E
:1030D0008003D3400AE4FF04FE7C0B12332922B4A0
:1030E00001028003D3400AE4FF04FE7C0912332965
:1030F00022B403004010B40500500BE5437F00FEEE
:103100007C141233292222B480004023B482005060
:103110001E7C357DFC1217A77D008C6C8D6B90FC9E
:1031200037E0600512312D80057C001231522222D9
:1031300090FF83E0547FF090FF82E04408F090FF1E
:1031400080E04408F02290FF82E04408F090FF8085
:10315000E04408F0228C237D008C708D6F756A35F9
:103160007569FC7568011231672290FF83E0547F16
:10317000F0E5706449456F700122C3E5709408E57D
:103180006F94004015752108E5217D00FCC3E570B2
:103190009CF570E56F9DF56F8009857021E4F56FF2
:1031A000757049752200E522C395215026AD6AAE9F
:1031B00069AF681201EFFCE52224F8F582E434FEE1
:1031C000F583ECF005220DED70010E8D6A8E698F8E
:1031D0006880D3E521547F90FF81F0228C487F00E6
:1031E000EF24FD4019E4EF75F007A4247FF582E495
:1031F00034F8F583E065487002D3220F80E28F47F0
:10320000C32285727085716F90FF82E054F7F09051
:10321000FF83E0547FF022C000C001C002C006C09E
:1032200007E5782408F8860653067F7CFF1232896A
:103230007C007D00E57B6046FF90FD95E0547F6E4D
:10324000700FC083C082A3E0FDA3E0FCA3157B80C8
:1032500007A3A3A3DFE68026DF06D082D083801EEB
:10326000E0F8A3E0F9A3E0FAD082D083E8F0A3E984
:10327000F0A3EAF0A3C083C082A3A3A380DA123331
:1032800022D007D006D002D001D0002285A87A75BE
:10329000A888EC70027C3F8C7922E5782408F876C7
:1032A0000012337680FBC000C001C002C006C00718
:1032B000AE047CFF123289E57B6042FF90FD95E011
:1032C000547F6E700BC083C082A3A3A3157B8007BD
:1032D000A3A3A3DFEA8026DF06D082D08380D8E0D4
:1032E000F8A3E0F9A3E0FAD082D083E8F0A3E9F0F4
:1032F000A3EAF0A3C083C082A3A3A380DA7808085E
:103300007918097C01E6547F6E700676007700809C
:103310000608090CBC08EE123322D007D006D002F2
:10332000D001D00022757900857AA822C0F0C08231
:10333000C083C3E57B24E8500512337680F4EC604B
:1033400031903651E493C39C4028C0047CFF123274
:1033500089D004430480E57B75F003A42495F582AD
:10336000E434FDF583ECF0EFA3F0EEA3F0057B125F
:103370003322D083D082D0F022C0047C20D28CD2E1
:103380008DD504FDD0042275A80075880075B8009D
:1033900075F00075D000E4F8900000F608B800FB66
:1033A000020000C3ED940250047D037CE8ECF4FCC1
:1033B000EDF4FD0CBC00010D8C7F8D7E22C3EC94DE
:1033C000BCED940250047D077CD0ECF4FCEDF4FDE0
:1033D0000CBC00010D8C7D8D7C22EC700122C000A4
:1033E000E5782418F8A604E5782408F8C6547FF692
:1033F000E630E703D0002212337680F4C28C857C5D
:103400008C857D8AD28CC0E0C0D0C0F0C082C083E1
:10341000C000C001C002C003C004C005C006C00790
:10342000121AFAE5782408F8E66024E5782410F802
:10343000A681E57875F021A4248DF582E434FCF5AD
:103440008378B4E58104C398F9E6F008A3D9FA7447
:10345000082578F8057808E65480700CE578B407FC
:10346000F3780875780080EFE5782410F88681E518
:103470007875F021A4248DF582E434FCF58378B4CA
:10348000E58104C398F9E0F608A3D9FAD007D0067D
:10349000D005D004D003D002D001D000D083D08298
:1034A000D0F0D0D0D0E032C0E0C0D0C000C001C069
:1034B00002C28E857E8D857F8BD28E781979097AAE
:1034C00007E77004A600800BE6600816E67004E7C4
:1034D0004480F70809DAEAE579601314F579700E8B
:1034E000E5782408F87600123322D28CD28DD002EF
:1034F000D001D000D0D0D0E0327581B3742A90FFD3
:1035000093F0757F30757EF8757D60757CF01205DF
:10351000411235AA12175D90FF93E04401F0B2B357
:103520001235D412338480DA22C0007C01EC2408E6
:10353000F8E660090CBC08F512337680EED0002264
:10354000C0F0C082C083C000C006C007ED2410F8E0
:1035500076C2ED75F021A4248DF582E434FCF58368
:10356000C082C083A3A3E4780DF0A3D8FCEC547F01
:1035700075F002A4241DF582E5F03436F583E4935A
:10358000FE740193F5828E83E493FE740193FFD061
:1035900083D082EFF0A3EEF0ED2408F8EC4480F63F
:1035A000D007D006D000D083D082D0F0227578002A
:1035B000757B007A0879187808760077000809DAB0
:1035C000F8E478087480447FF674014410F5897536
:1035D000B808D2ABD2A9227581B3D28ED28CD2AF29
:1035E000E57B6032FF90FD95E05480602478087997
:1035F00008E0547FFA7B00E6547FB502027BFF08A7
:10360000D9F5EB700CEAF0123526AD04AC02123598
:103610003DA3A3A3DFD212337680C57C017D0022B7
:10362000050004F404F804EC04E804E404F004FCE9
:1036300004A804AC04D804DC04A404A404A404E096
:1036400004C004B804BC04B404CC04C804C404D04A
:1036500004D404B0190103002200480200480E30CF
:103660001420C81AD0180A0C050602030102000132
:10367000CE0181010000C000800060003000180011
:1036800010000800040002000100081828380C058A
:10369000100A0200000000000301100A02000000EE
:1036A0000000FBE0FBF209022700010200A0FA097A
:1036B00004000003FF00000007058102400000072E
:1036C00005010240000007058303020001220354A4
:1036D0000055005300420033003400310030002018
:1036E00000200020002000200020002000200000FA
:0336F000000000D7
:00000001FF
