:10000000C2350002001E021ADBFFFFFFFFFF0232B3
:10001000CBFFFFFFFFFFFFFFFFFFFFFFFFFF0233ED
:10002000767581CE90FDE88583A01234EAEC4D60B0
:100030006A78AB8003760018B89CFA787F800376E4
:100040000018B865FA78208003760018B820FA9076
:10005000FDDDAE83AF8290FBF81200A16005E4F0F5
:10006000A380F690FDE8A88290FDE8A982E8C399F4
:10007000500576000880F69000FF1200AA90010358
:100080001200AA9001071200AA90010B1200C8905A
:1000900001111200C89001171200C875D000123368
:1000A000C802011DEF65827003EE658322E493F8B8
:1000B000740193F9740293FE740393F5828E83E8BE
:1000C00069700122E493F6A30880F4E493FC7401C0
:1000D00093FD740293FE740393FF740493F8740504
:1000E00093F58288831200A1700122E493A3A88370
:1000F000A9828C838D82F0A3AC83AD8288838982B0
:1001000080E32121049280800492ACAE0492FDE849
:1001100004940494FBF304990494FBF304F904F9A4
:1001200080FED0F030F00920F303F68010F7800D48
:1001300030F10920F303F28004F38001F020F4048D
:10014000FCD0E0CC22CCC0E012015A02014BBC0032
:1001500005D0F0ACF022C313DCFC020121BF000982
:10016000ED258275F001F8E622BF010FED2582F53D
:1001700082EE3583F58375F004E022ED258275F07B
:1001800002F8E222D083D082F5F0C3E493A3C5F055
:1001900095F0C0E0C3D0F0E493A395F04012A3A380
:1001A000C3E5F033500205832582F58250020583B2
:1001B000740193C0E0E493C0E022D083D082F5F0D4
:1001C000E49370097401937004A3A3800C740293E8
:1001D00065F06005A3A3A380E7740193C0E0E493F6
:1001E000C0E02212025B0201F21202AF0201F2121F
:1001F00002D30201F230E00720E302E622E72230D8
:10020000E10720E302E222E32230E202E022E4936B
:10021000221202D302021A1202AF02021AABF01229
:100220000224CBC5F0CB2230E01020E306E6F5F047
:1002300008E622E7F5F009E7192230E11020E3068D
:10024000E2F5F008E222E3F5F009E3192230E206D4
:10025000E0F5F0A3E022E493F5F074019322BB00F3
:1002600003740922BB010789828A83740422BB02BA
:100270000789828A83741022740A2202027BBB00DF
:1002800007E92582F8740122BB010DE92582F58278
:10029000EA3583F583740422BB020DE92582F582D9
:1002A000EA3583F583741022E92582F8740222026C
:1002B00002AFBF0005EDF8740122BF01078D828EE9
:1002C00083740422BF02078D828E83741022EDF89E
:1002D0007402220202D3BF0007ED2582F8740122C6
:1002E000BF010DED2582F582EE3583F5837404227E
:1002F000BF020DED2582F582EE3583F58374102261
:10030000ED2582F8740222020307C0E012025B02AC
:10031000031FC0E01202AF02031FC0E01202D302AB
:10032000031F30E00B20E304D0E0F622D0E0F722F8
:1003300030E10B20E304D0E0F222D0E0F322D0E061
:10034000F022C9CDC9CACECACBCFCB120352EDF928
:10035000EEFAEFFB22BB002FBF000AFAEDF8E7F63A
:100360000809DAFA22BF01128D828E83F802036F28
:1003700009A3E7F0D8FA2202037AFAEDF8E7F208C7
:1003800009DAFA22020384BB014DBF001489828A74
:1003900083F9EDF802039608A3E0F6D9FA220203E6
:1003A000A7BF01228D828E83FB08C9C582C9CAC539
:1003B00083CAE0A3C9C582C9CAC583CAF0A3DBEA60
:1003C000D8E8220203CA8D828E83F9EDF8E0F208A4
:1003D000A3D9FA220203D4BB024DBF001289828A3C
:1003E00083F9EDF80203E608A3E493F6D9F922BFF6
:1003F00001238D828E83FB08C9C582C9CAC583CA01
:10040000E493A3C9C582C9CAC583CAF0A3DBE9D8EE
:10041000E72202041989828A83F9EDF8E493F2084D
:10042000A3D9F92202042ABF000DFAEDF8E3F60879
:1004300009DAFA22020434BF01128D828E83F80297
:10044000044109A3E3F0D8FA2202044CFAEDF8E3E0
:10045000F20809DAFA22020456E6FB08E6FA08E690
:10046000F904F61870010622E6FF08E6FE08E6FD2C
:1004700022EFF0A3EEF0A3EDF022EBF0A3EAF0A35D
:10048000E9F022E0FFA3E0FEA3E0FD22E0FBA3E011
:10049000FAA3E0F9220000000000000004F9006166
:1004A00005680026058F00330A0000610A6C0066AB
:1004B000151D00610CF0006109A0006109D7006101
:1004C0000DB700610BE800610A1300610A48006182
:1004D00017150033172800341DF600431EA10044F1
:1004E000200E00441FFC00471EC800471F6D004D32
:1004F0001FBE004F1EEA0058325600617CCC7DFFC3
:10050000121CA72290FFFCE020E72DC2AFAE59AF2E
:1005100058755A20E55A14C55A6019E4FE7F05EE55
:100520004FCE24FFCECF34FFCF6007E490FF92F090
:1005300080ED80E08E598F58221205017D077CB72F
:100540001232727D0F7C6E12328C789D7A06E4F640
:1005500008DAFC7A061205C47C03120E4C12214AFA
:10056000E4FEFF7C0F1231FBD2A8221230E6E490A9
:10057000FC38F090FFF0E030E408740190FC39F0B2
:100580008005E490FC39F07D0A7C001225261231AA
:1005900069221230E690FC39E014700E90FFF0E012
:1005A0004410F07C001225BF801990FC39E0700ED9
:1005B00090FFF0E054EFF07C001225BF80057C171F
:1005C0001225BF1231692290FFF0E054ABF090FF8A
:1005D000F0E04420F0228C378D367882EDF608EC7E
:1005E000F6EDFEECFD7F019000051201EC7880F63F
:1005F0007882E6FD08E6FCEDFEECFD7F019000044C
:100600001201EC540FFC7D801217467880E6700DC5
:10061000AD3AAE39AF38E412030F7C082290FFF0F8
:10062000E054FEF090FFF0E054FDF0801E7882E68A
:10063000FD08E6FCEDFEECFD7F0190000812020EC5
:1006400025E0440190FFF3F00206D07882E6FD0831
:10065000E6FCEDFEECFD7F0190000612020E54FE5A
:1006600090FFF3F0802B7882E6FD08E6FCEDFEECCF
:10067000FD7F0190000812020EFAEB90FFF1F012DC
:1006800008BF400DAD3AAE39AF38E412030F7C1805
:10069000227882E6FD08E6FCEDFEECFD7F0190008D
:1006A0000812020E90FFF1F01208BF400DAD3AAEF5
:1006B00039AF38E412030F7C18227882E6FD08E691
:1006C000FCEDFEECFD7F0190000612020E4401904D
:1006D000FFF3F07883E62403F618E63400F678801A
:1006E000E624FE500990FFF0E054FDF0800790FFF3
:1006F000F0E04402F0E490FFF1F078817600788039
:10070000E624FFFCE434FFFD7881E67F00FEECD3B5
:100710009EEF6480CD64809D402F1208A4400F7826
:1007200081E6AD3AAE39AF3812030F7C182290FF44
:10073000F2E0FC78828683088682ECF0788106A35A
:100740007882A68308A68280B51208A4400F78811B
:10075000E6AD3AAE39AF3812030F7C182290FFF2A3
:10076000E0FC78828683088682ECF07880E6AD3AF9
:10077000AE39AF3812030F7C00228C378D36788269
:10078000EDF608ECF6EDFEECFD7F019000051201A0
:10079000EC7881F67882E6FD08E6FCEDFEECFD7F64
:1007A000019000041201EC540FFC7D811217467871
:1007B00081E670037C082290FFF0E054FEF090FF89
:1007C000F0E054FDF0801B7882E6FD08E6FCEDFECB
:1007D000ECFD7F0190000812020E25E090FFF3F07F
:1007E000805B7882E6FD08E6FCEDFEECFD7F019083
:1007F000000612020E54FE90FFF3F080217882E68C
:10080000FD08E6FCEDFEECFD7F0190000812020EF3
:10081000FAEB90FFF1F01208BF40037C18227882B7
:10082000E6FD08E6FCEDFEECFD7F019000081202FB
:100830000E90FFF1F01208BF40037C18227883E687
:10084000240AF618E63400F6788076007881E624EB
:10085000FFFCE434FFFD7880E67F00FEECD39EEFE2
:100860006480CD64809D402178828683088682E002
:1008700090FFF1F01208BF40037C182278800678C0
:100880008306E61870010680C390FFF0E04401F093
:1008900078828683088682E090FFF1F01208BF40DC
:1008A000037C18227C002290FFF0E020E71290FFEA
:1008B000F0E030E50990FFF0E04420F0C32280E74B
:1008C000D32290FFF0E020E31290FFF0E030E50942
:1008D00090FFF0E04420F0C32280E7D3228C428DC9
:1008E000417C00ED54F0FDEC7003ED643070057553
:1008F0003E038003753E04AC3E120F69758300858C
:100900008340E541540FF53FE5407004E53F640343
:100910007035E53E24FD75F00AA42402F582E43426
:10092000FCF583E030E60512104B8019E53E249D6E
:10093000F8C654FBF678A9E62405F58218E63400DB
:10094000F583740FF08059E5407004E53F6404704E
:1009500048E53E24FD75F00AA42402F582E434FC47
:10096000F583E030E507AC42AD41121C3CE5423076
:10097000E21578ADE630E00F78ADE630E109E4FF4E
:1009800004FE7C041231FB78A9E62406F58218E601
:100990003400F583740FF08007E4FC7DEE121C3CFC
:1009A000C203221230E6120F6978A9E62406F58206
:1009B00018E63400F583E090FC38F078A9E62405C9
:1009C000F58218E63400F583E090FC39F0C2037D2F
:1009D000027C00122526123169221230E67895EC4D
:1009E000F6EC249DF8E630E1077C131225BF800F5A
:1009F00090FC39E0FD7895E6FC1213C81225BF1271
:100A00003169221230E67895ECF67D00120F09125A
:100A100025BF123169221230E67895ECF6EC249D60
:100A2000F8E630E2077C131225BF801B7895E62498
:100A30009DF8E620E1077C121225BF800A7895E632
:100A4000FC1213EC1225BF123169221230E67895A0
:100A5000ECF6EC249DF8E620E2077C111225BF801D
:100A60000A7895E6FC1214ED1225BF1231692212A4
:100A700030E67895ECF6120F6978A9E62409F5823C
:100A800018E63400F583E090FC3FF078A9E6240AEC
:100A9000F58218E63400F583E090FC40F078A9E692
:100AA0002403F58218E63400F583E0FC78A9E624F7
:100AB00004F58218E63400F583E0F56278A9E624AF
:100AC00002F58218E63400F583E0F5638C61E4EC0E
:100AD000333354017895F66008E56230E103789588
:100AE000067895E690FC41F078A7E62402F5821896
:100AF000E63400F583E0FDA3E0540CFCED54E68CF5
:100B000065F564E56130E503436501E56220E50EC6
:100B1000E561547F7008E56120E703436502E56104
:100B200030E303436510E56130E203436520E5618E
:100B300054036003436540E56130E103436580E5AC
:100B40006130E403436401E56130E603436408E592
:100B50006220E40EE561547F7008E56120E70343FD
:100B600064105365FB536479AD64E56590FC3ACD40
:100B7000F0A3CDF0E56330E30DE5635430C4540FCA
:100B800090FC3DF08005E490FC3DF0E5635403905B
:100B9000FC3CF0E5635404C31390FC3EF090FC3C35
:100BA000E0700E7D357EFC7F01740190000912011A
:100BB0004278A9E62408F58218E63400F583E07C43
:100BC00000FD78A9E62407F58218E63400F583E0F5
:100BD0007F004CFEEF4D90FC38F0A3CEF0CEC20368
:100BE0007D0A7C00122526123169221230E67895A2
:100BF000ECF6789A76010876FC0876387897760CC9
:100C0000789A1204651202147898CBF6CB08F67F16
:100C100000EF24EA401FE4EF25E090352CFD93CD52
:100C200004937899667003ED1866700678977600DD
:100C300080030F80DC7896EFF6789A1204659000B6
:100C40000212020E7898CBF6CB08F65404CB5486E9
:100C50004B60047897760B7899E630E313789A1214
:100C600004659000051201EC24FB50047897760D82
:100C70007899E654C07D0064C04D70047897760B77
:100C8000789A1204659000041201EC24FC50047858
:100C900097760F789A1204659000061201EC24FDF5
:100CA00050047897760E789A120465900009120124
:100CB000EC24FD50047897760A7897E6702A7895A8
:100CC000E6FC120F69789A12046578A7E6F978A60F
:100CD000E6FA7B01740A780012033FC2037895E6B6
:100CE000FC1211077897ECF67897E6FC1225BF12F4
:100CF0003169221230E67895ECF6120F697895E6A4
:100D000024FD75F00AA42414F582E434FCF583ACC8
:100D100082AD8378A68683088682ECF9EDFA7B0A99
:100D200078011203A7C2037895E6FC12110712316D
:100D300069228D2B8C2AED60407527017529487535
:100D400028FFE52A24FDFCE434FFFDEC7C0325E0CC
:100D5000CD33CDDCF9FCE5292CF529E5283DF52836
:100D6000AD29AE28AF277480900006120317748057
:100D7000900002120317120FB7E52B14603B752782
:100D8000017529087528FFE52A24FDFCE434FFFDE0
:100D9000EC7C0325E0CD33CDDCF9FCE5292CF529ED
:100DA000E5283DF528AD29AE28AF27E490000612CE
:100DB0000317E4900002120317221230E67895EC34
:100DC000F6EC249DF8E630E2097895E6FC1214ED85
:100DD000D2007895E6FC120F697896760090FC397F
:100DE000E030E704789676017896E6FD7895E6FCA3
:100DF000120D2FC2033000077895E6FC1213EC7C2D
:100E0000001225BF1231692278A9E62404F5821860
:100E1000E63400F583E04401F078A9E62404F58285
:100E200018E63400F583E030E00280ED78A9E6248E
:100E30000BF58218E63400F583E054F8F078A9E663
:100E40002402F58218E63400F583E04480F022C2E3
:100E5000038C58120F6978A68683088682795D7A9A
:100E6000357B0A78011203F5120E05AC587D02128B
:100E70000D2FC203AC58121107228D538E528F5181
:100E80008C50120F69754F0078A9E62405F5821879
:100E9000E63400F583E020E41FE54F24F640190511
:100EA0004FC2037C181232A990FF93E04401F0B2C4
:100EB000B3AC50120F6980D078A9E62405F58218EA
:100EC000E63400F583E020E405C2037C022278A921
:100ED000E62405F58218E63400F583E0540F601629
:100EE00078A9E62405F58218E63400F583E0540F6E
:100EF000F0C2037C012278A88683088682E0AD5385
:100F0000AE52AF5112030FC2037C00228D318C30E0
:100F10001214EDE531600FE530B4030A7C011224B0
:100F2000EE7C811224EEAC30120F69E531601A7844
:100F3000AA8683088682E054E7F0A3A3A3A3E05423
:100F4000E7F0AC307D02120D2F78A68683088682EA
:100F500079677A357B0A78011203F5C203E53024FC
:100F60009DF8C654FDF6AC30121107228C263003D2
:100F70000512324880F87C0A12315BD203E5262440
:100F8000FD78A3F6700778AA76FF0876E078A3E6E6
:100F900075F010A4ADF0FC24A078A9F6ED34FF188C
:100FA000F678A3E675F00AA42400FCE434FCFD788E
:100FB000A6EDF608ECF61231F42278A9E62402F543
:100FC0008218E63400F583E030E72278A9E62402AF
:100FD000F58218E63400F583E0547FF078A9E62422
:100FE00002F58218E63400F583E04480F02278AA06
:100FF0008683088682E0547FF0AD83E5822404FC7A
:10100000E43D8C82F583E0547FF078A9E6240BF56B
:101010008218E63400F583E054F8F078ABE624015A
:10102000F58218E63400F583E04403F078ABE6245B
:1010300005F58218E63400F583E04403F078A9E66C
:101040002405F58218E63400F583740FF02278AA9F
:101050008683088682E0543FF0AD83E5822404FC59
:10106000E43D8C82F583E0543FF078A3E624A4F8B5
:10107000E6FC78ABE62401F58218E63400F583EC53
:10108000F078A3E624A4F8E6FC78ABE62405F58224
:1010900018E63400F583ECF078A9E6240BF5821805
:1010A000E63400F583E054FB4402F52678A7E624F5
:1010B00002F58218E63400F583E030E503432601AB
:1010C00078A9E62405F58218E63400F583E030E0DF
:1010D00003120FB7E526FC78A9E6240BF58218E683
:1010E0003400F583ECF078A9E62405F58218E6349F
:1010F00000F583740FF078AA8683088682E0448026
:10110000F0A3A3A3A3E04480F0228C2A120F6978F5
:10111000A7E62408F58218E63400F583E0FC78A9F8
:10112000E6240AF58218E63400F583ECF078A7E6A9
:101130002407F58218E63400F583E0FC78A9E6245C
:1011400009F58218E63400F583ECF078A68683086A
:101150008682E0FDA3E0FCEDFE78A9E62408F58296
:1011600018E63400F583EEF0ECFE78A9E62407F5E6
:101170008218E63400F583EEF08C298D28C3EC94B8
:1011800005ED940C400575277C8033D3E529940147
:10119000E5289403400575273C8023D3E5299481F5
:1011A000E528940140057527188013D3E52994603C
:1011B000E5289400400575270C8003752708AF27A4
:1011C000E4EF547C4483FF8F27E527FC78ABE624CB
:1011D00001F58218E63400F583ECF0E527FC78ABE6
:1011E000E62405F58218E63400F583ECF0E527FCEB
:1011F00078A3E624A4F8ECF678A9E62402F5821890
:10120000E63400F583E0F52778A7E62402F5821896
:10121000E63400F583A3E030E3175327C778A7E649
:101220002405F58218E63400F583E09035589342A2
:10123000275327FB78A7E62406F58218E63400F545
:1012400083E060034327045327FC78A7E62404F5D2
:101250008218E63400F583E04227432780E527FC27
:1012600078A9E62402F58218E63400F583ECF078DC
:10127000A9E62404F58218E63400F583E0F5277822
:10128000A7E62402F58218E63400F583A3E030E1F6
:10129000055327DF800343272078A7E62402F58241
:1012A00018E63400F583E030E4055327EF8003436C
:1012B000271078A7E62409F58218E63400F583E0C4
:1012C000B40203432702E527FC78A9E62404F5824B
:1012D00018E63400F583ECF078A9E62403F58218CB
:1012E000E63400F583E0F52778A7E62409F58218AF
:1012F000E63400F583E0700553277F8003432780A1
:1013000078A7E62402F58218E63400F583A3E030DE
:10131000E00543272080035327DF78A7E62402F562
:101320008218E63400F583E030E30543274080036C
:101330005327BF78A7E62402F58218E63400F58328
:10134000E030E00543271080035327EF78A7E62419
:1013500002F58218E63400F583A3E030E405432764
:101360000880035327F778A7E62402F58218E634AD
:1013700000F583A3E030E50543270480035327FBF2
:1013800078A7E62402F58218E63400F583A3E0305E
:10139000E60543270180035327FE78A7E62402F5DC
:1013A0008218E63400F583A3E030E7054327028086
:1013B000035327FDE527FC78A9E62403F58218E608
:1013C0003400F583ECF0C2037C00228D278C26EDDF
:1013D00054031460037C1022E527547C24FC400352
:1013E0007C0B22E526249DF8C64402F67C00228C64
:1013F00030120F69E530249DF8E620E24FAC307DD5
:1014000002120D2FE53024FE4428FC78AA868308BA
:101410008682ECF0AF83E5822404FEE43FFFEC8E8D
:10142000828F83F07C038C2CE52CFC78ABE62401C6
:10143000F58218E63400F583ECF0E52CFC78ABE699
:101440002405F58218E63400F583ECF0752D01755E
:101450002F48752EFFE53024FDFCE434FFFDEC7CC5
:101460000325E0CD33CDDCF9FCE52F2CF52FE52E5F
:101470003DF52E78ABE62404F58218E63400F583BA
:10148000E054E7F52CAD2FAE2EAF2DE49000021204
:101490000317E49000061203171201E630E5034338
:1014A0002C10E52CFC78ABE62404F58218E6340019
:1014B000F583ECF012104B78A9E62406F58218E6C5
:1014C0003400F583E0C203FCE530249DF8C64404F3
:1014D000F68C2CE530540FC454F07E00FFEEEF4440
:1014E000047D00FFEC4EFCED4FFD121CA77C00229A
:1014F0008C2F120F69120FEB78AA8683088682E080
:101500005408F0A3A3A3A3E05408F0AC2F7D02126B
:101510000D2FC203E52F249DF8C654FBF67C002254
:101520001230E67896ECF6EC249DF8E630E10A7D80
:10153000007C131225261231697896E6249DF8C6A0
:101540004401F67896E6FC120F697896E624FD755C
:10155000F00AA42414F582E434FCF58378A6E6FAB4
:1015600008E6F97B0A78011203A778A68683088625
:101570008279677A357B0A78011203F5120FB7C2B8
:10158000037896E6FC1211077895ECF6EC600A7D7C
:10159000007C081225261231697896E6FC120F6944
:1015A00078A9E62404F58218E63400F583E04410B7
:1015B00054DFFC78A9E62404F58218E63400F583AC
:1015C000ECF07895ECF6C2037CC81232A97896E666
:1015D000FC120F6978A9E62404F58218E63400F5B8
:1015E00083E054EFF0C2037CC81232A97896E6FC7F
:1015F000120F6978A9E62404F58218E63400F58311
:10160000E04410F0C2037CC81232A97896E6FC12BE
:101610000F6978A9E62404F58218E63400F583E022
:101620004420F0C2037CF01232A97896E6FC120F37
:101630006978A9E62405F58218E63400F583E030E0
:10164000E415C2037896E644107F00FE7C07123151
:10165000FB12316902171478A9E62404F58218E612
:101660003400F583E054CFF0C2037CC81232A9786D
:1016700096E6FC120F6978A9E62404F58218E63490
:1016800000F583E04430F0C2037CF01232A9789672
:10169000E6FC120F6978A9E62405F58218E6340005
:1016A000F583E030E414C2037896E644107F00FE30
:1016B0007C071231FB123169805D78A9E62404F5BC
:1016C0008218E63400F583E054EFF078A9E62404AC
:1016D000F58218E63400F583E054DFF07896E624CE
:1016E000FD75F00AA42414F582E434FCF583AC8281
:1016F000AD8378A68683088682ECF9EDFA7B0A78BA
:10170000011203A7C2037896E6FC1211077D007C44
:101710000B122526123169221230E6E490FC39F0D2
:101720007D027C00122526123169221230E67C00EF
:101730001225BF12316922743C90FBE0F0743E9098
:10174000FBE0F0E490FC28F0228D358C34ECB40101
:10175000028003D340028028B402028003D34008F1
:10176000A835C625E0F68018B404028003D3400AE9
:10177000A835C625E025E0F68006A835760080006D
:10178000228C3C8D3BEDFEECFD7F01756606756796
:101790000090FC2912046E1201E6B480028006D388
:1017A000500302184790FC29120480900003120194
:1017B000EC54F0B430028003D3405F90FC29120453
:1017C0008090000812020EFAFDEBFE7F0190FC2CC7
:1017D00012046EEECD903571FCE493FF740193FE1C
:1017E000F9EFFA7B01EAFFE9FEECC39EED9F40258D
:1017F000903573E493FD740193FCEDFEECFD7F01E5
:10180000EECDFC90FC2EE0D39C90FC2DE09D50058D
:101810007566808033121965802EB460028003D310
:10182000400BAC3CAD3B1207778C66801BB41003B9
:10183000B34010C3B42003B34009C3B440028003D3
:10184000D3400075668180008075B481028003D327
:10185000406B90FC291204809000031201EC54F0BC
:10186000B430028003D3401D90FC29120480900004
:101870000812020EFAFDEBFE7F0190FC2F12046E9F
:101880001218CF8036B460028003D34013753A67D4
:10189000E4F539F538AC3CAD3B1205D38C66801BC2
:1018A000B41003B34010C3B42003B34009C3B44021
:1018B000028003D34000756681800080028000E5CD
:1018C00066FC90FC29120480EC900002120317AC15
:1018D000672290FC291204809000041201EC60043D
:1018E00074018001E4A2E0920190FC29120480EDD1
:1018F0002403FD50010E90FC2C12046E90FC291262
:1019000004809000051201ECF5679000041201ECD0
:10191000540FFC7D67121746E56770047566082250
:10192000756600788476007884E6C39567503890B1
:10193000FC2F1204801201E6FC90FC2C120480ECB7
:1019400012030F30010E90FC31E004F090FC307077
:1019500003E004F078840690FC2EE004F090FC2D67
:101960007003E004F080C02290FC2AE0FDA3E0FCBC
:10197000EDFEECFD7F01ED240AFD50010E90FC32DE
:1019800012046E90FC291204809000041201EC54A1
:101990000FB401028003D3401790FC321204800D73
:1019A000ED70010E90FC2F12046E78887601804E47
:1019B000B402028003D3401990FC32120480ED245B
:1019C00002FD50010E90FC2F12046E788876028082
:1019D0002DB404028003D3401990FC32120480ED30
:1019E0002404FD50010E90FC2F12046E78887604BA
:1019F000800CB400028003D340007566082290FC7E
:101A0000291204809000051201ECF56778857600B4
:101A10007885E6C395674003021ACD78867600780C
:101A200086E6C3788896507690FC2C1204801201CA
:101A3000E6FC90FC321204891201E0F45CFC120115
:101A4000E0F890FC2F120480E8C0E01201E6C8D054
:101A5000E0C8584CFC90FC2C120480EC12030F7868
:101A600087ECF690FC31E004F090FC307003E00469
:101A7000F009E970010A90FC3212047790FC2912F7
:101A800004809000041201EC30E40E90FC2EE0047F
:101A9000F090FC2D7003E004F07886068081788851
:101AA000E6FDE4FEFFEECDFC90FC31E02CF090FC76
:101AB00030E03DF07888E6FDE4FEFFEECDFC90FCE2
:101AC00034E02CF090FC33E03DF0788506021A0DEE
:101AD00075660022E53D053D047002B2B022C0E00B
:101AE000C0F0C082C083C0D0E8C0E0E9C0E0EAC076
:101AF000E0EBC0E0ECC0E0EDC0E0EEC0E0EFC0E045
:101B000090FF92E01201B71B29301B29321B383895
:101B10001B4A3A1B5C3E1B74441B68461B80501BCF
:101B2000C2521BA1541BE35600001C0490FF92E01C
:101B30007F00FE7C011231FB021C14E4FF04FE7CDA
:101B4000031231FB742090FFFEF0021C14E4FF042A
:101B5000FE7C021231FB744090FFFEF0021C14E484
:101B6000FF04FE7C041231FB021C14E4FF04FE7C23
:101B7000051231FB021C14E4FF04FE7C061231FB4B
:101B8000021C1490FFA5E07D0090FBF8CDF0A3CDE2
:101B9000F090FBF9E0FCF58390FBF8E04433FD1294
:101BA0001CA7807390FFB5E07D0090FBFACDF0A3F9
:101BB000CDF090FBFBE0FCF58390FBFAE04443FDA5
:101BC000121CA7805290FFA6E07D0090FBFCCDF098
:101BD000A3CDF090FBFDE0FCF58390FBFCE04434EA
:101BE000FD121CA7803190FFB6E07D0090FBFECD7A
:101BF000F0A3CDF090FBFFE0FCF58390FBFEE0440A
:101C000044FD121CA7801090FF92E07D00FCED4483
:101C1000AAFD121CA78000E490FF92F0D0E0FFD054
:101C2000E0FED0E0FDD0E0FCD0E0FBD0E0FAD0E078
:101C3000F9D0E0F8D0D0D083D082D0F0D0E0320517
:101C400081058105810581A881181818EDF608EC39
:101C5000F690FF5AE020E70280F790FF59E07D0000
:101C6000A88118CDF6CD08F67D03A881E618FCE61C
:101C7000CC25E0CC33CCDDF9CCF6CC08F6A8811825
:101C8000E644F8F6A881181818E6FD08E6FCA881D5
:101C9000188683088682EDF0A3ECF0740290FF5A58
:101CA000F0158115811581158122E5812405F581C5
:101CB000E4A88118F6A88118181818EDF608ECF6B3
:101CC00090FBF5E024F85003021DC8E4A881181821
:101CD000F6A88118E6FEA88118181818E6FD08E68F
:101CE000FC7F00EF24F8404DE4EF25E0247DF582F1
:101CF000E434FCF583E0FBA3E06C7003FAEB6D7059
:101D0000097401A8811818F6802BE4EF25E0247DE2
:101D1000F582E434FCF5837A00E054F0CCF8CCCDC5
:101D2000F9CDFB7800E954F0F9EA687002EB6970CC
:101D3000010E0F80AEA88118EEF6A88118181818A9
:101D4000EDF608ECF6A881EFF6A8811818E6707990
:101D5000A88118E624F74071A88118181818E654CD
:101D60000FA881F664046017A881E664036010A8D8
:101D70008118181818E6FD08E6FC121C3C804A7C05
:101D80000A12315BA88118181818E6FD08E6FC90C5
:101D9000FBF4E025E0247DF582E434FCF583EDF0EE
:101DA000A3ECF090FBF4E0FFE4EF045407FF90FB9A
:101DB000F4F090FBF5E004F01231F490FBF6E070E3
:101DC00008E4FEFF7C0F1231FB802790FBF7E00454
:101DD000F0543F701D90FBF7E044FE7D00FC90FB4B
:101DE000F4E025E0247DF582E434FCF583EDF0A3F6
:101DF000ECF0E58124FBF58122788B7600788C76F7
:101E000000740190FBF6F01230E690FBF5E06057AD
:101E10007C0A12315B90FBF3E025E0247DF582E43F
:101E200034FCF583E0FDA3E0FC90FBF3E025E02427
:101E30007DF582E434FCF583E4F0A3F090FBF3E05D
:101E4000FFE4EF045407FF90FBF3F090FBF5E01480
:101E5000F07889EDF608ECF61231F47889E6FD08A1
:101E6000E6FC1208DA80A312324890FF93E04401A6
:101E7000F0B2B3788B06B60011788B7600788CE6DA
:101E8000F40404A2E092B4788CF6021E07E490FBFE
:101E9000F6F090FBF5E07D00FCED44CFFD121C3C1C
:101EA000123169221230E6E5706449456F60159081
:101EB000FF83E0540F7D00D39570ED956F500512B0
:101EC0002F2F8003122FFF123169221230E6E570A6
:101ED0006449456F6005123039800E90FF80E04400
:101EE00008F090FF83E0547FF0123169221230E64F
:101EF0008C54EC54F0B41015756A357569FC75682E
:101F000001E56A2403F56AE5693400F569E4F557EB
:101F1000F556E556C394015027E554540FFCAD6ABD
:101F2000AE69AF68120E778C55EC60028012056ABC
:101F3000E56A700205690557E5577002055680D2BB
:101F4000E554540F249DF8C654FEF6E554540F7F13
:101F500000FE7C121231FBE5551470097D007C09EE
:101F60001225268007AD577C0012252612316922E2
:101F70001230E690FFFCE04402F090FF00E030E712
:101F80001390FF83E04480F0436D8090FFFCE044B9
:101F900001F0801190FF82E04408F0536D7F90FFC4
:101FA000FCE054FEF090FF81E04480F01225D990CF
:101FB000FFFEE04405F090FFFCE054FDF0123169B3
:101FC000221230E67C011232A978ADE64402F674A2
:101FD000FEFC04FD121CA790FF5AE030E70280F7D8
:101FE000E4F54E754D10AC4EAD4DE54E154E7002FC
:101FF000154DEC4D600280EE4387011231692212CB
:1020000030E67C0212317578ADE654FDF612316986
:10201000221230E678ADE630E02C78ADE630E126ED
:1020200078ADE6FCF58318E644F0FD121C3C90FF09
:10203000FCE04420F07C021232A978ADE654FDF6B3
:10204000741A90FFFEF078ADE6FCF58318E644F1D3
:10205000FD121C3C12316922756D0090FFFFE0609B
:1020600003436D01756E00E4F56CF56BE4F56F7577
:102070007049748490FF82F0748490FF80F07480C3
:1020800090FF58F0748090FF5AF0AD46AF457E0047
:10209000EE24FE5003022124E4EE75F007A4247F11
:1020A000F582E434F8F583E0FFE4EF5480FDE4EFDB
:1020B000540F14FFED6038E4EF75F008A42448F5E0
:1020C00082E434FFF5837490F0E4EF75F008A42403
:1020D0004AF582E434FFF5837480F0E4EF75F0088C
:1020E000A4244EF582E434FFF5837480F08034E458
:1020F000EF75F008A42408F582E434FFF5837490AA
:10210000F0E4EF75F008A4240AF582E434FFF583C7
:10211000E4F0E4EF75F008A4240EF582E434FFF552
:1021200083E4F00E02208D8D468E448F45747F909F
:10213000FFFDF0749090FFFCF0228C58EC24F650D8
:1021400006E5582437FC22E5582430FC22122523CA
:10215000EC700302225E755C03AE5B7F00E55C15EC
:102160005C6480247F5035EF2400F582E434FBF575
:1021700083E0FE24FE501EEF7D00FCE4FB7474C37C
:102180009CFAEB9DFBEE7D00FCEAC39CED6480CBEA
:1021900064809B50028005EF2EFF80C18E5B8F5ABA
:1021A000E55C6480247F500302225EE55A248E5051
:1021B0000302225E855A5D755B00AE5AAF5B9035B7
:1021C0009CE493F55CE55C155C6480247F5018EE1C
:1021D0002400F582E434FBF583E0FCEF90359C931A
:1021E0006C70040E0F80DE8E5A8F5BE55C64802479
:1021F0007F406E755E017560E8755FFFE55D2402E6
:10220000F55A755C07E55C334057AD60AE5FAF5E75
:10221000E55CF5823395E0F5831201ECC4540FFCC4
:10222000122137E55A2400F582E434FBF583ECF003
:10223000055A055AAD60AE5FAF5EE55CF582339539
:10224000E0F5831201EC540FFC122137E55A24000B
:10225000F582E434FBF583ECF0055A055A155C80F1
:10226000A4740290F851F090F86B79757A357B2759
:1022700078011203F5756A357569FC756801E4909B
:10228000FF83F0748090FF81F0755902E55975F075
:1022900007A4247FF582E434F8F583E0788FF6FC18
:1022A000540F14FC788FECF6E55975F007A42481DF
:1022B000F582E434F8F583E0789276FD0876E8FC60
:1022C000788FE675F008A42448F582E434FFF5839E
:1022D000E4F0788FE675F008A4244FF582E434FF2B
:1022E000F583ECF07892E6FF08E67E03CFC313CFC8
:1022F00013DEF9FE788FE675F008A42449F582E430
:1023000034FFF583EEF0788FE675F008A4244AF5E3
:1023100082E434FFF5837480F07890ECF67D0078E9
:1023200093E62CF618E63DF67892E6FD08E67C0387
:10233000CDC313CD13DCF9FC788FE675F008A42427
:102340004DF582E434FFF583ECF0788FE675F00804
:10235000A4244EF582E434FFF583E4F07892E6FDA0
:1023600008E6FC788FE6FF7E00EE24FE5003022490
:10237000DDE4EE75F007A4247FF582E434F8F583FC
:10238000E0FFE4EF5480FAE4EF540F14FFE4EE753D
:10239000F007A42481F582E434F8F583E07890F620
:1023A000E4EE1313548024F0F8E434FDF9E8FCE97A
:1023B000FD8A5AEA700302244AE4EF75F008A42467
:1023C00048F582E434FFF583E4F07890E6FAE4EF30
:1023D00075F008A4244FF582E434FFF583EAF0EDAC
:1023E000FBEC7A03CBC313CB13DAF9FAE4EF75F005
:1023F00008A42449F582E434FFF583EAF07890E6F6
:102400007B00FAEC2AFCED3BFDFBEC7A03CBC3131B
:10241000CB13DAF9FAE4EF75F008A4244DF582E461
:1024200034FFF583EAF0E4EF75F008A4244AF5825E
:10243000E434FFF5837480F0E4EF75F008A4244ED3
:10244000F582E434FFF5837480F00224D9E4EF755B
:10245000F008A42408F582E434FFF583E4F07890D2
:10246000E6FAE4EF75F008A4240FF582E434FFF5F2
:1024700083EAF0EDFBEC7A03CBC313CB13DAF9FA62
:10248000E4EF75F008A42409F582E434FFF583EA4B
:10249000F07890E67B00FAEC2AFCED3BFDFBEC7A51
:1024A00003CBC313CB13DAF9FAE4EF75F008A424D5
:1024B0000DF582E434FFF583EAF0E4EF75F008A44B
:1024C000240AF582E434FFF583E4F0E4EF75F008C4
:1024D000A4240EF582E434FFF583E4F00E022366B3
:1024E0008E597892EDF608ECF6788FEFF6122055BB
:1024F000228C26EC30E718E526540F1475F008A45A
:102500002448F582E434FFF583E054DFF08016E5DB
:1025100026540F1475F008A42408F582E434FFF55E
:1025200083E054DFF0227C0022EC90FC37F08C2416
:10253000ED2403F5257D00D39572ED95714003855B
:102540007225E52524B75009752503740290FC37E0
:10255000F0AC2512302422E4F56CF56B12255D22D7
:1025600090FC35E06573600E740490FC37F0E4F580
:102570006B756C0380467D73E4FEFF79357AFC7BD6
:10258000017405780012033FE56C2403F56CE56BDC
:102590003400F56BE56CD39572E56B95714006855B
:1025A000726C85716BD3E56C9448E56B9400400CBC
:1025B000740290FC37F0E4F56B756C03AC6C123070
:1025C0002422EC90FC37F0E4F56CF56B8C32EC6077
:1025D0000512301580057C001230242290FF93E014
:1025E0004401F0B2B390FF04E0F54A90FF06E0FD2D
:1025F000A3E0ED7D00FC7D00FC90FF06E0FFA3E082
:102600007E00FFE4FEEC4EFCED4FFDC3EC9448ED84
:102610009400502290FF06E0FDA3E0ED7D00FC7DDC
:1026200000FC90FF06E0FFA3E07E00FFE4FEEC4E1E
:10263000FCED4FFD8004E4FD7C488C728D7190FFB1
:1026400002E0FDA3E0ED7D00FC7D00FC90FF02E0D8
:10265000FFA3E07E00FFE4FEEC4EF54CED4FF54BA2
:10266000756A357569FC7568017D357EFC7F017979
:1026700073E4FAFB7405780012033F754900E549DD
:1026800024FE4019AD6AAE69AF68E412030F054934
:102690000DED70010E8D6A8E698F6880E1756A3567
:1026A0007569FC75680190FF00E05460B400028019
:1026B00006D35003022C6DE54A540FF549E54A5400
:1026C00080A2E0920290FF01E0120181000B2C68D1
:1026D00026E528032C68290F2C6829F22A262B8D41
:1026E0002B902BD02C112C3FE56D30E70EE54C459F
:1026F0004B7008E572640245716003022C6A90FF1A
:1027000000E0541FB400028003D34029E54A60036F
:10271000022800AD6AAE69AF68740112030F78AD8C
:10272000E630E00BAD6AAE69AF68740212030F7C4D
:102730000212302422B401028003D3401BE56D2035
:10274000E107E54A6003022800E54A24FE5003023F
:1027500028007C0212302422B402028006D35003E7
:102760000227FEE56D20E10DE54A6009E54A648037
:102770006003022800AC4A1230AB4003022800E597
:1027800049702530021190FF80E05408AD6AAE69AF
:10279000AF6812030F800F90FF82E05408AD6AAE5D
:1027A00069AF6812030F803D154930021DE5497578
:1027B000F008A42448F582E434FFF583E05408AD22
:1027C0006AAE69AF6812030F801BE54975F008A473
:1027D0002408F582E434FFF583E05408AD6AAE695D
:1027E000AF6812030FAD6AAE69AF681201E6600B05
:1027F000AD6AAE69AF68740112030F7C0212302417
:10280000228000022C6AE56D20E706E572457160C2
:1028100003022C6A90FF00E0541FB400028003D32F
:10282000401AE54C14454B7004E54A600302290C3C
:1028300078ADE654FEF67C0012302422B40102800A
:1028400003D3402AE56D20E108E56D20E00302296D
:102850000CE56D30E004E54A700BE56D30E109E50B
:102860004A24FE500302290C7C0012302422B402B8
:10287000028006D3500302290AE54C454B6003024F
:10288000290CAC4A1230AB400302290CE56D20E163
:1028900007E56D20E0028077E56D30E006E54960F0
:1028A00002806CE549700F90FF82E054F7F090FFD2
:1028B00080E054F7F022E549B401028003D34009D7
:1028C0007D017C03120F098011B402028003D34002
:1028D000097D017C04120F0980001549300215E5BD
:1028E0004975F008A42448F582E434FFF583E054E8
:1028F000F7F08013E54975F008A42408F582E43464
:10290000FFF583E054F7F07C0012302422800002AF
:102910002C6AE56D20E706E57245716003022C6ABA
:1029200090FF00E0541FB400028003D3401AE54C2E
:1029300014454B7004E54A60030229EF78ADE64484
:1029400001F67C0012302422B401028003D3402916
:10295000E56D20E108E56D20E0030229EFE56D302B
:10296000E004E549700BE56D30E108E54924FE50CF
:1029700002807F7C0012302422B402028003D34004
:102980006FE54C454B60028069AC4A1230AB4002A7
:102990008060E56D20E107E56D20E0028054E549A7
:1029A000701430020990FF80E04408F0800790FF27
:1029B00082E04408F022E56D30E13315493002151C
:1029C000E54975F008A42448F582E434FFF583E076
:1029D0004408F08013E54975F008A42408F582E462
:1029E00034FFF583E04408F07C001230242280029A
:1029F0008000022C6AE56D20E712E5724571700CCB
:102A0000E54A700890FF00E0541F6003022C6AE55D
:102A10004C90FFFFF090FFFFE06005436D018003E5
:102A2000536DFE7C0012302422E56D30E70EE57216
:102A30004571600890FF00E0541F6003022C6AADEE
:102A40004BE54CED7D00FC7D00FCBD0002800302E7
:102A50002B88B401028003D34032E54A7005E54C6F
:102A6000FC6003022B8A756A407569F8756801D3AA
:102A7000E5729412E57194004006E4FD7C12800436
:102A8000AC72AD718C708D6F12303922B40202803D
:102A900003D34059E54A6003022B8AE54CFC7027BA
:102AA000756A527569F8756801D3E5729419E57114
:102AB00094004006E4FD7C198004AC72AD718C700A
:102AC0008D6F1230398025756A6B7569F8756801EC
:102AD000D3E5729427E57194004006E4FD7C2780DD
:102AE00004AC72AD718C708D6F12303922B4030258
:102AF0008006D35003022B88E54CF549700F90FFF8
:102B000004E0FDA3E04D6003022B8A801890FB02D5
:102B1000E0FDA3E0FC90FF05E06C700790FF04E08F
:102B20006D60028068E4F570F56F7F00E54914C5BB
:102B300049600FEF2400F582E434FBF583E02FFFBA
:102B400080EA8F4AE54A2400F582E434FBF583E00D
:102B50007D00D39572ED95714006AC72AD71800F1A
:102B6000E54A2400F582E434FBF583E07D00FC8C2B
:102B7000708D6FE54A2400FCE434FBFDFEECFD7F24
:102B8000018D6A8E698F68123039228000022C6AAA
:102B9000022C6AE56D30E719E5721445717012E593
:102BA0004A700EE54C454B700890FF00E0541F60E2
:102BB00003022C6AE56D20E008E56D20E103022C9C
:102BC0006A756A6EE4F569F568E4F56F04F57012EC
:102BD000303922E56D20E712E5724571700CE54A47
:102BE000700890FF00E0541F6003022C6AE56D201E
:102BF000E007E56D20E1028074854C6EE56E70089B
:102C0000436D01536DFD8006536DFE436D027C00E4
:102C100012302422E56D30E71AE572144571701305
:102C2000E54A700FE54C454B700990FF00E0541FDA
:102C30001460028038E56D20E10280317C011230A1
:102C40002422E56D20E715E5724571700FE54C45CE
:102C50004B700990FF00E0541F146002800FE56D77
:102C600020E10280087C00123024228000022F2BF9
:102C7000B440028006D35003022F2190FF01E09060
:102C8000FC35F0E54A90FC36F0E490FC37F0E56A5C
:102C90002403F56AE5693400F569AD4BE54C856AB6
:102CA00082856983CDF0A3CDF090FF01E01201B7DA
:102CB0002CD8012CFE022D28032D52042DA0052D09
:102CC000DD062E03072E29082E55092E7B0B2EA17B
:102CD0000C2EB0802EB08100002F0EE56D20E7068F
:102CE0007C051225BF227D247E357F0279387AFC4F
:102CF0007B017408780012033F7D087C00122526B2
:102D000022E56D20E7067C051225BF22E54AB403C3
:102D1000004010B40500500BE54A7F00FE7C101205
:102D200031FB227D007C0712252622E56D20E70677
:102D30007C051225BF22E54AB403004010B405000B
:102D4000500BE54A7F00FE7C111231FB227D007C96
:102D50000712252622E56D20E7067C051225BF22F5
:102D6000E54AB405028003D3400AE4FF04FE7C0A6E
:102D70001231FB22B401028003D3400AE4FF04FEB7
:102D80007C081231FB22B403004010B40500500B44
:102D9000E54A7F00FE7C131231FB227D007C071286
:102DA000252622E56D20E734D3E5729448E5719439
:102DB000005006E572457170067C021225BF22E5BF
:102DC0004AB40103B3400BC3B403004009B4060086
:102DD00050041230D1227C071225BF2212255D2219
:102DE000E56D20E71DE54AB403004010B40500502E
:102DF0000BE54A7F00FE7C161231FB227C07122570
:102E0000BF2212255D22E56D20E71DE54AB40300CF
:102E10004010B40500500BE54A7F00FE7C191231CA
:102E2000FB227C071225BF2212255D22E56D20E7DB
:102E300023748190FF93F0E54AB403004010B40579
:102E400000500BE54A7F00FE7C171231FB227C0705
:102E50001225BF2212255D22E56D20E71DE54AB44B
:102E600003004010B40500500BE54A7F00FE7C18BB
:102E70001231FB227C071225BF2212255D22E56D4F
:102E800020E71DE54AB403004010B40500500BE5EF
:102E90004A7F00FE7C151231FB227C071225BF22DF
:102EA00012255D22E56D20E7067C071225BF221260
:102EB000255D22E56D30E72090FF00E0541F701083
:102EC00090FF01E0B48005122554800312255D2295
:102ED0007D007C051225262290FF00E0541F60062D
:102EE0007C051225BF22D3E5729448E57194005009
:102EF0000BC3E5729407E571940050067C0312251C
:102F0000BF22E54AB405041230D1227C071225BF46
:102F100022E56D30E7087D007C05122526227C0520
:102F20001225BF22B420028003D340008000122F5C
:102F3000FF2275430090FF83E0540FD39543402454
:102F4000E54324F0F582E434FEF583E0AD6AAE6932
:102F5000AF6812030F05430DED70010E8D6A8E6987
:102F60008F6880D1E5437D00FCC3E5709CF570E57A
:102F70006F9DF56FE570456F6006E490FF83F0226A
:102F800090FF82E04408F0E4F56F75704990FC35DD
:102F9000E0B405028003D3404090FC36E0F543B432
:102FA00005028003D3400AE4FF04FE7C0B1231FBD0
:102FB00022B401028003D3400AE4FF04FE7C09121C
:102FC00031FB22B403004010B40500500BE5437FF1
:102FD00000FE7C141231FB2222B480004023B48214
:102FE00000501E7C357DFC12177E7D008C6C8D6B35
:102FF00090FC37E06005122FFF80057C0012302422
:10300000222290FF83E0547FF090FF82E04408F09A
:1030100090FF80E04408F02290FF82E04408F090A6
:10302000FF80E04408F0228C237D008C708D6F754A
:103030006A357569FC7568011230392290FF83E0AA
:10304000547FF0E5706449456F700122C3E57094C8
:1030500008E56F94004015752108E5217D00FCC34B
:10306000E5709CF570E56F9DF56F8009857021E432
:10307000F56F757049752200E522C395215026AD84
:103080006AAE69AF681201E6FCE52224F8F582E435
:1030900034FEF583ECF005220DED70010E8D6A8E85
:1030A000698F6880D3E521547F90FF81F0228C489E
:1030B0007F00EF24FD4019E4EF75F007A4247FF5AD
:1030C00082E434F8F583E065487002D3220F80E291
:1030D0008F47C32285727085716F90FF82E054F72D
:1030E000F090FF83E0547FF022C000C001C002C016
:1030F00006C007E5782408F8860653067F7CFF1291
:10310000315B7C007D00E57B6046FF90FD95E054DF
:103110007F6E700FC083C082A3E0FDA3E0FCA31507
:103120007B8007A3A3A3DFE68026DF06D082D083BF
:10313000801EE0F8A3E0F9A3E0FAD082D083E8F0A3
:10314000A3E9F0A3EAF0A3C083C082A3A3A380DA1B
:103150001231F4D007D006D002D001D0002285A8C9
:103160007A75A888EC70027C3F8C7922E578240877
:10317000F8760012324880FBC000C001C002C006D1
:10318000C007AE047CFF12315BE57B6042FF90FD1F
:1031900095E0547F6E700BC083C082A3A3A3157B00
:1031A0008007A3A3A3DFEA8026DF06D082D0838036
:1031B000D8E0F8A3E0F9A3E0FAD082D083E8F0A346
:1031C000E9F0A3EAF0A3C083C082A3A3A380DA78C6
:1031D00008087918097C01E6547F6E70067600773E
:1031E00000800608090CBC08EE1231F4D007D006A6
:1031F000D002D001D00022757900857AA822C0F0D3
:10320000C082C083C3E57B24E8500512324880F4B5
:10321000EC6031903523E493C39C4028C0047CFFCC
:1032200012315BD004430480E57B75F003A4249540
:10323000F582E434FDF583ECF0EFA3F0EEA3F005A6
:103240007B1231F4D083D082D0F022C0047C20D213
:103250008CD28DD504FDD0042275A8007588007528
:10326000B80075F00075D000E4F8900000F608B8DA
:1032700000FB020000C3ED940250047D037CE8ECE7
:10328000F4FCEDF4FD0CBC00010D8C7F8D7E22C39F
:10329000EC94BCED940250047D077CD0ECF4FCED82
:1032A000F4FD0CBC00010D8C7D8D7C22EC700122A4
:1032B000C000E5782418F8A604E5782408F8C65478
:1032C0007FF6E630E703D0002212324880F4C28C49
:1032D000857C8C857D8AD28CC0E0C0D0C0F0C08255
:1032E000C083C000C001C002C003C004C005C00646
:1032F000C007121AD1E5782408F8E66024E578249E
:1033000010F8A681E57875F021A4248DF582E434C7
:10331000FCF58378AEE58104C398F9E6F008A3D9FB
:10332000FA74082578F8057808E65480700CE5787A
:10333000B407F3780875780080EFE5782410F886F4
:1033400081E57875F021A4248DF582E434FCF583C1
:1033500078AEE58104C398F9E0F608A3D9FAD0075E
:10336000D006D005D004D003D002D001D000D08345
:10337000D082D0F0D0D0D0E032C0E0C0D0C000C009
:1033800001C002C28E857E8D857F8BD28E781979A1
:10339000097A07E77004A600800BE6600816E6705D
:1033A00004E74480F70809DAEAE579601314F5794F
:1033B000700EE5782408F876001231F4D28CD28DA4
:1033C000D002D001D000D0D0D0E0327581AD742AC7
:1033D00090FF93F0757F30757EF8757D60757CF099
:1033E00012053612347C12173490FF93E04401F03A
:1033F000B2B31234A612325680DA22C0007C01EC3D
:103400002408F8E660090CBC08F512324880EED0BA
:103410000022C0F0C082C083C000C006C007ED24F7
:1034200010F876BCED75F021A4248DF582E434FC0F
:10343000F583C082C083A3A3E4780DF0A3D8FCEC8D
:10344000547F75F002A424EFF582E5F03434F5835F
:10345000E493FE740193F5828E83E493FE740193EA
:10346000FFD083D082EFF0A3EEF0ED2408F8EC4417
:1034700080F6D007D006D000D083D082D0F022755D
:103480007800757B007A087918780876007700084C
:1034900009DAF8E478087480447FF674014410F582
:1034A0008975B808D2ABD2A9227581ADD28ED28CE3
:1034B000D2AFE57B6032FF90FD95E05480602478C8
:1034C000087908E0547FFA7B00E6547FB502027B5E
:1034D000FF08D9F5EB700CEAF01233F8AD04AC023A
:1034E00012340FA3A3A3DFD212324880C57C017D22
:1034F000002204F504E904ED04E104DD04D904E547
:1035000004F1049D04A104CD04D104990499049903
:1035100004D504B504AD04B104A904C104BD04B9C3
:1035200004C504C904A5190103002200480200488B
:103530000E301420C81AD0180A0C05060203010226
:103540000001CE0181010000C00080006000300059
:1035500018001000080004000200010008183828B4
:103560000C05100A0200000000000301100A02000E
:1035700000000000FBE0FBF209022700010200A0AE
:10358000320904000003FF0000000705810240002B
:103590000007050102400000070583030200012225
:1035A0000354005500530042003300340031003012
:1035B000002000200020002000200020002000200B
:0535C000000000000006
:00000001FF
