:10000000C1350002001E021B32FFFFFFFFFF02325C
:100010006AFFFFFFFFFFFFFFFFFFFFFFFFFF02334E
:10002000157581C890FEF08583A012347DEC4D607B
:100030006A78A58003760018B896FA7879800376F6
:100040000018B85FFA78208003760018B820FA907C
:10005000FEE5AE83AF8290FD001200A16005E4F0E2
:10006000A380F690FEF0A88290FEF0A982E8C399E2
:10007000500576000880F69000FF1200AA90010358
:100080001200AA9001071200AA90010B1200C8905A
:1000900001111200C89001171200C875D000123368
:1000A0006702011DEF65827003EE658322E493F819
:1000B000740193F9740293FE740393F5828E83E8BE
:1000C00069700122E493F6A30880F4E493FC7401C0
:1000D00093FD740293FE740393FF740493F8740504
:1000E00093F58288831200A1700122E493A3A88370
:1000F000A9828C838D82F0A3AC83AD8288838982B0
:1001000080E3212104927A7A0492A6A80492FEF058
:1001100004940494FBFB04990494FBFB04F904F994
:1001200080FED0F030F00920F303F68010F7800D48
:1001300030F10920F303F28004F38001F020F4048D
:10014000FCD0E0CC22CCC0E012015A02014BBC0032
:1001500005D0F0ACF022C313DCFC020121BF000982
:10016000ED258275F001F8E622BF010FED2582F53D
:1001700082EE3583F58375F004E022ED258275F07B
:1001800002F8E222D083D082F5F0C3E493A3C5F055
:1001900095F0C0E0C3D0F0E493A395F04012A3A380
:1001A000C3E5F033500205832582F58250020583B2
:1001B000740193C0E0E493C0E022D083D082F5F0D4
:1001C000E49370097401937004A3A3800C740293E8
:1001D00065F06005A3A3A380E7740193C0E0E493F6
:1001E000C0E02212025B0201F21202AF0201F2121F
:1001F00002D30201F230E00720E302E622E72230D8
:10020000E10720E302E222E32230E202E022E4936B
:10021000221202D302021A1202AF02021AABF01229
:100220000224CBC5F0CB2230E01020E306E6F5F047
:1002300008E622E7F5F009E7192230E11020E3068D
:10024000E2F5F008E222E3F5F009E3192230E206D4
:10025000E0F5F0A3E022E493F5F074019322BB00F3
:1002600003740922BB010789828A83740422BB02BA
:100270000789828A83741022740A2202027BBB00DF
:1002800007E92582F8740122BB010DE92582F58278
:10029000EA3583F583740422BB020DE92582F582D9
:1002A000EA3583F583741022E92582F8740222026C
:1002B00002AFBF0005EDF8740122BF01078D828EE9
:1002C00083740422BF02078D828E83741022EDF89E
:1002D0007402220202D3BF0007ED2582F8740122C6
:1002E000BF010DED2582F582EE3583F5837404227E
:1002F000BF020DED2582F582EE3583F58374102261
:10030000ED2582F8740222020307C0E012025B02AC
:10031000031FC0E01202AF02031FC0E01202D302AB
:10032000031F30E00B20E304D0E0F622D0E0F722F8
:1003300030E10B20E304D0E0F222D0E0F322D0E061
:10034000F022C9CDC9CACECACBCFCB120352EDF928
:10035000EEFAEFFB22BB002FBF000AFAEDF8E7F63A
:100360000809DAFA22BF01128D828E83F802036F28
:1003700009A3E7F0D8FA2202037AFAEDF8E7F208C7
:1003800009DAFA22020384BB014DBF001489828A74
:1003900083F9EDF802039608A3E0F6D9FA220203E6
:1003A000A7BF01228D828E83FB08C9C582C9CAC539
:1003B00083CAE0A3C9C582C9CAC583CAF0A3DBEA60
:1003C000D8E8220203CA8D828E83F9EDF8E0F208A4
:1003D000A3D9FA220203D4BB024DBF001289828A3C
:1003E00083F9EDF80203E608A3E493F6D9F922BFF6
:1003F00001238D828E83FB08C9C582C9CAC583CA01
:10040000E493A3C9C582C9CAC583CAF0A3DBE9D8EE
:10041000E72202041989828A83F9EDF8E493F2084D
:10042000A3D9F92202042ABF000DFAEDF8E3F60879
:1004300009DAFA22020434BF01128D828E83F80297
:10044000044109A3E3F0D8FA2202044CFAEDF8E3E0
:10045000F20809DAFA22020456E6FB08E6FA08E690
:10046000F904F61870010622E6FF08E6FE08E6FD2C
:1004700022EFF0A3EEF0A3EDF022EBF0A3EAF0A35D
:10048000E9F022E0FFA3E0FEA3E0FD22E0FBA3E011
:10049000FAA3E0F9220000000000000004F9005B6C
:1004A00005730026059A00330A0B005B0A7700608B
:1004B0001552005B0CFB005B09AB005B09E2005BC3
:1004C0000DC2005B0BF3005B0A1E005B0A53005B6E
:1004D000174A0033176000341E4D00431EF00044DD
:1004E000205D0044204B00471F1700471FBC004DF4
:1004F000200D004F1F39005831F5005B7CCC7DFF8B
:10050000121CFE22749090FF91F090FFFCE020E717
:100510002DC2AFAE59AF58755A20E55A14C55A606E
:1005200019E4FE7F05EE4FCE24FFCECF34FFCF601F
:1005300007E490FF92F080ED80E08E598F582212F0
:1005400005017D077CB71232117D0F7C6E12322BB4
:1005500078977A06E4F608DAFC7A061205CF7C036F
:10056000120E577C04120E5712218BE4FEFF7C0FF3
:1005700012319AD2A822123085E490FD40F090FF0B
:10058000F0E030E408740190FD41F08005E490FD56
:1005900041F07D0A7C001224B1123108221230850C
:1005A00090FD41E014700E90FFF0E04410F07C00EC
:1005B00012254A801990FD41E0700E90FFF0E05442
:1005C000EFF07C0012254A80057C1712254A123173
:1005D000082290FFF0E054ABF090FFF0E04420F0F0
:1005E000228C378D36787CEDF608ECF6EDFEECFDCE
:1005F0007F019000051201EC787AF6787CE6FD0820
:10060000E6FCEDFEECFD7F019000041201EC540FBE
:10061000FC7D7A12179D787AE6700DAD3AAE39AF4F
:1006200038E412030F7C082290FFF0E054FEF090B3
:10063000FFF0E054FDF0801E787CE6FD08E6FCED5E
:10064000FEECFD7F0190000812020E25E0440190AF
:10065000FFF3F00206DB787CE6FD08E6FCEDFEEC3D
:10066000FD7F0190000612020E54FE90FFF3F08011
:100670002B787CE6FD08E6FCEDFEECFD7F019000AA
:100680000812020EFAEB90FFF1F01208CA400DAD0D
:100690003AAE39AF38E412030F7C1822787CE6FDBD
:1006A00008E6FCEDFEECFD7F0190000812020E90C2
:1006B000FFF1F01208CA400DAD3AAE39AF38E4127E
:1006C000030F7C1822787CE6FD08E6FCEDFEECFDCD
:1006D0007F0190000612020E440190FFF3F0787D36
:1006E000E62403F618E63400F6787AE624FE50098C
:1006F00090FFF0E054FDF0800790FFF0E04402F03E
:10070000E490FFF1F0787B7600787AE624FFFCE451
:1007100034FFFD787BE67F00FEECD39EEF6480CD56
:1007200064809D402F1208AF400F787BE6AD3AAE53
:1007300039AF3812030F7C182290FFF2E0FC787C6E
:100740008683088682ECF0787B06A3787CA68308F3
:10075000A68280B51208AF400F787BE6AD3AAE397D
:10076000AF3812030F7C182290FFF2E0FC787C86F1
:1007700083088682ECF0787AE6AD3AAE39AF38126B
:10078000030F7C00228C378D36787CEDF608ECF672
:10079000EDFEECFD7F019000051201EC787BF67810
:1007A0007CE6FD08E6FCEDFEECFD7F019000041206
:1007B00001EC540FFC7D7B12179D787BE670037C67
:1007C000082290FFF0E054FEF090FFF0E054FDF0BE
:1007D000801B787CE6FD08E6FCEDFEECFD7F0190D9
:1007E000000812020E25E090FFF3F0805B787CE6B3
:1007F000FD08E6FCEDFEECFD7F0190000612020E06
:1008000054FE90FFF3F08021787CE6FD08E6FCEDD5
:10081000FEECFD7F0190000812020EFAEB90FFF152
:10082000F01208CA40037C1822787CE6FD08E6FC3A
:10083000EDFEECFD7F0190000812020E90FFF1F03A
:100840001208CA40037C1822787DE6240AF618E6CE
:100850003400F6787A7600787BE624FFFCE434FFF7
:10086000FD787AE67F00FEECD39EEF6480CD648055
:100870009D4021787C8683088682E090FFF1F0120B
:1008800008CA40037C1822787A06787D06E618703C
:10089000010680C390FFF0E04401F0787C86830875
:1008A0008682E090FFF1F01208CA40037C18227C97
:1008B000002290FFF0E020E71290FFF0E030E50921
:1008C00090FFF0E04420F0C32280E7D32290FFF0B5
:1008D000E020E31290FFF0E030E50990FFF0E04403
:1008E00020F0C32280E7D3228C428D417C00ED545E
:1008F000F0FDEC7003ED64307005753E0380037508
:100900003E04AC3E120F7C758300858340E5415464
:100910000FF53FE5407004E53F64037035E53E2484
:10092000FD75F00AA4240AF582E434FDF583E03075
:10093000E6051210678019E53E2497F8C654FBF6C9
:1009400078A3E62405F58218E63400F583740FF0E9
:100950008059E5407004E53F64047048E53E24FD9D
:1009600075F00AA4240AF582E434FDF583E030E54D
:1009700007AC42AD41121C93E54230E21578A7E680
:1009800030E00F78A7E630E109E4FF04FE7C0412B2
:10099000319A78A3E62406F58218E63400F58374CC
:1009A0000FF08007E4FC7DEE121C93C2032212308C
:1009B00085120F7C78A3E62406F58218E63400F54C
:1009C00083E090FD40F078A3E62405F58218E63434
:1009D00000F583E090FD41F0C2037D027C0012240B
:1009E000B112310822123085788FECF6EC2497F89A
:1009F000E630E1077C1312254A800F90FD41E0FDAF
:100A0000788FE6FC1213FD12254A123108221230AB
:100A100085788FECF67D00120F0B12254A123108F3
:100A200022123085788FECF6EC2497F8E630E20756
:100A30007C1312254A801B788FE62497F8E620E184
:100A4000077C1212254A800A788FE6FC12142112C4
:100A5000254A12310822123085788FECF6EC249763
:100A6000F8E620E2077C1112254A800A788FE6FC1E
:100A700012152212254A12310822123085788FEC85
:100A8000F6120F7C78A3E62409F58218E63400F507
:100A900083E090FD47F078A3E6240AF58218E63457
:100AA00000F583E090FD48F078A3E62403F5821872
:100AB000E63400F583E0FC78A3E62404F58218E62A
:100AC0003400F583E0F55C78A3E62402F58218E6AD
:100AD0003400F583E0F55D8C5BE4EC33335401784E
:100AE0008FF66008E55C30E103788F06788FE6903A
:100AF000FD49F078A1E62402F58218E63400F5837A
:100B0000E0FDA3E0540CFCED54E68C5FF55EE55B84
:100B100030E503435F01E55C20E50EE55B547F7043
:100B200008E55B20E703435F02E55B30E303435FD7
:100B300010E55B30E203435F20E55B540360034351
:100B40005F40E55B30E103435F80E55B30E40343F6
:100B50005E01E55B30E603435E08E55C20E40EE5FC
:100B60005B547F7008E55B20E703435E10535FFB37
:100B7000535EF9AD5EE55F90FD42CDF0A3CDF0E5AB
:100B80005D30E30DE55D5430C4540F90FD45F080B9
:100B900005E490FD45F0E55D540390FD44F0E55D0E
:100BA0005404C31390FD46F090FD44E0700E7D3D6B
:100BB0007EFD7F01740190000912014278A3E624B2
:100BC00008F58218E63400F583E07C00FD78A3E6A2
:100BD0002407F58218E63400F583E07F004CFEEF31
:100BE0004D90FD40F0A3CEF0CEC2037D0A7C0012F2
:100BF00024B112310822123085788FECF678947681
:100C0000010876FD0876407891760C789412046598
:100C10001202147892CBF6CB08F67F00EF24EB405B
:100C20001FE4EF25E09034BFFD93CD0493789366E5
:100C30007003ED186670067891760080030F80DCF3
:100C40007890EFF6789412046590000212020E7804
:100C500092CBF6CB08F65404CB54064B6004789143
:100C6000760B7893E630E3137894120465900005D0
:100C70001201EC24FB50047891760D7893E654C071
:100C80007D0064C04D70047891760B7894120465F1
:100C90009000041201EC24FC50047891760F7894B3
:100CA0001204659000061201EC24FD500478917640
:100CB0000E78941204659000091201EC24FD500492
:100CC0007891760A7891E6702A788FE6FC120F7C8C
:100CD000789412046578A1E6F978A0E6FA7B0174AD
:100CE0000A780012033FC203788FE6FC12112378C2
:100CF00091ECF67891E6FC12254A12310822123066
:100D000085788FECF6120F7C788FE624FD75F00A5B
:100D1000A4241CF582E434FDF583AC82AD8378A075
:100D20008683088682ECF9EDFA7B0A78011203A724
:100D3000C203788FE6FC121123123108228D2B8C0E
:100D40002AED60407527017529487528FFE52A249A
:100D5000FDFCE434FFFDEC7C0325E0CD33CDDCF974
:100D6000FCE5292CF529E5283DF528AD29AE28AF6D
:100D700027748090000612031774809000021203FB
:100D800017120FD3E52B14603B75270175290875E1
:100D900028FFE52A24FDFCE434FFFDEC7C0325E07C
:100DA000CD33CDDCF9FCE5292CF529E5283DF528E6
:100DB000AD29AE28AF27E4900006120317E4900097
:100DC0000212031722123085788FECF6EC2497F884
:100DD000E630E209788FE6FC121522D200788FE621
:100DE000FC120F7C7890760090FD41E030E70478AB
:100DF0009076017890E6FD788FE6FC120D3AC203FA
:100E0000300007788FE6FC1214217C0012254A126C
:100E100031082278A3E62404F58218E63400F5832D
:100E2000E04401F078A3E62404F58218E63400F5E6
:100E300083E030E00280ED78A3E6240BF58218E62B
:100E40003400F583E054F8F078A3E62402F5821824
:100E5000E63400F583E04480F022C2038C58120F80
:100E60007C78A0868308868279EE7A347B0A7801C2
:100E70001203F5120E10AC587D02120D3AC203ACEB
:100E800058121123228D538E528F518C50120F7C89
:100E9000754F0078A3E62405F58218E63400F58343
:100EA000E020E416E54F24F64010054FC2037C18FD
:100EB000123248AC50120F7C80D978A3E62405F595
:100EC0008218E63400F583E020E405C2037C0222A8
:100ED00078A3E62405F58218E63400F583E0540F84
:100EE000601678A3E62405F58218E63400F583E061
:100EF000540FF0C2037C012278A28683088682E028
:100F0000AD53AE52AF5112030FC2037C00228D319C
:100F10008C30121522E5316020E530B4030C7C01E1
:100F200012247C7C8112247C800FE530B4040A7C7E
:100F30000212247C7C8212247CAC30120F7CE531BE
:100F4000601A78A48683088682E054E7F0A3A3A3FE
:100F5000A3E054E7F0AC307D02120D3A78A086830E
:100F600008868279F87A347B0A78011203F5C20385
:100F7000E5302497F8C654FDF6AC30121123228CCC
:100F8000263003051231E780F87C0A1230FAD203CA
:100F9000E52624FD789DF6700978A476FF0876E0B2
:100FA000800778A476FF0876E2789DE675F010A4B5
:100FB000ADF0FC24A078A3F6ED34FF18F6789DE69A
:100FC00075F00AA42408FCE434FDFD78A0EDF608D1
:100FD000ECF61231932278A3E62402F58218E63467
:100FE00000F583E030E72278A3E62402F58218E6D4
:100FF0003400F583E0547FF078A3E62402F58218EC
:10100000E63400F583E04480F02278A486830886E5
:1010100082E0547FF0AD83E5822404FCE43D8C82C1
:10102000F583E0547FF078A3E6240BF58218E634CC
:1010300000F583E054F8F078A5E62401F58218E67F
:101040003400F583E04403F078A5E62405F5821822
:10105000E63400F583E04403F078A3E62405F58246
:1010600018E63400F583740FF02278A4868308868E
:1010700082E0543FF0AD83E5822404FCE43D8C82A1
:10108000F583E0543FF0789DE6249EF8E6FC78A5D1
:10109000E62401F58218E63400F583ECF0789DE64D
:1010A000249EF8E6FC78A5E62405F58218E63400CF
:1010B000F583ECF078A3E6240BF58218E63400F50E
:1010C00083E054FB4402F52678A1E62402F5821859
:1010D000E63400F583E030E50343260178A3E624F7
:1010E00005F58218E63400F583E030E003120FD3F3
:1010F000E526FC78A3E6240BF58218E63400F58398
:10110000ECF078A3E62405F58218E63400F5837444
:101110000FF078A48683088682E04480F0A3A3A31E
:10112000A3E04480F0228C2A120F7C78A1E62408E8
:10113000F58218E63400F583E0FC78A3E6240AF58E
:101140008218E63400F583ECF078A1E62407F582F6
:1011500018E63400F583E0FC78A3E62409F582184C
:10116000E63400F583ECF078A08683088682E0FD03
:10117000A3E0FCEDFE78A3E62408F58218E634002F
:10118000F583EEF0ECFE78A3E62407F58218E6344A
:1011900000F583EEF08C298D28C3EC9402ED9406C3
:1011A000400575277C8033D3E5299481E528940197
:1011B000400575273C8023D3E52994C0E528940099
:1011C00040057527188013D3E5299430E52894004D
:1011D000400575270C8003752708AF27E4EF547C82
:1011E0004483FF8F27E527FC78A5E62401F58218C4
:1011F000E63400F583ECF0E527FC78A5E62405F558
:101200008218E63400F583ECF0E527FC789DE624AF
:101210009EF8ECF678A3E62402F58218E63400F591
:1012200083E0F52778A1E62402F58218E63400F57C
:1012300083A3E030E3175327C778A1E62405F5829E
:1012400018E63400F583E09034E993422778A1E66C
:101250002402F58218E63400F583E030E7054327E1
:101260004080035327BF5327FB78A1E62406F5826D
:1012700018E63400F583E060034327045327FC7825
:10128000A1E62404F58218E63400F583E042274302
:101290002780E527FC78A3E62402F58218E63400CF
:1012A000F583ECF078A3E62404F58218E63400F523
:1012B00083E0F52778A1E62402F58218E63400F5EC
:1012C00083A3E030E1055327DF800343272078A183
:1012D000E62402F58218E63400F583E030E4055395
:1012E00027EF800343271078A1E62409F58218E64A
:1012F0003400F583E0B40203432702E527FC78A31A
:10130000E62404F58218E63400F583ECF078A3E6D1
:101310002403F58218E63400F583E0F52778A1E68A
:101320002409F58218E63400F583E0700553277F21
:10133000800343278078A1E62402F58218E6340072
:10134000F583A3E030E00543272080035327DF78AF
:10135000A1E62402F58218E63400F583E030E305C7
:1013600043274080035327BF78A1E62402F5821863
:10137000E63400F583E030E005432710800353276F
:10138000EF78A1E62402F58218E63400F583A3E0A5
:1013900030E40543270880035327F778A1E62402A9
:1013A000F58218E63400F583A3E030E50543270411
:1013B00080035327FB78A1E62402F58218E6340067
:1013C000F583A3E030E60543270180035327FE7829
:1013D000A1E62402F58218E63400F583A3E030E7A5
:1013E0000543270280035327FDE527FC78A3E62465
:1013F00003F58218E63400F583ECF0C2037C00228A
:101400008D278C26ED54031460037C1022E52754AD
:101410007C24FC40037C0B22E5262497F8C644027A
:10142000F67C00228C30120F7CE5302497F8E62001
:10143000E24FAC307D02120D3AE53024FE4428FC28
:1014400078A48683088682ECF0AF83E5822404FECC
:10145000E43FFFEC8E828F83F07C038C2CE52CFC28
:1014600078A5E62401F58218E63400F583ECF0E572
:101470002CFC78A5E62405F58218E63400F583EC0B
:10148000F0752D01752F48752EFFE53024FDFCE425
:1014900034FFFDEC7C0325E0CD33CDDCF9FCE52FFA
:1014A0002CF52FE52E3DF52E78A5E62404F58218BF
:1014B000E63400F583E054E7F52CAD2FAE2EAF2DCA
:1014C000E4900002120317E49000061203171201C1
:1014D000E630E503432C10E52CFC78A5E62404F562
:1014E0008218E63400F583ECF012106778A3E62446
:1014F00006F58218E63400F583E0C203FCE53024EB
:1015000097F8C64404F68C2CE530540FC454F07E92
:1015100000FFEEEF44047D00FFEC4EFCED4FFD12AA
:101520001CFE7C00228C2F120F7C12100778A486E0
:1015300083088682E05408F0A3A3A3A3E05408F034
:10154000AC2F7D02120D3AC203E52F2497F8C65442
:10155000FBF67C00221230857890ECF6EC2497F8AC
:10156000E630E10A7D007C131224B1123108789034
:10157000E62497F8C64401F67890E6FC120F7C78D2
:1015800090E624FD75F00AA4241CF582E434FDF5F0
:101590008378A0E6FA08E6F97B0A78011203A778B7
:1015A000A0868308868279F87A347B0A7801120350
:1015B000F5120FD3C2037890E6FC121123788FEC5A
:1015C000F6EC600A7D007C081224B1123108789094
:1015D000E6FC120F7C78A3E62404F58218E63400BA
:1015E000F583E0441054DFFC78A3E62404F5821868
:1015F000E63400F583ECF0788FECF6C2037CC81279
:1016000032487890E6FC120F7C78A3E62404F58239
:1016100018E63400F583E054EFF0C2037CC81232C0
:10162000487890E6FC120F7C78A3E62404F5821833
:10163000E63400F583E04410F0C2037CC81232485F
:101640007890E6FC120F7C78A3E62404F58218E675
:101650003400F583E04420F0C2037CF01232487875
:1016600090E6FC120F7C78A3E62405F58218E63498
:1016700000F583E030E415C2037890E644107F0063
:10168000FE7C0712319A12310802174978A3E6242A
:1016900004F58218E63400F583E054CFF0C2037CF1
:1016A000C81232487890E6FC120F7C78A3E6240436
:1016B000F58218E63400F583E04430F0C2037CF094
:1016C0001232487890E6FC120F7C78A3E62405F5E8
:1016D0008218E63400F583E030E414C2037890E623
:1016E00044107F00FE7C0712319A123108805D7829
:1016F000A3E62404F58218E63400F583E054EFF005
:1017000078A3E62404F58218E63400F583E054DF7C
:10171000F07890E624FD75F00AA4241CF582E434E8
:10172000FDF583AC82AD8378A08683088682ECF9D0
:10173000EDFA7B0A78011203A7C2037890E6FC1247
:1017400011237D007C0B1224B11231082212308546
:1017500090FF91E090FD41F07D027C001224B112D7
:1017600031082212308590FD40E0F4FC90FF91E0BA
:101770005CF53390FD41E0FC90FD40E05C4233E5D8
:101780003390FF91F07C0012254A12310822743CFC
:1017900090FBE8F0743E90FBE8F0E490FD30F0221E
:1017A0008D358C34ECB401028003D340028028B420
:1017B00002028003D34008A835C625E0F68018B49D
:1017C00004028003D3400AA835C625E025E0F68050
:1017D00006A83576008000228C3C8D3BEDFEECFDAA
:1017E0007F0175600675610090FD3112046E120173
:1017F000E6B480028006D3500302189E90FD311299
:1018000004809000031201EC54F0B430028003D342
:10181000405F90FD3112048090000812020EFAFD24
:10182000EBFE7F0190FD3412046EEECD903502FC8C
:10183000E493FF740193FEF9EFFA7B01EAFFE9FEFE
:10184000ECC39EED9F4025903504E493FD74019315
:10185000FCEDFEECFD7F01EECDFC90FD36E0D39C6F
:1018600090FD35E09D500575608080331219BC8075
:101870002EB460028003D3400BAC3CAD3B12078218
:101880008C60801BB41003B34010C3B42003B3407A
:1018900009C3B440028003D340007560818000809A
:1018A00075B481028003D3406B90FD3112048090A7
:1018B00000031201EC54F0B430028003D3401D90B9
:1018C000FD3112048090000812020EFAFDEBFE7F3B
:1018D0000190FD3712046E1219268036B460028022
:1018E00003D34013753A61E4F539F538AC3CAD3BB0
:1018F0001205DE8C60801BB41003B34010C3B4200B
:1019000003B34009C3B440028003D3400075608133
:10191000800080028000E560FC90FD31120480ECC4
:10192000900002120317AC612290FD3112048090E6
:1019300000041201EC600474018001E4A2E0920151
:1019400090FD31120480ED2403FD50010E90FD3412
:1019500012046E90FD311204809000051201ECF526
:10196000619000041201EC540FFC7D6112179DE59B
:1019700061700475600822756000787E7600787E5C
:10198000E6C39561503890FD371204801201E6FCE1
:1019900090FD34120480EC12030F30010E90FD39DB
:1019A000E004F090FD387003E004F0787E0690FDCE
:1019B00036E004F090FD357003E004F080C0229022
:1019C000FD32E0FDA3E0FCEDFEECFD7F01ED240A1D
:1019D000FD50010E90FD3A12046E90FD311204800C
:1019E0009000041201EC540FB401028003D340179D
:1019F00090FD3A1204800DED70010E90FD37120437
:101A00006E78827601804EB402028003D340199032
:101A1000FD3A120480ED2402FD50010E90FD3712B4
:101A2000046E78827602802DB404028003D34019BC
:101A300090FD3A120480ED2404FD50010E90FD3714
:101A400012046E78827604800CB400028003D340C6
:101A5000007560082290FD3112048090000512018B
:101A6000ECF561787F7600787FE6C39561400302EC
:101A70001B24788076007880E6C378829650769032
:101A8000FD341204801201E6FC90FD3A1204891222
:101A900001E0F45CFC1201E0F890FD37120480E8EC
:101AA000C0E01201E6C8D0E0C8584CFC90FD3412EA
:101AB0000480EC12030F7881ECF690FD39E004F01D
:101AC00090FD387003E004F009E970010A90FD3AD6
:101AD00012047790FD311204809000041201EC3062
:101AE000E40E90FD36E004F090FD357003E004F064
:101AF00078800680817882E6FDE4FEFFEECDFC90E2
:101B0000FD39E02CF090FD38E03DF07882E6FDE410
:101B1000FEFFEECDFC90FD3CE02CF090FD3BE03D67
:101B2000F0787F06021A6475600022E53D053D04E9
:101B30007002B2B022C0E0C0F0C082C083C0D0E862
:101B4000C0E0E9C0E0EAC0E0EBC0E0ECC0E0EDC01E
:101B5000E0EEC0E0EFC0E090FF92E01201B71B8022
:101B6000301B80321B8F381BA13A1BB33E1BCB446A
:101B70001BBF461BD7501C19521BF8541C3A560069
:101B8000001C5B90FF92E07F00FE7C0112319A0204
:101B90001C6BE4FF04FE7C0312319A742090FFFE5C
:101BA000F0021C6BE4FF04FE7C0212319A74409038
:101BB000FFFEF0021C6BE4FF04FE7C0412319A026B
:101BC0001C6BE4FF04FE7C0512319A021C6BE4FFDF
:101BD00004FE7C0612319A021C6B90FFA5E07D008A
:101BE00090FD00CDF0A3CDF090FD01E0FCF58390D9
:101BF000FD00E04433FD121CFE807390FFB5E07DD4
:101C00000090FD02CDF0A3CDF090FD03E0FCF58344
:101C100090FD02E04443FD121CFE805290FFA6E0BE
:101C20007D0090FD04CDF0A3CDF090FD05E0FCF526
:101C30008390FD04E04434FD121CFE803190FFB619
:101C4000E07D0090FD06CDF0A3CDF090FD07E0FC17
:101C5000F58390FD06E04444FD121CFE801090FFC9
:101C600092E07D00FCED44AAFD121CFE8000E49091
:101C7000FF92F0D0E0FFD0E0FED0E0FDD0E0FCD05D
:101C8000E0FBD0E0FAD0E0F9D0E0F8D0D0D083D0BB
:101C900082D0F0D0E0320581058105810581A881DF
:101CA000181818EDF608ECF690FF6AE020E70280BD
:101CB000F790FF69E07D00A88118CDF6CD08F67D8C
:101CC00003A881E618FCE6CC25E0CC33CCDDF9CCCA
:101CD000F6CC08F6A88118E644F8F6A8811818187A
:101CE000E6FD08E6FCA881188683088682EDF0A34D
:101CF000ECF0740290FF6AF0158115811581158151
:101D000022E5812405F581E4A88118F6A881181838
:101D10001818EDF608ECF690FBFDE024F8500302ED
:101D20001E1FE4A8811818F6A88118E6FEA88118DD
:101D3000181818E6FD08E6FC7F00EF24F8404DE493
:101D4000EF25E02485F582E434FDF583E0FBA3E094
:101D50006C7003FAEB6D70097401A8811818F68095
:101D60002BE4EF25E02485F582E434FDF5837A0049
:101D7000E054F0CCF8CCCDF9CDFB7800E954F0F983
:101D8000EA687002EB6970010E0F80AEA88118EE50
:101D9000F6A88118181818EDF608ECF6A881EFF6E9
:101DA000A8811818E67079A88118E624F74071A870
:101DB0008118181818E6540FA881F664046017A853
:101DC00081E664036010A88118181818E6FD08E67B
:101DD000FC121C93804A7C0A1230FAA88118181849
:101DE00018E6FD08E6FC90FBFCE025E02485F58282
:101DF000E434FDF583EDF0A3ECF090FBFCE0FFE4B0
:101E0000EF045407FF90FBFCF090FBFDE004F012A0
:101E1000319390FBFEE07008E4FEFF7C0F12319AD4
:101E2000802790FBFFE004F0543F701D90FBFFE023
:101E300044FE7D00FC90FBFCE025E02485F582E477
:101E400034FDF583EDF0A3ECF0E58124FBF5812270
:101E50007885760078867600740190FBFEF012306B
:101E60008590FBFDE060597C0A1230FA90FBFBE0A4
:101E700025E02485F582E434FDF583E0FDA3E0FC54
:101E800090FBFBE025E02485F582E434FDF583E456
:101E9000F0A3F090FBFBE0FFE4EF045407FF90FB9E
:101EA000FBF090FBFDE014F07883EDF608ECF61201
:101EB0003193B2B37883E6FD08E6FC1208E580A111
:101EC0001231E7788506B60011788576007886E6C7
:101ED000F40404A2E092B47886F68085E490FBFED8
:101EE000F090FBFDE07D00FCED44CFFD121C931251
:101EF000310822123085E56A64494569601590FF12
:101F000083E0540F7D00D3956AED95695005122E3C
:101F1000CE8003122F9E12310822123085E56A64AA
:101F20004945696005122FD8800E90FF80E0440873
:101F3000F090FF83E0547FF0123108221230858C3C
:101F400054EC54F0B4101575643D7563FD75620171
:101F5000E5642403F564E5633400F563E4F557F5BF
:101F600056E556C394015027E554540FFCAD64AEBA
:101F700063AF62120E828C55EC600280120564E53C
:101F800064700205630557E5577002055680D2E577
:101F900054540F2497F8C654FEF6E554540F7F00AE
:101FA000FE7C1212319AE5551470097D007C0912ED
:101FB00024B18007AD577C001224B11231082212DF
:101FC000308590FFFCE04402F090FF00E030E71322
:101FD00090FF83E04480F043678090FFFCE0440181
:101FE000F0801190FF82E04408F053677F90FFFC7F
:101FF000E054FEF090FF81E04480F012256490FFF1
:10200000FEE04405F090FFFCE054FDF012310822A0
:102010001230857C0112324878A7E64402F674FE3D
:10202000FC04FD121CFE90FF6AE030E70280F7E43A
:10203000F54E754D10AC4EAD4DE54E154E7002157A
:102040004DEC4D600280EE438701123108221230C0
:10205000857C0212311478A7E654FDF6123108226D
:1020600012308578A7E630E02C78A7E630E12678B4
:10207000A7E6FCF58318E644F0FD121C9390FFFCE4
:10208000E04420F07C0212324878A7E654FDF67452
:102090001A90FFFEF078A7E6FCF58318E644F1FD00
:1020A000121C9312310822756700756800E4F5660A
:1020B000F565E4F569756A49748490FF82F074846B
:1020C00090FF80F0748090FF68F0748090FF6AF059
:1020D000AD46AF457E00EE24FC500302216AE4EEDB
:1020E00075F007A4243FF582E434FCF583E0FFE4B7
:1020F000EF5480FDE4EF540F14FFED6038E4EF750A
:10210000F008A42448F582E434FFF5837490F0E4E9
:10211000EF75F008A4244AF582E434FFF583748057
:10212000F0E4EF75F008A4244EF582E434FFF58363
:102130007480F08034E4EF75F008A42408F582E49C
:1021400034FFF5837490F0E4EF75F008A4240AF5E9
:1021500082E434FFF583E4F0E4EF75F008A4240E84
:10216000F582E434FFF583E4F00E0220D38D468E31
:10217000448F45747F90FFFDF0749090FFFCF090C9
:10218000FC19E030E60790FFFCE04404F02290FCEC
:102190000DE014700490FC0CE0703990FC0079069E
:1021A0007A357B1278011203F57F00EF334015EF8B
:1021B00090354D93FCEF2480F582E434FCF583ECFC
:1021C000F00F80E78F5990FC2B79187A357B3578A2
:1021D000011203F5E490FFFFF0745190FFFAF074E0
:1021E0000490FFFBF0745390FFF8F0745190FFF9E6
:1021F000F0745590FFF7F0749390FFF6F0743290FE
:10220000FFF5F075643D7563FD756201E490FF8331
:10221000F0748090FF81F0755804E55875F007A4BC
:10222000243FF582E434FCF583E07889F6FC540F12
:1022300014FC7889ECF6E55875F007A42441F58282
:10224000E434FCF583E0788C76F8087600FC788935
:10225000E675F008A42448F582E434FFF583E4F041
:102260007889E675F008A4244FF582E434FFF583FD
:10227000ECF0788CE6FF08E67E03CFC313CF13DEC5
:10228000F9FE7889E675F008A42449F582E434FF64
:10229000F583EEF07889E675F008A4244AF582E427
:1022A00034FFF5837480F0788AECF67D00788DE653
:1022B0002CF618E63DF6788CE6FD08E67C03CDC3E7
:1022C00013CD13DCF9FC7889E675F008A4244DF5EC
:1022D00082E434FFF583ECF07889E675F008A424F5
:1022E0004EF582E434FFF583E4F0788CE6FD08E6F1
:1022F000FC7889E6FF7E00EE24FC500302246BE4A8
:10230000EE75F007A4243FF582E434FCF583E0FF8A
:10231000E4EF5480FAE4EF540F14FFE4EE75F00795
:10232000A42441F582E434FCF583E0788AF6EE7566
:10233000F080A42408F8E5F034F8F9E8FCE9FD8A17
:1023400059EA70030223D8E4EF75F008A42448F595
:1023500082E434FFF583E4F0788AE6FAE4EF75F07E
:1023600008A4244FF582E434FFF583EAF0EDFBEC9A
:102370007A03CBC313CB13DAF9FAE4EF75F008A4B0
:102380002449F582E434FFF583EAF0788AE67B009D
:10239000FAEC2AFCED3BFDFBEC7A03CBC313CB1329
:1023A000DAF9FAE4EF75F008A4244DF582E434FF7D
:1023B000F583EAF0E4EF75F008A4244AF582E434EA
:1023C000FFF5837480F0E4EF75F008A4244EF582E5
:1023D000E434FFF5837480F0022467E4EF75F008BD
:1023E000A42408F582E434FFF583E4F0788AE6FA61
:1023F000E4EF75F008A4240FF582E434FFF583EAD6
:10240000F0EDFBEC7A03CBC313CB13DAF9FAE4EF6C
:1024100075F008A42409F582E434FFF583EAF07826
:102420008AE67B00FAEC2AFCED3BFDFBEC7A03CB61
:10243000C313CB13DAF9FAE4EF75F008A4240DF511
:1024400082E434FFF583EAF0E4EF75F008A4240A8F
:10245000F582E434FFF583E4F0E4EF75F008A4249A
:102460000EF582E434FFF583E4F00E0222F48E5878
:10247000788CEDF608ECF67889EFF61220A4228C21
:1024800026EC30E718E526540F1475F008A424480C
:10249000F582E434FFF583E054DFF08016E526543E
:1024A0000F1475F008A42408F582E434FFF583E0E6
:1024B00054DFF022EC90FD3FF08C24ED2403F52551
:1024C0007D00D3956CED956B4003856C25E5252447
:1024D000B75009752503740290FD3FF0AC25122F0B
:1024E000C322E4F566F5651224E82290FD3DE0651F
:1024F0006D600E740490FD3FF0E4F5657566038031
:10250000467D6DE4FEFF793D7AFD7B017405780020
:1025100012033FE5662403F566E5653400F565E5DD
:1025200066D3956CE565956B4006856C66856B6535
:10253000D3E5669448E5659400400C740290FD3F35
:10254000F0E4F565756603AC66122FC322EC90FDCE
:102550003FF0E4F566F5658C32EC6005122FB4802F
:10256000057C00122FC32290FF04E0F54A90FF067D
:10257000E0FDA3E0ED7D00FC7D00FC90FF06E0FFA8
:10258000A3E07E00FFE4FEEC4EFCED4FFDC3EC94B7
:1025900048ED9400502290FF06E0FDA3E0ED7D00A1
:1025A000FC7D00FC90FF06E0FFA3E07E00FFE4FE60
:1025B000EC4EFCED4FFD8004E4FD7C488C6C8D6B93
:1025C00090FF02E0FDA3E0ED7D00FC7D00FC90FFAC
:1025D00002E0FFA3E07E00FFE4FEEC4EF54CED4F81
:1025E000F54B75643D7563FD7562017D3D7EFD7F34
:1025F00001796DE4FAFB7405780012033F75490018
:10260000E54924FE4019AD64AE63AF62E412030FE6
:1026100005490DED70010E8D648E638F6280E1754A
:10262000643D7563FD75620190FF00E05460B40085
:10263000028006D35003022C12E54A540FF549E5F7
:102640004A5480A2E0920290FF01E0120181000B47
:102650002C0D266727852C0D28912C0D297429A86F
:102660002B0F2B122B522BB62BE4E56730E70EE530
:102670004C454B7008E56C6402456B6003022C0FFF
:1026800090FF00E0541FB400028003D34029E54AC4
:102690006003022782AD64AE63AF62740112030F60
:1026A00078A7E630E00BAD64AE63AF62740212034C
:1026B0000F7C02122FC322B401028003D3401BE51A
:1026C0006720E107E54A6003022782E54A24FE50BD
:1026D000030227827C02122FC322B402028006D397
:1026E0005003022780E56720E10DE54A6009E54ACD
:1026F00064806003022782AC4A12304A40030227FA
:1027000082E549702530021190FF80E05408AD64E5
:10271000AE63AF6212030F800F90FF82E05408ADEA
:1027200064AE63AF6212030F803D154930021DE5B0
:102730004975F008A42448F582E434FFF583E05499
:1027400008AD64AE63AF6212030F801BE54975F0FC
:1027500008A42408F582E434FFF583E05408AD644E
:10276000AE63AF6212030FAD64AE63AF621201E6F7
:10277000600BAD64AE63AF62740112030F7C021292
:102780002FC3228000022C0FE56720E706E56C4589
:102790006B6003022C0F90FF00E0541FB400028016
:1027A00003D3401AE54C14454B7004E54A6003021C
:1027B000288E78A7E654FEF67C00122FC322B401BF
:1027C000028003D3402AE56720E108E56720E003A3
:1027D00002288EE56730E004E54A700BE56730E1DA
:1027E00009E54A24FE500302288E7C00122FC322E2
:1027F000B402028006D3500302288CE54C454B609E
:102800000302288EAC4A12304A400302288EE56744
:1028100020E107E56720E0028077E56730E006E524
:10282000496002806CE549700F90FF82E054F7F038
:1028300090FF80E054F7F022E549B401028003D311
:1028400040097D017C03120F0B8011B4020280034A
:10285000D340097D017C04120F0B80001549300222
:1028600015E54975F008A42448F582E434FFF583A2
:10287000E054F7F08013E54975F008A42408F582C8
:10288000E434FFF583E054F7F07C00122FC322807C
:1028900000022C0FE56720E706E56C456B6003023C
:1028A0002C0F90FF00E0541FB400028003D3401AA5
:1028B000E54C14454B7004E54A600302297178A782
:1028C000E64401F67C00122FC322B401028003D338
:1028D0004029E56720E108E56720E003022971E56A
:1028E0006730E004E549700BE56730E108E549240D
:1028F000FE5002807F7C00122FC322B402028003AC
:10290000D3406FE54C454B60028069AC4A12304AB7
:1029100040028060E56720E107E56720E00280541F
:10292000E549701430020990FF80E04408F0800708
:1029300090FF82E04408F022E56730E1331549302A
:102940000215E54975F008A42448F582E434FFF542
:1029500083E04408F08013E54975F008A42408F5E5
:1029600082E434FFF583E04408F07C00122FC32298
:1029700080028000022C0FE56720E712E56C456BB2
:10298000700CE54A700890FF00E0541F6003022CB1
:102990000FE54C90FFFFF090FFFFE06005436701FB
:1029A00080035367FE7C00122FC322E56730E70ED9
:1029B000E56C456B600890FF00E0541F6003022C3B
:1029C0000FAD4BE54CED7D00FC7D00FCBD000280B1
:1029D00003022B0AB401028003D34032E54A70059A
:1029E000E54CFC6003022B0C7564007563FC75629A
:1029F00001D3E56C9412E56B94004006E4FD7C1273
:102A00008004AC6CAD6B8C6A8D69122FD822B40235
:102A1000028003D34059E54A6003022B0CE54CFCCD
:102A200070277564127563FC756201D3E56C9419A7
:102A3000E56B94004006E4FD7C198004AC6CAD6B42
:102A40008C6A8D69122FD8802575642B7563FC758F
:102A50006201D3E56C9435E56B94004006E4FD7C9F
:102A6000358004AC6CAD6B8C6A8D69122FD822B4A2
:102A700003028006D35003022B0AE54CF549700F80
:102A800090FF04E0FDA3E04D6003022B0C80189042
:102A9000FC82E0FDA3E0FC90FF05E06C700790FF76
:102AA00004E06D60028068E4F56AF5697F00E5493D
:102AB00014C549600FEF2480F582E434FCF583E00F
:102AC0002FFF80EA8F4AE54A2480F582E434FCF542
:102AD00083E07D00D3956CED956B4006AC6CAD6BDF
:102AE000800FE54A2480F582E434FCF583E07D0024
:102AF000FC8C6A8D69E54A2480FCE434FCFDFEEC24
:102B0000FD7F018D648E638F62122FD822800002B8
:102B10002C0F022C0FE56730E719E56C14456B703C
:102B200012E54A700EE54C454B700890FF00E054EA
:102B30001F6003022C0FE56720E008E56720E10332
:102B4000022C0F756468E4F563F562E4F56904F539
:102B50006A122FD822E56720E727E56C456B7021C4
:102B6000E54A701DE54C6402454B600DE54C14458B
:102B70004B6006E54C454B700890FF00E0541F6029
:102B800003022C0FE56720E008E56720E103022C33
:102B90000F854C68E56870084367015367FD801333
:102BA000E56864026007E56814600280655367FEAB
:102BB0004367027C00122FC322E56730E71AE56CF9
:102BC00014456B7013E54A700FE54C454B70099046
:102BD000FF00E0541F1460028038E56720E10280A6
:102BE000317C01122FC322E56720E715E56C456BA8
:102BF000700FE54C454B700990FF00E0541F1460C6
:102C000002800FE56720E10280087C00122FC322BA
:102C10008000022ECAB440028006D35003022EC0A8
:102C200090FF01E090FD3DF0E54A90FD3EF0E4901C
:102C3000FD3FF0E5642403F564E5633400F563AD1E
:102C40004BE54C856482856383CDF0A3CDF090FF86
:102C500001E01201B72C7D012CA3022CCD032CF72F
:102C6000042D45052D82062DA8072DCE082DF4092B
:102C70002E1A0B2E400C2E4F802E4F8100002EADB1
:102C8000E56720E7067C0512254A227DB77E347F62
:102C90000279407AFD7B017408780012033F7D08B9
:102CA0007C001224B122E56720E7067C0512254A44
:102CB00022E54AB403004010B40500500BE54A7FFA
:102CC00000FE7C1012319A227D007C071224B12272
:102CD000E56720E7067C0512254A22E54AB4030091
:102CE0004010B40500500BE54A7F00FE7C11123104
:102CF0009A227D007C071224B122E56720E7067C3A
:102D00000512254A22E54AB405028003D3400AE4AD
:102D1000FF04FE7C0A12319A22B401028003D340E0
:102D20000AE4FF04FE7C0812319A22B4030040102A
:102D3000B40500500BE54A7F00FE7C1312319A2245
:102D40007D007C071224B122E56720E734D3E56CCF
:102D50009448E56B94005006E56C456B70067C0268
:102D600012254A22E54AB40103B3400BC3B4030061
:102D70004009B406005004123070227C0712254A24
:102D8000221224E822E56720E71DE54AB40300404B
:102D900010B40500500BE54A7F00FE7C1612319AF4
:102DA000227C0712254A221224E822E56720E71D2B
:102DB000E54AB403004010B40500500BE54A7F001B
:102DC000FE7C1912319A227C0712254A221224E82D
:102DD00022E56720E71DE54AB403004010B4050072
:102DE000500BE54A7F00FE7C1712319A227C0712B5
:102DF000254A221224E822E56720E71DE54AB403AC
:102E0000004010B40500500BE54A7F00FE7C18120C
:102E1000319A227C0712254A221224E822E56720F3
:102E2000E71DE54AB403004010B40500500BE54A25
:102E30007F00FE7C1512319A227C0712254A22124D
:102E400024E822E56720E7067C0712254A2212249F
:102E5000E822E56730E72090FF00E0541F701090F3
:102E6000FF01E0B480051224DF80031224E8227DF4
:102E7000007C051224B12290FF00E0541F60067C04
:102E80000512254A22D3E56C9448E56B9400500B5B
:102E9000C3E56C9407E56B940050067C0312254A49
:102EA00022E54AB40504123070227C0712254A221A
:102EB000E56730E7087D007C051224B1227C05120D
:102EC000254A22B420028003D340008000122F9EA6
:102ED0002275430090FF83E0540FD395434024E5CF
:102EE0004324F0F582E434FEF583E0AD64AE63AFD5
:102EF0006212030F05430DED70010E8D648E638F1A
:102F00006280D1E5437D00FCC3E56A9CF56AE56912
:102F10009DF569E56A45696006E490FF83F02290BB
:102F2000FF82E04408F0E4F569756A4990FD3DE0F0
:102F3000B405028003D3404090FD3EE0F543B40564
:102F4000028003D3400AE4FF04FE7C0B12319A2274
:102F5000B401028003D3400AE4FF04FE7C0912316D
:102F60009A22B403004010B40500500BE5437F00E3
:102F7000FE7C1412319A2222B480004023B48200D5
:102F8000501E7C3D7DFD1217D57D008C668D6590B1
:102F9000FD3FE06005122F9E80057C00122FC322AA
:102FA0002290FF83E0547FF090FF82E04408F0908D
:102FB000FF80E04408F02290FF82E04408F090FF98
:102FC00080E04408F0228C237D008C6A8D69756452
:102FD0003D7563FD756201122FD82290FF83E05486
:102FE0007FF0E56A64494569700122C3E56A940887
:102FF000E56994004015752108E5217D00FCC3E5D5
:103000006A9CF56AE5699DF5698009856A21E4F5A0
:1030100069756A49752200E522C395215026AD6481
:10302000AE63AF621201E6FCE52224F8F582E434D7
:10303000FEF583ECF005220DED70010E8D648E63BC
:103040008F6280D3E521547F90FF81F0228C487FEE
:1030500000EF24FB4019E4EF75F007A4243FF5824C
:10306000E434FCF583E065487002D3220F80E28FE0
:1030700047C322856C6A856B6990FF82E054F7F044
:1030800090FF83E0547FF022C000C001C002C00660
:10309000C007E5722408F8860653067F7CFF1230CD
:1030A000FA7C007D00E5756046FF90FE9DE0547F50
:1030B0006E700FC083C082A3E0FDA3E0FCA3157572
:1030C0008007A3A3A3DFE68026DF06D082D083801B
:1030D0001EE0F8A3E0F9A3E0FAD082D083E8F0A3E1
:1030E000E9F0A3EAF0A3C083C082A3A3A380DA120D
:1030F0003193D007D006D002D001D0002285A87429
:1031000075A888EC70027C3F8C7322E5722408F865
:1031100076001231E780FBC000C001C002C006C0CB
:1031200007AE047CFF1230FAE5756042FF90FE9D09
:10313000E0547F6E700BC083C082A3A3A31575807B
:1031400007A3A3A3DFEA8026DF06D082D08380D83E
:10315000E0F8A3E0F9A3E0FAD082D083E8F0A3E995
:10316000F0A3EAF0A3C083C082A3A3A380DA780807
:10317000087918097C01E6547F6E700676007700A6
:10318000800608090CBC08EE123193D007D006D097
:1031900002D001D000227573008574A822C0F0C04F
:1031A00082C083C3E57524E850051231E780F4EC52
:1031B00060319034B6E493C39C4028C0047CFF1275
:1031C00030FAD004430480E57575F003A4249DF51E
:1031D00082E434FEF583ECF0EFA3F0EEA3F0057586
:1031E000123193D083D082D0F022C0047C20D28CC4
:1031F000D28DD504FDD0042275A80075880075B85D
:103200000075F00075D000E4F8900000F608B800F2
:10321000FB020000C3ED940250047D037CE8ECF453
:10322000FCEDF4FD0CBC00010D8C798D7822C3EC13
:1032300094BCED940250047D077CD0ECF4FCEDF4DA
:10324000FD0CBC00010D8C778D7622EC700122C044
:1032500000E5722418F8A604E5722408F8C6547F25
:10326000F6E630E703D000221231E780F4C28C8505
:10327000768C85778AD28CC0E0C0D0C0F0C082C086
:1032800083C000C001C002C003C004C005C006C0A6
:1032900007121B28E5722408F8E66024E572241062
:1032A000F8A681E57275F021A42495F582E434FD39
:1032B000F58378A8E58104C398F9E6F008A3D9FA64
:1032C00074082572F8057208E65480700CE572B433
:1032D00007F3780875720080EFE5722410F8868194
:1032E000E57275F021A42495F582E434FDF5837828
:1032F000A8E58104C398F9E0F608A3D9FAD007D06D
:1033000006D005D004D003D002D001D000D083D0A5
:1033100082D0F0D0D0D0E032C0E0C0D0C000C00138
:10332000C002C28E85788D85798BD28E7819790905
:103330007A07E77004A600800BE6600816E67004C2
:10334000E74480F70809DAEAE573601314F573704F
:103350000EE5722408F87600123193D28CD28DD00B
:1033600002D001D000D0D0D0E0327581A775900096
:103370007579307578F87577607576F012053C12BE
:10338000340F12178B1234391231F580E322C0004A
:103390007C01EC2408F8E660090CBC08F51231E762
:1033A00080EED00022C0F0C082C083C000C006C042
:1033B00007ED2410F876B6ED75F021A42495F5827A
:1033C000E434FDF583C082C083A3A3E4780DF0A3A9
:1033D000D8FCEC547F75F002A42482F582E5F03429
:1033E00034F583E493FE740193F5828E83E493FEB7
:1033F000740193FFD083D082EFF0A3EEF0ED2408A8
:10340000F8EC4480F6D007D006D000D083D082D02C
:10341000F0227572007575007A08791878087600C0
:1034200077000809DAF8E478087480447FF67401BC
:103430004410F58975B808D2ABD2A9227581A7D2FC
:103440008ED28CD2AFE5756032FF90FE9DE0548045
:10345000602478087908E0547FFA7B00E6547FB551
:1034600002027BFF08D9F5EB700CEAF012338BAD4A
:1034700004AC021233A2A3A3A3DFD21231E780C5AA
:103480007C017D002204F504E904ED04E104DD047F
:10349000D904E504F1049D04A104CD04D1049904E8
:1034A00099049904D504B504AD04B104A904C10478
:1034B000BD04B904C504C904A519010300220048CC
:1034C0000200240F180A10640D680C05060203019F
:1034D0000181010000E700C0008000600040003072
:1034E0000018000C00080004000200010008183851
:1034F000280602100A0200000000000181100A02E2
:103500000000000000FBE8FBFA12011001FF0000C0
:103510000851045F50160101020002090235000142
:103520000200E0000904000005FF0000000705811B
:10353000024000000705010240000007058202402A
:103540000000070502024000000705850302000194
:10355000040309042403540065007800610073002B
:10356000200049006E0073007400720075006D0049
:1035700065006E00740073002A0354005500530068
:103580004200350030003500320020005300650055
:103590007200690061006C00200050006F00720032
:1035A00074002203540055005300420035003000DF
:1035B00035003200200020002000200020002000E4
:0435C00020002000C7
:00000001FF
